:020000040800F2
:10000000700600206D01000829050008490300085A
:100010002505000829020008650D00080000000001
:10002000000000000000000000000000AD0A000811
:100030002D02000800000000790A0008B10A00083B
:100040008701000887010008870100088701000870
:100050008701000887010008870100088701000860
:100060008701000887010008870100088701000850
:100070008701000887010008870100088701000840
:100080008701000887010008870100088701000830
:100090008701000887010008870100088701000820
:1000A0008701000887010008870100088701000810
:1000B000C50B000887010008000000008701000848
:1000C0008701000800000000000000008701000810
:1000D0000000000087010008870100080000000000
:1000E00087010008870100088701000800F002F876
:1000F00000F02CF80AA090E8000C82448344AAF196
:100100000107DA4501D100F021F8AFF2090EBAE893
:100110000F0013F0010F18BFFB1A43F0010318473B
:10012000D0120000E0120000002300240025002669
:10013000103A28BF78C1FBD8520728BF30C148BF4A
:100140000B6070471FB51FBD10B510BD00F031F832
:100150001146FFF7F7FF00F007FE00F04FF803B479
:10016000FFF7F2FF03BC00F057F800000948804792
:1001700009480047FEE7FEE7FEE7FEE7FEE7FEE789
:10018000FEE7FEE7FEE7FEE704480549054A064BA1
:1001900070470000B50A0008ED000008700000205C
:1001A0007006002070020020700200207047704727
:1001B0007047754600F02CF8AE4605006946534678
:1001C00020F00700854618B020B5FFF7DDFFBDE839
:1001D00020404FF000064FF000074FF000084FF0AE
:1001E000000BAC46ACE8C009ACE8C009ACE8C009FB
:1001F000ACE8C00921F007018D46704710B50446F0
:10020000AFF300802046BDE81040FFF7A8BF000014
:10021000004870470000002001491820ABBEFEE7EF
:100220002600020070470000FEE700007047000053
:1002300010B5002808BF10BD4EF2100141F6401C59
:10024000CEF20001C0F2010C4FF0000E0522042393
:10025000C1F804C0C1F808E00A6000BF0C68E403FC
:10026000FCD501380B60F3D110BD00002DE9F0473B
:10027000CA7802F00F0CD30644BF8B784CEA030C0B
:1002800009880B0625D082465AF8144B00F1100E4F
:1002900000254FF001094FF00F08002706E000BFCE
:1002A0001E600137082F05F1040511D009FA07F681
:1002B0000E42F6D008FA05F324EA03030CFA05F41B
:1002C0001C43282A5346EBD0482AEAD17346E7E775
:1002D0000460B1F5807F38BFBDE8F087436800F166
:1002E000100E00F1140900254FF4807A4FF00F082A
:1002F000002705E034600137082F05F1040512D00E
:100300000AFA07F404EA0106A642F4D108FA05F64F
:10031000B3430CFA05F63343282A4E46EAD0482A5E
:10032000E9D17646E6E74360BDE8F087806808409B
:1003300018BF012070470000016170471023002A98
:1003400008BF1423C1507047FEE7000040F263016C
:10035000C2F20001087800220A70704780B582B0AE
:100360000420012100F096FBFF20C4F60300019059
:1003700040F60000C4F2010001A9FFF777FF02B0C8
:1003800080BD00002DE9F04140F26208C2F2000891
:1003900098F8000040F2610740F60004C2F200073E
:1003A000C4F201043870204601210125FFF7BEFF89
:1003B000B0FA80F0460920460221FFF7B7FF002877
:1003C00020464FF0040108BF0226FFF7AFFF0028C8
:1003D00020464FF0080108BF0326FFF7A7FF0028BB
:1003E00020464FF0100108BF0426FFF79FFF0028AA
:1003F00020464FF0200108BF0526FFF797FF002891
:1004000020464FF0400108BF0626FFF78FFF002867
:1004100020464FF0800108BF0726FFF787FF00281E
:1004200008BF08263978F0B2CA1EB0FA80F0B2FAD6
:1004300082F24409520902EA040E0A1F881EB2FA27
:1004400082F2B0FA80F0520988F800604009012970
:1004500002EA0408A1F10507A1F10606A1F10702CD
:10046000A1F1080100EA0400B7FA87F7B6FA86F6A8
:10047000B2FA82F2B1FA81F103464FEA57174FEA16
:1004800056164FEA52124FEA511108BF2346274031
:10049000264011EA040C04EA020408BF002C0BD128
:1004A00056B94FB9B8F1000F06D1BEF1000F03D114
:1004B000002B08BFBDE8F081002818BF0225BEF15F
:1004C000000F18BF0325B8F1000F18BF0425002F37
:1004D00018BF0525002E18BF062540F26300002C2A
:1004E00018BF0725C2F20000BCF1000F18BF082595
:1004F0000570BDE8F081000080B582B008200121C0
:1005000000F0C8FA40F2E830C1F20340019040F632
:100510000040C4F2010001A9FFF7A8FE02B080BDAF
:10052000FFF70ABFFEE700007047000010B5C17872
:1005300000294EF20011CEF200011AD04EF60C52F4
:10054000CEF200021268072323EA12220F23C2F11F
:10055000040C23FA02F24378847890F800E003FA5E
:100560000CF322401A43120101EB0E0383F800231F
:1005700000E080310078012300F01F0203FA02F24C
:10058000C0F3421041F8202010BD000040F0806010
:100590004EF60C5140F0FD70CEF20001086070473D
:1005A000B0B582B01020012100F074FA44F20000CE
:1005B00041F20004C1F20340C4F2010401AD019014
:1005C00020462946FFF752FE4FF40050ADF80400D4
:1005D00020462946FFF74AFE20464FF4804101227B
:1005E000FFF7ACFE20464FF400510122FFF7A6FEB4
:1005F000AE2000F0F5F8D52000F0F2F8802000F0F1
:10060000EFF8A82000F0ECF83F2000F0E9F8D32044
:1006100000F0E6F80020002400F0E2F8402000F0AE
:10062000DFF8A12000F0DCF8C82000F0D9F8DA20CB
:1006300000F0D6F8122000F0D3F8812000F0D0F8B6
:10064000CF2000F0CDF8D92000F0CAF8F12000F05A
:10065000C7F8DB2000F0C4F8302000F0C1F8A42077
:1006600000F0BEF8A62000F0BBF88D2000F0B8F82E
:10067000142000F0B5F8AF2000F0B2F844F0B0005C
:10068000C0B200F0ADF8102000F0AAF8002000255C
:1006900000F0A6F8002000F047F9681C45B2B5F15B
:1006A000FF3FF7DCE0B201340728E7D302B0B0BD6A
:1006B0002DE9F04381B016467E224FEA400802EB56
:1006C00040006FF0070240F0B00002EBC104C0B27E
:1006D000E5B200F085F8280900F11009484600F05D
:1006E0007FF804F00805284600F07AF840F600602C
:1006F000C0F6000000EB0616A6F20127082400BF92
:1007000017F8010F00F010F9013CF9D1A8F1010030
:1007100040F0B000C0B200F063F8484600F060F866
:10072000284600F05DF8A6F2F914082514F8010F28
:1007300000F0FAF8013DF9D101B0BDE8F083000006
:100740002DE9F047002B08BFBDE8F0874CF6CD4AF5
:100750001C469046894607465D420026CCF6CC4AA8
:1007600018E000BF0120B8FBF0F0A0FB0A12D2088D
:1007700002EB8202A0EB420006EB090140F03000E0
:10078000C2B2C9B23846FFF793FF0136A64205F15F
:1007900001050DD0F0430019E4D00120294600BF27
:1007A00000EB800001314A1C4FEA4000F8D1DAE743
:1007B000BDE8F087F0B581B0144612786AB10D46F5
:1007C000064600277819C1B2D2B23046FFF770FF53
:1007D0000137F8B2225C002AF4D101B0F0BD00006C
:1007E000F0B581B041F20004C4F201040546204690
:1007F0004FF400510122FFF7A1FD20464FF4804144
:100800000122FFF79BFD20464FF4005100220026F5
:10081000FFF794FD20464FF480410022FFF78EFD44
:10082000802700BF27FA06F000F0780220464FF438
:100830000051FFF783FD20464FF480410122FFF76E
:100840007DFD20464FF480410022FFF777FD013601
:10085000082EE7D120464FF480410122FFF76EFDBC
:1008600020464FF480410022FFF768FD082600BFB4
:1008700020464FF400510022FFF760FD20464FF460
:1008800080410122FFF75AFD20464FF480410022AB
:10089000FFF754FD013EEBD120464FF48041012289
:1008A000FFF74CFD20464FF4804100220026FFF761
:1008B00045FD802727FA06F000EA050220464FF49E
:1008C0000051FFF73BFD20464FF480410122FFF726
:1008D00035FD20464FF480410022FFF72FFD013601
:1008E000082EE7D120464FF480410122FFF726FD74
:1008F00020464FF480410022FFF720FD20464FF4B0
:1009000000510022FFF71AFD20464FF480410122DA
:10091000FFF714FD20464FF40051012201B0BDE85D
:10092000F040FFF70BBD0000F0B581B041F20004CC
:10093000C4F20104054620464FF400510122FFF79E
:10094000FDFC20464FF480410122FFF7F7FC2046D2
:100950004FF4005100220026FFF7F0FC20464FF430
:1009600080410022FFF7EAFC802700BF27FA06F04B
:1009700000F0780220464FF40051FFF7DFFC2046DC
:100980004FF480410122FFF7D9FC20464FF480410B
:100990000022FFF7D3FC0136082EE7D120464FF4A2
:1009A00080410122FFF7CAFC20464FF4804100221B
:1009B0000026FFF7C3FC802727FA06F000F040026C
:1009C00020464FF40051FFF7B9FC20464FF4804118
:1009D0000122FFF7B3FC20464FF480410022FFF7CD
:1009E000ADFC0136082EE7D120464FF480410122AC
:1009F000FFF7A4FC20464FF4804100220026FFF7B9
:100A00009DFC802727FA06F000EA050220464FF4F5
:100A10000051FFF793FC20464FF480410122FFF77D
:100A20008DFC20464FF480410022FFF787FC013601
:100A3000082EE7D120464FF480410122FFF77EFCCB
:100A400020464FF480410022FFF778FC20464FF407
:100A500000510022FFF772FC20464FF48041012232
:100A6000FFF76CFC20464FF40051012201B0BDE8B5
:100A7000F040FFF763BC000070470000002941F21E
:100A80001C01C4F202010A680CBF22EA00001043F4
:100A900008607047002941F21801C4F202010A6897
:100AA0000CBF22EA00001043086070477047000046
:100AB0007047000082B041F20400C4F2020050F816
:100AC000041C002241F0010140F8041C0168CFF62B
:100AD000FF021140016050F8041C4FF6FF72CFF680
:100AE000F662114040F8041C50F8041C21F48021E7
:100AF00040F8041C016821F4FE0101604FF41F015D
:100B0000416000210191009150F8041C41F48031B2
:100B100040F8041C50F8041C01F4003100910199C4
:100B200001310191009919B90199B1F5A06FF1D185
:100B300050F8041C890354BF002101210091009941
:100B4000012936D142F20001C4F202010A6842F0E2
:100B500010020A600A6822F003020A600A6842F082
:100B600002020A600168016001680160016841F4E5
:100B700080610160016821F47C110160016841F429
:100B8000E811016050F8041C41F0807140F8041C29
:100B900050F8041C8901FBD5016821F003010160B4
:100BA000016841F002010160016801F00C010829AF
:100BB000FAD14EF60850CEF200004FF0006101600D
:100BC00002B0704780B54FF08040012100F02EF850
:100BD000002808BF80BD40F26400C2F20000017826
:100BE000CD230131CAB25A43120B02EB8202A1EBB0
:100BF00082010170FFF7C6FB4FF080400121BDE884
:100C0000804000F005B80000C94301827047000031
:100C1000C9430182704700000288002918BF0121E2
:100C200022F001021144018070470000028A80898D
:100C30000A4000EA010018BF0122002818BF012065
:100C400010407047002A82890CBF22EA010111433B
:100C50008181704740F6FF33B0F800C0C4F2000352
:100C600098420FDCB0F1804F1ED040F20043C4F236
:100C70000003984218D040F60003C4F200039842E3
:100C800012D016E040F60043C4F2000398420BD0A5
:100C900043F20043C4F20103984205D042F60043F8
:100CA000C4F20103984204D14B882CF0700243EA4D
:100CB000020C41F2004240F48063C4F2000293420D
:100CC00004D0CA882CF4407342EA030CA0F800C098
:100CD0008A888285A0F18042A2F596320B884FEA7D
:100CE000B222072A038507D8012303FA02F212F081
:100CF000E50F1CBF097A018601218182704700003F
:100D000080B584B04FF4E060FFF740FC1C20C0F2D7
:100D1000031000906846FFF709FC01200121FFF74E
:100D2000ADFE40F2E73002904720019000208DF8A0
:100D30000C0001A94FF08040FFF78CFF4FF080407E
:100D40000121FFF761FF4FF0804001210122FFF7F1
:100D500079FF4FF080400121FFF75EFFFFF7FEFAB9
:100D600004B080BDFEE7000040F60C44C4F201046C
:100D7000FFF716FCFFF7C0FBFFF7C2FFA4F10C0062
:100D80004FF47871FFF7CCFB1AA201200421FFF782
:100D900011FD40F2600540F2680640F26C07C2F2B5
:100DA0000005C2F20006C2F2000708E03868013010
:100DB00038603A68032001210523FFF7C1FCFFF7E3
:100DC000C5FA31682870481C80B230604FF47A70E0
:100DD000FFF72EFA3268022001210523FFF7B0FC4D
:100DE00028780228E2D00128E3D1206880F47870C6
:100DF0002060DEE74F4C4544205465737420210089
:100E000000000000000000000000000000000000E2
:100E1000000000F800000000000000333000000077
:100E200000100C06100C060000000000000000007E
:100E300040C07840C0784000043F04043F040400F0
:100E4000007088FC08300000001820FF211E000000
:100E5000F008F000E018000000211C031E211E0015
:100E600000F00888700000001E212324192721109B
:100E700010160E000000000000000000000000003E
:100E8000000000E0180402000000000718204000E5
:100E900000020418E00000000040201807000000D5
:100EA000404080F0804040000202010F0102020039
:100EB000000000F0000000000101011F010101001D
:100EC000000000000000000080B070000000000082
:100ED000000000000000000000010101010101010B
:100EE00000000000000000000030300000000000A2
:100EF0000000000080601804006018060100000077
:100F000000E010080810E000000F102020100F0073
:100F1000001010F8000000000020203F20200000FA
:100F20000070080808887000003028242221300052
:100F300000300888884830000018202020110E005A
:100F40000000C02010F8000000070424243F240003
:100F500000F80888880808000019212020110E00D8
:100F600000E0108888180000000F112020110E00EA
:100F700000380808C83808000000003F00000000E2
:100F80000070880808887000001C222121221C00A3
:100F900000E010080810E0000000312222110F00CC
:100FA000000000C0C0000000000000303000000061
:100FB00000000080000000000000806000000000D1
:100FC00000008040201008000001020408102000EA
:100FD0004040404040404000040404040404040035
:100FE00000081020408000000020100804020100CA
:100FF000007048080808F0000000003036010000CA
:10100000C030C828E810E0000718272423140B007C
:101010000000C038E0000000203C230202273820F6
:1010200008F8888888700000203F202020110E00DA
:10103000C0300808080838000718202020100800D1
:1010400008F808080810E000203F202020100F00BA
:1010500008F88888E8081000203F20202320180086
:1010600008F88888E8081000203F200003000000EE
:10107000C03008080838000007182020221E02008F
:1010800008F808000008F808203F210101213F204E
:10109000000808F8080800000020203F2020000079
:1010A00000000808F8080800C08080807F00000069
:1010B00008F888C028180800203F200126382000A2
:1010C00008F8080000000000203F20202020300009
:1010D00008F8F800F8F80800203F003F003F200023
:1010E00008F830C00008F808203F200007183F002B
:1010F000E01008080810E0000F10202020100F005A
:1011000008F808080808F000203F2101010100004C
:10111000E01008080810E0000F18242438504F0091
:1011200008F8888888887000203F2000030C302051
:1011300000708808080838000038202121221C008F
:10114000180808F8080818000000203F20000000D8
:1011500008F808000008F808001F202020201F00C1
:101160000878880000C83808000007380E01000021
:10117000F80800F80008F800033C0700073C0300EB
:10118000081868808068180820302C03032C302051
:101190000838C800C83808000000203F20000000C0
:1011A00010080808C8380800203826212020180018
:1011B000000000FE020202000000007F40404000EC
:1011C000000C30C000000000000000010638C00024
:1011D00000020202FE000000004040407F000000CC
:1011E00000000402020204000000000000000000F1
:1011F00000000000000000008080808080808080EF
:1012000000020204000000000000000000000000D6
:1012100000008080808000000019242222223F20CC
:1012200008F8008080000000003F112020110E000F
:101230000000008080800000000E1120202011009E
:10124000000000808088F800000E112020103F2050
:101250000000808080800000001F222222221300D4
:10126000008080F0888888180020203F202000001F
:101270000000808080808000006B949494936000D4
:1012800008F8008080800000203F210000203F20DF
:1012900000809898000000000020203F20200000DF
:1012A000000000809898000000C08080807F0000CF
:1012B00008F8000080808000203F24022D302000AC
:1012C000000808F8000000000020203F2020000057
:1012D0008080808080808000203F20003F20003F71
:1012E0008080008080800000203F210000203F207F
:1012F0000000808080800000001F202020201F0030
:10130000808000808000000080FFA12020110E005E
:101310000000008080808000000E112020A0FF804F
:10132000808080008080800020203F2120000100FC
:101330000000808080808000003324242424190051
:10134000008080E0808000000000001F202000005E
:101350008080000000808000001F202020103F209F
:10136000808080000080808000010E30080601002F
:1013700080800080008080800F300C030C300F00D4
:1013800000808000808080000020312E0E312000FF
:10139000808080000080808080818E70180601002F
:1013A00000808080808080000021302C222130004D
:1013B00000000000807C020200000000003F40406E
:1013C00000000000FF00000000000000FF0000001F
:1013D0000002027C800000000040403F000000004E
:1013E00000060101020204040000000000000000E9
:1013F000001400080000002070060000280100080A
:04000005080000ED02
:00000001FF
