:020000040800F2
:10000000780400200101000819020008110200080C
:100010001502000849010008390700080000000027
:100020000000000000000000000000004D03000878
:100030004D01000800000000910200085103000873
:100040001B0100081B0100081B0100081B01000820
:100050001B0100081B0100081B0100081B01000810
:100060001B0100081B0100081B0100081B01000800
:100070001B0100081B0100081B0100081B010008F0
:100080001B0100081B0100081B0100081B010008E0
:100090001B0100081B0100081B0100081B010008D0
:1000A0001B0100081B0100081B0100081B010008C0
:1000B0001B0100081B010008000000001B010008D4
:1000C0001B01000800000000000000001B010008E8
:1000D00000000000650400081B010008000000008B
:1000E0001B0100081B0100081B010008DFF80CD0F1
:1000F00000F018F800480047E907000878040020DD
:100100000648804706480047FEE7FEE7FEE7FEE7B1
:10011000FEE7FEE7FEE7FEE7FEE7FEE75503000821
:10012000ED000008064C074D06E0E06840F00103D2
:1001300094E8070098471034AC42F6D3FFF7DAFF93
:100140003808000848080008FEE700007047000073
:100150002DE9F047CA7802F00F0CD30644BF8B7824
:100160004CEA030C09880B0625D082465AF8144B3A
:1001700000F1100E00254FF001094FF00F08002785
:1001800006E000BF1E600137082F05F1040511D0FD
:1001900009FA07F60E42F6D008FA05F324EA03033B
:1001A0000CFA05F41C43282A5346EBD0482AEAD11E
:1001B0007346E7E70460B1F5807F38BFBDE8F0879C
:1001C000436800F1100E00F1140900254FF4807A05
:1001D0004FF00F08002705E034600137082F05F1C4
:1001E000040512D00AFA07F404EA0106A642F4D183
:1001F00008FA05F6B3430CFA05F63343282A4E46AF
:10020000EAD0482AE9D17646E6E74360BDE8F087C0
:10021000FEE70000FEE700007047000010B5C1785F
:1002200000294EF20011CEF200011AD04EF60C5207
:10023000CEF200021268072323EA12220F23C2F132
:10024000040C23FA02F24378847890F800E003FA71
:100250000CF322401A43120101EB0E0383F8002332
:1002600000E080310078012300F01F0203FA02F25F
:10027000C0F3421041F8202010BD000040F0806023
:100280004EF60C5140F0FD70CEF200010860704750
:1002900070470000002941F21801C4F202010A6807
:1002A0000CBF22EA000010430860704710B541F20D
:1002B0000404C4F20204226802F00C02082A41F28B
:1002C0000022C0F27A021CD12368D4F800C0C3F324
:1002D000834E5FEACC330EF1020C06D440F60012D6
:1002E000C0F23D020CFB02F20BE023689B0302D438
:1002F0000CFB02F205E040F60012C0F23D020CFBDE
:1003000002F20260226840F62803C2F30312C0F62C
:1003100000039A5C0168D14041602268C2F3022266
:100320009A5C21FA02F282602268C2F3C2229A5CCD
:1003300040F62403D140C1602268C0F60003C2F336
:1003400081329A5CB1FBF2F1016110BD704700008F
:100350007047000082B041F20400C4F2020050F87D
:10036000041C002241F0010140F8041C0168CFF692
:10037000FF021140016050F8041C4FF6FF72CFF6E7
:10038000F662114040F8041C50F8041C21F480214E
:1003900040F8041C016821F4FE0101604FF41F01C4
:1003A000416000210191009150F8041C41F480311A
:1003B00040F8041C50F8041C01F40031009101992C
:1003C00001310191009919B90199B1F5A06FF1D1ED
:1003D00050F8041C890354BF0021012100910099A9
:1003E000012936D142F20001C4F202010A6842F04A
:1003F00010020A600A6822F003020A600A6842F0EA
:1004000002020A600168016001680160016841F44C
:1004100080610160016821F47C110160016841F490
:10042000E811016050F8041C41F0807140F8041C90
:1004300050F8041C8901FBD5016821F0030101601B
:10044000016841F002010160016801F00C01082916
:10045000FAD14EF60850CEF200004FF00061016074
:1004600002B0704710B543F60004C4F20104204600
:1004700040F2255100F066F8012818BF10BD204653
:1004800000F0ECF840F20A01C2F200010A78C0B2B2
:10049000012A11D0AAB9402834D140F27000C2F22A
:1004A0000000007870BB0120087040F20B00C2F21F
:1004B00000000021017025E00D2817D102200870EE
:1004C00020E00A281ED10020087040F20B01C2F281
:1004D0000001097840F20C02C2F20002505440F2CE
:1004E0007000C2F20000012101700BE040F20B012C
:1004F000C2F200010A7840F20C03C2F200039854E1
:10050000501C0870204640F22551BDE8104000F014
:1005100001B80000090A012202FA01F1C943018071
:10052000704700008289002918BF012122F400527F
:1005300042EA4131818170470088084018BF01209C
:1005400070470000C1F34212022A06D0012A14BFEC
:1005500000F1140200F10C0201E000F11002128817
:10056000008801F01F03090ADA40C840104000F07B
:1005700001007047C1F3421301F01F0C1421022B3C
:1005800008BF1021012B4FF0010308BF0C21002AE6
:1005900003FA0CF243580CBF23EA02021A434250FA
:1005A0007047000070B586B00446008A0D46C988C1
:1005B00020F4405008432082A0894EF6F3110840F1
:1005C000A9882A896B89084310431843A081A08A0F
:1005D000A98920F44070084301AEA0823046FFF79D
:1005E00065FE43F6000106F10800C4F201018C42E9
:1005F00008BF06F10C0000681922B4F90C10504332
:100600002A680123B1F1FF3FC8BF022302FA03F1B8
:10061000B0FBF1F048F21F51C5F2EB11A0FB012332
:100620005A096FF0630302FB0300B4F90C30032690
:10063000B3F1FF3FC8BF042600FA06F000F1320014
:10064000A0FB01014FF00700C8BF0F2000EA5110C6
:1006500040EA0210208106B070BD000080886FF370
:100660005F2070476FF35F218180704770B540F263
:100670000005C2F2000540F2FF6325F80139E87079
:10068000100A29716871AA71002006212A4600BF4C
:1006900012F8013F01391844FAD1404243F60004F0
:1006A00000BAC4F20104000CA5F8070020467E2120
:1006B00000F08EF8082600BF15F8011F204600F054
:1006C00087F8013EF8D12046EF21BDE8704000F0E8
:1006D0007FB8000070B540F20005C2F2000540F29C
:1006E000FF6625F80169E87029716A71002006210A
:1006F0002A46AB7112F8013F01391844FAD1404241
:1007000043F6000400BAC4F20104000CA5F8070087
:1007100020467E2100F05CF8082600BF15F8011F76
:10072000204600F055F8013EF8D12046EF21BDE803
:10073000704000F04DB80000FEE7000070B586B0D4
:1007400004200121FFF7A6FD4FF480400121FFF7AF
:10075000A1FD43F6000440F20020C4F20104C1F6FA
:100760000300A4F540556E46009028463146FFF739
:10077000EFFC40F20040C2F60300009028463146EC
:10078000FFF7E6FC4FF41650019000204FF4402193
:10079000ADF81000CDE9020101A92046FFF702FFE4
:1007A000204640F225510122FFF7E4FE4FF4A060FD
:1007B000FFF764FD40F22510C0F20110059005A876
:1007C000FFF72CFD20460121FFF7ACFE06B070BDFF
:1007D00010B50446FFF746FF20468021FFF7ACFE28
:1007E0000028F9D010BD0000FFF7A8FF0620002167
:1007F0001422FFF73BFF0F20002102220623FFF700
:1008000069FF00BFFEE702E008C8121F08C1002A06
:10081000FAD170477047002001E001C1121F002A81
:10082000FBD1704702040608000000000102030427
:100830000102030406070809480800080000002018
:0808400078040000160800080E
:04000005080000ED02
:00000001FF
