:020000040800F2
:100000008804002001010008B5130008C50F00088E
:10001000B113000809090008ED21000800000000E4
:100020000000000000000000000000008D1C00081F
:100030000D0E000800000000B91B0008911C00080C
:100040001B0100081B0100081B0100081B01000820
:100050001B0100081B0100081B0100081B01000810
:100060001B0100081B0100081B0100081B01000800
:100070001B0100081B0100081B0100081B010008F0
:100080001B0100081B0100081B0100081B010008E0
:100090001B0100081B0100081B0100081B010008D0
:1000A0001B0100081B0100081B0100081B010008C0
:1000B000A51D00081B010008000000001B0100082E
:1000C0001B01000800000000000000001B010008E8
:1000D00000000000E51F00081B01000800000000F0
:1000E0001B0100081B0100081B010008DFF80CD0F1
:1000F00000F056FB00480047C12200088804002099
:100100000648804706480047FEE7FEE7FEE7FEE7B1
:10011000FEE7FEE7FEE7FEE7FEE7FEE7951C0008C8
:10012000ED00000880EA010210B502F00043400033
:1001300022D04A001FD0010E01EB1261C0F356001D
:10014000C2F3560240F4000042F40002A0FB022079
:1001500000047F39140400D0401C50EA124001D43E
:100160004000491EC2B20C0604EBD010401C4008EF
:10017000802A02D003E0002010BD20F001000029F9
:1001800000DA0020184310BD2DE9FE4F81EA030478
:1001900004F0004421F0004100944FF0000B23F0E4
:1001A000004350EA01045ED052EA03045BD0C3F37B
:1001B0000A54C1F30A552C44A4F2F3340194A0FB71
:1001C0000254C1F3130141F48011C3F3130343F448
:1001D000801301FB024400FB034E840A970A44EAA1
:1001E000815447EA8357A4FB076802958D0A05FBF3
:1001F00007854FEA932C04FB0C542705029D4FEA18
:10020000065847EA1637B5EB08056EEB070C870E64
:10021000920E47EA811742EA8312A7FB0201B6EB6E
:100220000B0164EB00042B0D43EA0C335E1844EB26
:100230001C50DA465146E7FB0201C5F313044FEAAE
:100240000B3343EA14534FEA0432019C43EA06039A
:10025000A4F10C040294009CCDE900B400F00CF968
:1002600003B0BDE8F08F00200146F9E7002801DB6C
:10027000C0F10040002901DBC1F10041814201D3FE
:100280000120704700207047002801DBC0F10040CA
:10029000002901DBC1F10041814201D901207047F1
:1002A00000207047C10F80EAE0700844CA07962317
:1002B000002100F0A4B80EB5C10F80EAE070084438
:1002C000CA07002140F233438DE80E000A460B4670
:1002D00000F0D2F803B000BD20F00040C10DC0F323
:1002E000160040F400007F2901DA002070479629AB
:1002F00003DCC1F19601C8407047963988407047C9
:1003000000F0004230F000400AD0C10D01F56071EC
:10031000C0F3160042EA0151C2084007114370477A
:1003200000200146704701F0004330B421F0004145
:1003300050EA010206D00A0DA2F56072C1F3130162
:10034000002A02DC30BC00207047440F44EAC1049C
:10035000C100E01830BC00EBC25000F047B830B527
:100360000B46014600202022012409E021FA02F573
:100370009D4205D303FA02F5491B04FA02F528440D
:10038000151EA2F10102F1DC30BD2DE9F05F05463A
:10039000002092469B4688460646814640241BE044
:1003A000284641464746224600F01BFA53465A4625
:1003B000C01A914110D311461846224600F002FAA5
:1003C0002D1A67EB01084F4622460120002100F05C
:1003D000F9F917EB00094E41201EA4F10104DFDCFE
:1003E000484631462A464346BDE8F09F0029A8BF4B
:1003F0007047401C490008BF20F00100704710B44E
:10040000B0FA80FC00FA0CF050EA010404BF10BC02
:10041000704749B1CCF1200421FA04F411FA0CF12F
:1004200018BF012121430843A3EB0C01CB1D4FEA68
:1004300000614FEA102042BF002010BC704700EB63
:10044000C35010440029A4BF10BC7047401C490091
:1004500008BF20F0010010BC704710B5141E73F1E6
:10046000000408DA401C41F1000192185B411A4374
:1004700001D120F0010010BD2DE9F04D92469B46C0
:1004800011B1B1FA81F202E0B0FA80F22032904666
:1004900000F098F904460F4640EA0A0041EA0B01D1
:1004A00053465A46084313D0114653EA010019D067
:1004B000C8F14002504600F094F905460E465046F9
:1004C0005946424600F07EF9084305D0012004E079
:1004D00020463946BDE8F08D0020054346EAE07627
:1004E0002C4337430A986305E40AA0EB0800002276
:1004F000FD0A44EA47540A3002D500200146E9E7E4
:10050000010510196941DDE9084500196941BDE897
:10051000F04DA2E72DE9FE4F804681EA0300C00FAF
:100520000C46009021F0004123F00045B8EB02009A
:10053000A94105D24046214690461C460B4602463C
:1005400023F00040104347D0270DC7F30A00C3F340
:100550000A510290401A019040286BDAC3F313004D
:1005600040F4801B0098924620B10023D2EB030A8E
:1005700063EB0B0B01985946C0F14002504600F066
:1005800021F906460D4650465946019A00F039F9C0
:1005900010EB08006141002487EA115284EAE773F6
:1005A0001A4340D0009A62B3019A012A4FEA0752D7
:1005B00015DC001B61EB02014FF0004202EA07521A
:1005C000CDE90042001C41F5801132462B46FFF771
:1005D00053FF03B0BDE8F08F40462146F9E7001B0A
:1005E00061EB0201001C41F5801300185B412018EB
:1005F000A2F5001747EB030140EAD570B6196D412B
:1006000011E06D084FEA360645EAC0754FEA075219
:10061000001B61EB0201001C41F5801149084FEA03
:1006200030000019514132462B4603B0BDE8F04F6F
:10063000FFF713BF0098012240000023D0EB020215
:1006400063EBE073009821464FEAE074B8EB0000DA
:1006500061EB0401E9E783F000435BE781F00041CF
:1006600058E72DE9F04D81EA030404F0004B21F036
:10067000004514464FF0000A23F0004150EA0502FD
:1006800020D054EA01021DD0C5F30A570246C5F333
:100690001303C1F31300C1F30A5640F4801543F469
:1006A0008013A7EB0608101BD64608F2FD3873EB43
:1006B000050002D308F1010801E092185B41B8F18E
:1006C000000F03DA00200146BDE8F08D00204FF452
:1006D0008011064684460EE0171B73EB050705D311
:1006E000121B63EB050306434CEA010C49084FEA71
:1006F000300092185B4150EA0107EDD152EA030045
:1007000012D082EA040083EA0501084305D0101BD9
:10071000AB4106D20122002306E000224FF0004345
:1007200002E06FF0010253101AEB06004CEB085187
:1007300010EB0A0041EB0B01BDE8F04DFFF78DBE59
:10074000C1F30A52C1F3130140F2FF3341F48011A7
:100750009A4202DA00200146704740F233439A423F
:10076000A2F2334202DC524200F03BB800F02AB859
:1007700030B5041E71F1000404DB4FF00044404228
:1007800064EB0101141E73F1000405DB1C464FF0FD
:100790000043524263EB0403994208BF904230BDCC
:1007A000064C074D06E0E06840F0010394E80700BE
:1007B00098471034AC42F6D3FFF79CFCF8310008A0
:1007C00018320008202A04DB203A00FA02F1002047
:1007D00070479140C2F1200320FA03F3194390407F
:1007E0007047202A04DB203A21FA02F000217047EA
:1007F00021FA02F3D040C2F1200291400843194689
:100800007047202A06DBCB17203A41FA02F043EA70
:10081000E07306E041FA02F3D040C2F120029140B9
:10082000084319467047000010B540F20F00C2F2AD
:100830000000007840F208040628C2F200042BD819
:10084000DFE800F0042A2A050D17210010BD2078EA
:10085000013040B27D28A8BF7D2020701CE02078A8
:1008600094F90120411E4BB29342C8BF0846207044
:1008700012E0607894F90020411C4BB29342B8BF5B
:100880000846607008E06078013840B210F1370F18
:10089000D8BF6FF0360060702178002000F0E8FAD1
:1008A0006178012000F0E4FA43F2E312C0F600029E
:1008B0000220012101F01EF843F2EA12C0F6000204
:1008C0000320012101F016F894F9002002200821EC
:1008D000032300F091FF022007212B2200F044FFA8
:1008E00094F9012003200721032300F0BFFF022019
:1008F0000D215F2200F038FF02200E214322BDE8C7
:10090000104000F031BF0000FEE70000B0B582B03B
:1009100040F600440420C4F20104ADF8040048206D
:100920008DF8070001A9204600F0E0FA20460421D6
:1009300000F03CFB90B100200546012000F086FA53
:100940002046042100F032FB18B1632D05F10100AF
:10095000F2D3622D02D9002002B0B0BD204604219E
:1009600000F024FB10B1012002B0B0BD002000BF98
:100970000546012000F06AFA2046042100F016FB2B
:1009800018B9632D05F10100F2D30020632D38BFA3
:10099000012002B0B0BD00002DE9F04381B040F667
:1009A0000044C4F2010400264FF004084FF0480947
:1009B0006D46002720462946ADF800808DF803904B
:1009C00000F094FA2046042100F0F0FA0028F9D152
:1009D0002046042100F0EAFA0028F9D03C2000F07B
:1009E00035FA2046042100F0E1FA002818BF012062
:1009F00040EA4606072F07F10107DBD3F0B201B04A
:100A0000BDE8F0832DE9F04383B00646042040F6AC
:100A10000044C1F20300C4F201048846029002A916
:100A200020469946174600F061FA2046042101222B
:100A300000F0C2FA1E2000F009FA2046042100222C
:100A400000F0BAFA142000F0E3F920460421012254
:100A500000F0B2FA1E2000F0F9F9FFF757FFF8B1E5
:100A60004FF0FF340DF10305FFF796FF291901340C
:100A7000042C4870F8D19DF803009DF804109DF8EF
:100A800005209DF806300C189DF8075014441C44AE
:100A9000AC4205D1387089F80010327088F8003007
:100AA00003B0BDE8F083000010B582B0012040F62D
:100AB0000044C1F20100C4F20104019001A92046E2
:100AC00000F014FA20460121012200F075FA2046B8
:100AD0000121002200F070FA4FF4FA7000F0B6F92C
:100AE00020460121012200F067FA40F2262000F0A2
:100AF000ADF9CC2000F08EF8442000F08BF802B065
:100B000010BD00002DE9F04F83B040F60044C4F260
:100B1000010400250DF1040801264FF0480B0DF1EA
:100B2000080A4FF0000900BF0120C1F20100019046
:100B30002046414600F0DAF920460121002200F06B
:100B40003BFA052000F082F920460121012200F045
:100B500033FA20465146ADF808608DF80BB000F02E
:100B6000C5F9052000F072F92046012100F01EFAB7
:100B70000746322000F06AF906FA05F0002F05F169
:100B8000010518BF49EA0009082DCDD15FFA89F0A7
:100B900003B0BDE8F08F000010B582B0012040F630
:100BA0000044C1F20100C4F20104019001A92046F1
:100BB00000F09CF920460121012200F0FDF92046B9
:100BC0000121002200F0F8F94FF4FA7000F03EF92C
:100BD00020460121012200F0EFF940F2262000F02A
:100BE00035F9CC2000F016F8BE2000F013F8FFF71E
:100BF00089FF0446FFF786FF44EA0020FFF75BFB0E
:100C00000023C3F6B0730022FFF7BEFAFFF78BFB99
:100C100002B010BD2DE9F04782B040F6004540F229
:100C2000010A0446C4F2010500264FF00109C1F291
:100C3000010A0DF1040800BF09FA06F000EA0407F2
:100C400028464146CDF804A000F050F9284601217D
:100C5000002200F0B1F90A2000F0F8F8284601213E
:100C60003A4600F0A9F9322000F0F0F828460121B8
:100C7000012200F0A1F90136082EDDD102B0BDE855
:100C8000F087000010B501F0B3FA01F029F908204F
:100C9000012100F09FFF0820012100F09BFF00F0E0
:100CA00003F9FFF701FF00F0D7FC002000F0FEF889
:100CB00040F20804C2F200042070012000F0F6F8AF
:100CC00094F9001060707D2906DC40B210F1370FF6
:100CD00002DB8142C8BF10BD4FF21E60208010BDF4
:100CE000B0B540F20F05C2F20005287840F21004BA
:100CF0000128C2F2000406D100F098FB2078B0FA77
:100D000080F0400920702878022803D100F08EFB83
:100D100002202070207802280FD0012816D0002849
:100D20004CD132A20120012100F0E4FD022000F0AC
:100D300005FCBDE8B04000F095BB24A201200121D4
:100D400000F0D8FDBDE8B040FFF76EBD23A2012042
:100D5000012100F0CFFD43F2E312C0F600020220B1
:100D6000012100F0C7FD43F2EA12C0F600020320A1
:100D7000012100F0BFFD40F20804C2F2000494F922
:100D8000002002200821032300F036FD0220072165
:100D90002B2200F0E9FC94F9012003200721032312
:100DA00000F064FD02200D215F2200F0DDFC022036
:100DB0000E214322BDE8B04000F0D6BC0FA20120B6
:100DC0000121BDE8B04000F095BD00BF54656D70D5
:100DD00020416C65727420536574210054656D70F8
:100DE000205761726E696E672021000054656D7036
:100DF0002048756D692054657374210053656C65D6
:100E00006374204552524F52202100007047000069
:100E100010B5002808BF10BD4EF2100141F6401C6D
:100E2000CEF20001C0F2010C4FF0000E05220423A7
:100E3000C1F804C0C1F808E00A6000BF0C68E40310
:100E4000FCD501380B60F3D110BD00004EF210014B
:100E500000EBC000CEF20001C000486000208860B6
:100E6000052008600868C003FCD5042008607047AE
:100E7000B0B50C46054600F073F9A02000F046F925
:100E800000F0CEF8284600F041F900F0C9F82046FD
:100E900000F03CF900F0C4F800F08AF90520BDE844
:100EA000B040FFF7B5BF000000F08EB810B50446A3
:100EB00000F056F9A02000F029F900F0B1F8204622
:100EC00000F024F900F0ACF800F04AF9A12000F09D
:100ED0001DF900F0A5F800F0CBF80446012000F061
:100EE000F5F800F065F9204610BD00002DE9F04747
:100EF000CA7802F00F0CD30644BF8B784CEA030C7F
:100F000009880B0625D082465AF8144B00F1100EC2
:100F100000254FF001094FF00F08002706E000BF41
:100F20001E600137082F05F1040511D009FA07F6F4
:100F30000E42F6D008FA05F324EA03030CFA05F48E
:100F40001C43282A5346EBD0482AEAD17346E7E7E8
:100F50000460B1F5807F38BFBDE8F087436800F1D9
:100F6000100E00F1140900254FF4807A4FF00F089D
:100F7000002705E034600137082F05F1040512D081
:100F80000AFA07F404EA0106A642F4D108FA05F6C3
:100F9000B3430CFA05F63343282A4E46EAD0482AD2
:100FA000E9D17646E6E74360BDE8F087806808400F
:100FB00018BF0120704700001023002A08BF142327
:100FC000C1507047FEE70000B0B582B00820012193
:100FD00000F000FE402040F60044C1F20340C4F29D
:100FE000010401AD019020462946FFF77FFF8020D4
:100FF000ADF8040020462946FFF778FF204640213F
:101000000122FFF7D9FF0A20FFF720FF20468021A9
:101010000122FFF7D1FF0A20FFF718FF02B0B0BD91
:10102000B0B540F60044C4F20104204680210122FC
:10103000FFF7C2FF0A20FFF709FF204640210122E7
:10104000FFF7BAFF0A20FFF701FF20468021FFF7D4
:10105000ADFF05460A20FFF7F9FE20464021002299
:10106000FFF7AAFF0A20FFF7F1FE2846B0BD0000F7
:101070002DE9F04140F600440026C4F201044FF08F
:1010800080080027204640210122FFF795FF0A2013
:10109000FFF7DCFE20468021FFF788FF05460A2087
:1010A000FFF7D4FE28FA06F0002D18BF07432046AC
:1010B00040210022FFF780FF0A20FFF7C7FE01361C
:1010C000082EDFD1F8B2BDE8F081000010B540F67F
:1010D0000044C4F20104024620468021FFF76CFF61
:1010E0000A20FFF7B3FE204640210122FFF764FFEC
:1010F0000A20FFF7ABFE204640210022FFF75CFFED
:101100000A20BDE81040FFF7A1BE0000F0B581B095
:1011100040F6004504460026C4F20105802700BFC2
:1011200027FA06F000EA040228468021FFF744FF70
:101130000A20FFF78BFE284640210122FFF73CFFE3
:101140000A20FFF783FE284640210022FFF734FFE4
:101150000A20FFF77BFE0136082EE1D101B0F0BD79
:1011600010B540F60044C4F201042046802101225B
:10117000FFF722FF0A20FFF769FE204640210122E7
:10118000FFF71AFF0A20FFF761FE204680210022A8
:10119000FFF712FF0A20FFF759FE204640210022E8
:1011A000FFF70AFF0A20BDE81040FFF74FBE00001E
:1011B00010B540F60044C4F201042046802100220C
:1011C000FFF7FAFE0A20FFF741FE204640210122E8
:1011D000FFF7F2FE0A20FFF739FE204680210122A8
:1011E000FFF7EAFE0A20BDE81040FFF72FBE00001F
:1011F00040F20E01C2F20001087800220A70704726
:1012000080B582B00420012100F0E4FCFF20C4F688
:101210000300019040F60000C4F2010001A9FFF7AD
:1012200065FE02B080BD00002DE9F04140F20D08DE
:10123000C2F2000898F8000040F20C0740F60004E3
:10124000C2F20007C4F201043870204601210125D2
:10125000FFF7ACFEB0FA80F0460920460221FFF706
:10126000A5FE002820464FF0040108BF0226FFF724
:101270009DFE002820464FF0080108BF0326FFF717
:1012800095FE002820464FF0100108BF0426FFF706
:101290008DFE002820464FF0200108BF0526FFF7ED
:1012A00085FE002820464FF0400108BF0626FFF7C4
:1012B0007DFE002820464FF0800108BF0726FFF77B
:1012C00075FE002808BF08263978F0B2CA1EB0FAA9
:1012D00080F0B2FA82F24409520902EA040E0A1FAF
:1012E000881EB2FA82F2B0FA80F0520988F80060E3
:1012F0004009012902EA0408A1F10507A1F1060647
:10130000A1F10702A1F1080100EA0400B7FA87F78A
:10131000B6FA86F6B2FA82F2B1FA81F103464FEAE2
:1013200057174FEA56164FEA52124FEA511108BFAB
:1013300023462740264011EA040C04EA020408BFB1
:10134000002C0BD156B94FB9B8F1000F06D1BEF140
:10135000000F03D1002B08BFBDE8F081002818BFA3
:101360000225BEF1000F18BF0325B8F1000F18BF0A
:101370000425002F18BF0525002E18BF062540F2B2
:101380000E00002C18BF0725C2F20000BCF1000FB0
:1013900018BF08250570BDE8F081000080B5FFF793
:1013A00027FF40F20F01C2F20001087080BD00006B
:1013B000FEE700007047000010B5C17800294EF22A
:1013C0000011CEF200011AD04EF60C52CEF20002FD
:1013D0001268072323EA12220F23C2F1040C23FA16
:1013E00002F24378847890F800E003FA0CF322408C
:1013F0001A43120101EB0E0383F8002300E0803151
:101400000078012300F01F0203FA02F2C0F3421039
:1014100041F8202010BD000040F080604EF60C51D5
:1014200040F0FD70CEF2000108607047B0B50024B6
:1014300044F0B000C0B200F073FA102000F070FA6F
:101440000020002500F06CFA002000F00DFB681C65
:1014500045B2B5F1FF3FF7DCE0B20134072828BF01
:10146000B0BDE5E72DE9F04140F2190740F21A0658
:1014700040F20A0540F20B08C2F20007C2F2000671
:10148000C2F20005C2F20008384631462A464346F9
:10149000FFF7B8FA43F2D6142978C0F600042046C4
:1014A00000F016FF98F80010204600F011FF43F2FC
:1014B000F112C0F600020320012100F01BFA032004
:1014C0000D215F2200F050F903200E21432200F08D
:1014D0004BF93A7803200721032300F08DF9327885
:1014E00003200B21022300F087F903200A212E227A
:1014F00000F03AF90EA20420012100F0FBF90EA23F
:1015000004200D2100F0F6F92A7804200721032396
:1015100000F072F998F8002004200B21022300F05B
:101520006BF904200A212E22BDE8F04100F01CB91D
:1015300048756D693A00000025524800F0B581B049
:1015400004460138C0B203286FD843F2F112C0F646
:1015500000022046012100F0CDF9FFF7A5FAFFF7C0
:101560001BFB40F21406C2F200063060FEF7C8FE14
:10157000024636A00B4600F0ABFE35680021284637
:10158000FEF774FE41F25977CDF2B71738BB284603
:10159000FEF7A2FE024620460721032300F02CF9A5
:1015A000306844F20001C4F21C61FEF7BBFDFEF797
:1015B00093FEA0FB0712510B42F2107201FB1202C4
:1015C00020460B21022300F017F920460A212E2283
:1015D00000F0CAF8204606212D2200F0C5F820466A
:1015E0000A212E2200F0C0F83068FEF775FE024690
:1015F00020460721032300F0FFF8306844F2000181
:10160000C4F21C61FEF78EFDFEF766FEA0FB07121A
:10161000510B42F2107201FB120220460B210223F1
:1016200001B0BDE8F04000F0E7B804A201200121BC
:1016300001B0BDE8F04000F05DB900BF57726F6EB9
:101640006720506F736974696F6E21000D0A7764AB
:101650003A3E25660A000000B0B582B01020012194
:1016600000F0B8FA44F2000041F20004C1F2034075
:10167000C4F2010401AD019020462946FFF736FC73
:101680004FF40050ADF8040020462946FFF72EFC29
:1016900020464FF480410122FFF78EFC20464FF494
:1016A00000510122FFF788FCAE2000F039F9D52067
:1016B00000F036F9802000F033F9A82000F030F96E
:1016C0003F2000F02DF9D32000F02AF9002000245B
:1016D00000F026F9402000F023F9A12000F020F9C5
:1016E000C82000F01DF9DA2000F01AF9122000F0ED
:1016F00017F9812000F014F9CF2000F011F9D9205A
:1017000000F00EF9F12000F00BF9DB2000F008F9F1
:10171000302000F005F9A42000F002F9A62000F026
:10172000FFF88D2000F0FCF8142000F0F9F8AF204D
:1017300000F0F6F844F0B000C0B200F0F1F810206C
:1017400000F0EEF80020002500F0EAF8002000F09C
:101750008BF9681C45B2B5F1FF3FF7DCE0B201340C
:101760000728E7D302B0B0BD2DE9F04381B016469B
:101770007E224FEA400802EB40006FF0070240F083
:10178000B00002EBC104C0B2E5B200F0C9F828090C
:1017900000F11009484600F0C3F804F00805284697
:1017A00000F0BEF842F6D630C0F6000000EB061698
:1017B000A6F20127082400BF17F8010F00F054F922
:1017C000013CF9D1A8F1010040F0B000C0B200F036
:1017D000A7F8484600F0A4F8284600F0A1F8A6F2C1
:1017E000F914082514F8010F00F03EF9013DF9D174
:1017F00001B0BDE8F08300002DE9F047002B08BFE1
:10180000BDE8F0874CF6CD4A1C469046894607460F
:101810005D420026CCF6CC4A18E000BF0120B8FBA0
:10182000F0F0A0FB0A12D20802EB8202A0EB420009
:1018300006EB090140F03000C2B2C9B23846FFF7EA
:1018400093FF0136A64205F101050DD0F0430019C2
:10185000E4D00120294600BF00EB800001314A1C82
:101860004FEA4000F8D1DAE7BDE8F0872DE9F0470C
:101870001C4691468846002A074603D42B22FFF7D0
:1018800073FF04E02D22FFF76FFFC9F10009002C60
:1018900008BFBDE8F0874CF6CD4A66420025CCF67D
:1018A000CC4A17E00120B9FBF0F00135A0FB0A1289
:1018B000D20802EB8202A0EB420005EB080140F0E7
:1018C0003000C2B2C9B23846FFF74EFFA54206F15A
:1018D00001060DD0E8430019E4D00120314600BFD5
:1018E00000EB800001314A1C4FEA4000F8D1DAE7F2
:1018F000BDE8F087F0B581B0144612786AB10D46A4
:10190000064600277819C1B2D2B23046FFF72CFF45
:101910000137F8B2225C002AF4D101B0F0BD00001A
:10192000F0B581B041F20004C4F20104054620463E
:101930004FF400510122FFF73FFB20464FF4804156
:101940000122FFF739FB20464FF400510022002608
:10195000FFF732FB20464FF480410022FFF72CFBBB
:10196000802700BF27FA06F000F0780220464FF4E7
:101970000051FFF721FB20464FF480410122FFF781
:101980001BFB20464FF480410022FFF715FB013678
:10199000082EE7D120464FF480410122FFF70CFBCF
:1019A00020464FF480410022FFF706FB082600BFC7
:1019B00020464FF400510022FFF7FEFA20464FF474
:1019C00080410122FFF7F8FA20464FF480410022BF
:1019D000FFF7F2FA013EEBD120464FF4804101229D
:1019E000FFF7EAFA20464FF4804100220026FFF775
:1019F000E3FA802727FA06F000EA050220464FF4B2
:101A00000051FFF7D9FA20464FF480410122FFF739
:101A1000D3FA20464FF480410022FFF7CDFA013679
:101A2000082EE7D120464FF480410122FFF7C4FA87
:101A300020464FF480410022FFF7BEFA20464FF4C3
:101A400000510022FFF7B8FA20464FF480410122EE
:101A5000FFF7B2FA20464FF40051012201B0BDE871
:101A6000F040FFF7A9BA0000F0B581B041F20004E0
:101A7000C4F20104054620464FF400510122FFF74D
:101A80009BFA20464FF480410122FFF795FA204649
:101A90004FF4005100220026FFF78EFA20464FF443
:101AA00080410022FFF788FA802700BF27FA06F05E
:101AB00000F0780220464FF40051FFF77DFA2046EF
:101AC0004FF480410122FFF777FA20464FF480411E
:101AD0000022FFF771FA0136082EE7D120464FF4B5
:101AE00080410122FFF768FA20464FF4804100222E
:101AF0000026FFF761FA802727FA06F000F040027F
:101B000020464FF40051FFF757FA20464FF480412A
:101B10000122FFF751FA20464FF480410022FFF7DF
:101B20004BFA0136082EE7D120464FF480410122BE
:101B3000FFF742FA20464FF4804100220026FFF7CB
:101B40003BFA802727FA06F000EA050220464FF408
:101B50000051FFF731FA20464FF480410122FFF790
:101B60002BFA20464FF480410022FFF725FA013678
:101B7000082EE7D120464FF480410122FFF71CFADE
:101B800020464FF480410022FFF716FA20464FF41A
:101B900000510022FFF710FA20464FF48041012245
:101BA000FFF70AFA20464FF40051012201B0BDE8C8
:101BB000F040FFF701BA000070470000002941F231
:101BC0001C01C4F202010A680CBF22EA00001043A3
:101BD00008607047002941F21801C4F202010A6846
:101BE0000CBF22EA000010430860704710B541F2B4
:101BF0000404C4F20204226802F00C02082A41F232
:101C00000022C0F27A021CD12368D4F800C0C3F3CA
:101C1000834E5FEACC330EF1020C06D440F600127C
:101C2000C0F23D020CFB02F20BE023689B0302D4DE
:101C30000CFB02F205E040F60012C0F23D020CFB84
:101C400002F20260226842F6C633C2F30312C0F603
:101C500000039A5C0168D14041602268C2F302220D
:101C60009A5C21FA02F282602268C2F3C2229A5C74
:101C700042F6C233D140C1602268C0F60003C2F30D
:101C800081329A5CB1FBF2F1016110BD7047000036
:101C90007047000082B041F20400C4F2020050F824
:101CA000041C002241F0010140F8041C0168CFF639
:101CB000FF021140016050F8041C4FF6FF72CFF68E
:101CC000F662114040F8041C50F8041C21F48021F5
:101CD00040F8041C016821F4FE0101604FF41F016B
:101CE000416000210191009150F8041C41F48031C1
:101CF00040F8041C50F8041C01F4003100910199D3
:101D000001310191009919B90199B1F5A06FF1D193
:101D100050F8041C890354BF00210121009100994F
:101D2000012936D142F20001C4F202010A6842F0F0
:101D300010020A600A6822F003020A600A6842F090
:101D400002020A600168016001680160016841F4F3
:101D500080610160016821F47C110160016841F437
:101D6000E811016050F8041C41F0807140F8041C37
:101D700050F8041C8901FBD5016821F003010160C2
:101D8000016841F002010160016801F00C010829BD
:101D9000FAD14EF60850CEF200004FF0006101601B
:101DA00002B0704780B54FF08040012100F02EF85E
:101DB000002808BF80BD40F21800C2F20000017880
:101DC000CD230131CAB25A43120B02EB8202A1EBBE
:101DD00082010170FFF728FA4FF080400121BDE831
:101DE000804000F005B80000C94301827047000040
:101DF000C9430182704700000288002918BF0121F1
:101E000022F001021144018070470000028A80899B
:101E10000A4000EA010018BF0122002818BF012073
:101E200010407047002A82890CBF22EA0101114349
:101E30008181704740F6FF33B0F800C0C4F2000360
:101E400098420FDCB0F1804F1ED040F20043C4F244
:101E50000003984218D040F60003C4F200039842F1
:101E600012D016E040F60043C4F2000398420BD0B3
:101E700043F20043C4F20103984205D042F6004306
:101E8000C4F20103984204D14B882CF0700243EA5B
:101E9000020C41F2004240F48063C4F2000293421B
:101EA00004D0CA882CF4407342EA030CA0F800C0A6
:101EB0008A888285A0F18042A2F596320B884FEA8B
:101EC000B222072A038507D8012303FA02F212F08F
:101ED000E50F1CBF097A018601218182704700004D
:101EE00080B584B04FF4E060FFF796FA1C20C0F292
:101EF000031000906846FFF75FFA01200121FFF709
:101F00005DFE40F2E73002904720019000208DF8FE
:101F10000C0001A94FF08040FFF78CFF4FF080408C
:101F20000121FFF761FF4FF0804001210122FFF7FF
:101F300079FF4FF080400121FFF75EFFFFF760F966
:101F400004B080BDB0B5FEF7CBFE40F2140040F205
:101F50000805C2F20000C2F20005046895F900000D
:101F6000FEF7A0F901462046FEF78EF908B111A44C
:101F70000BE095F90100FEF795F901462046FEF7C2
:101F800075F9002818BFB0BD0EA4FFF74FFA012065
:101F9000FFF7D4FA0FA202200121FFF7ABFC0320C8
:101FA00001212246FFF7A6FC4FF47A70BDE8B0404D
:101FB000FEF72EBF486967682054656D70202121A7
:101FC000210000004C6F772054656D702020212186
:101FD000210000005761726E696E672E2E2E21213E
:101FE0002100000010B543F60004C4F201042046AD
:101FF00040F2255100F066F8012818BF10BD2046B8
:1020000000F0ECF840F21B01C2F200010A78C0B205
:10201000012A11D0AAB9402834D140F28100C2F27D
:102020000000007870BB0120087040F21C00C2F272
:1020300000000021017025E00D2817D10220087052
:1020400020E00A281ED10020087040F21C01C2F2D4
:102050000001097840F21D02C2F20002505440F221
:102060008100C2F20000012101700BE040F21C016E
:10207000C2F200010A7840F21D03C2F20003985434
:10208000501C0870204640F22551BDE8104000F079
:1020900001B80000090A012202FA01F1C9430180D6
:1020A000704700008289002918BF012122F40052E4
:1020B00042EA4131818170470088084018BF012001
:1020C00070470000C1F34212022A06D0012A14BF51
:1020D00000F1140200F10C0201E000F1100212887C
:1020E000008801F01F03090ADA40C840104000F0E0
:1020F00001007047C1F3421301F01F0C1421022BA1
:1021000008BF1021012B4FF0010308BF0C21002A4A
:1021100003FA0CF243580CBF23EA02021A4342505E
:102120007047000070B586B00446008A0D46C98825
:1021300020F4405008432082A0894EF6F311084055
:10214000A9882A896B89084310431843A081A08A73
:10215000A98920F44070084301AEA0823046FFF701
:1021600045FD43F6000106F10800C4F201018C426E
:1021700008BF06F10C0000681922B4F90C10504396
:102180002A680123B1F1FF3FC8BF022302FA03F11D
:10219000B0FBF1F048F21F51C5F2EB11A0FB012397
:1021A0005A096FF0630302FB0300B4F90C300326F5
:1021B000B3F1FF3FC8BF042600FA06F000F1320079
:1021C000A0FB01014FF00700C8BF0F2000EA51102B
:1021D00040EA0210208106B070BD000080886FF3D5
:1021E0005F2070476FF35F2181807047FEE700003A
:1021F00070B586B004200121FFF7ECFC4FF480405D
:102200000121FFF7E7FC43F6000440F20020C4F28E
:102210000104C1F60300A4F5405504AE049028461D
:102220003146FEF763FE40F20040C0F203400490E6
:1022300028463146FEF75AFE4FF416500090002013
:102240004FF44021ADF80C00CDE90101694620466C
:10225000FFF768FF204640F225510122FFF74AFFB1
:102260004FF4A060FFF7D8F82520C0F202100590C7
:1022700005A8FFF7A1F820460121FFF713FF06B0DC
:1022800070BD0000B0B543F6000504460A28C4F24C
:10229000010509D128460D21FFF7A4FF284680211A
:1022A000FFF70AFF0028F9D0E1B22846FFF79AFFAE
:1022B00028468021FFF700FF0028F9D02046B0BD56
:1022C000FEF7E0FCFFF76AF8FFF73CFEFAE70000D4
:1022D0000FB4054B10B503A9044A029800F0DAF8D0
:1022E00010BC5DF814FB00008522000800000020EF
:1022F00002E008C8121F08C1002AFAD170477047CF
:10230000002001E001C1121F002AFBD1704700002C
:102310002DE9FF5F82B00021DDE90430020DDDF818
:1023200040B0034318D044F61050A2F2FF324243AB
:102330001514119801281FD0A5EB0B00401C5FEA73
:10234000000A4FF000064E4FDFF83891B046504675
:1023500015D5CAF1000413E0119801244AA30128FD
:1023600001D16FEA0B010298119AC0E90031C0E96E
:10237000024206B0BDE8F09FCBF10000DFE7044663
:102380000021404A491842EB0450CDE9001012E008
:10239000E00707D032463B4640464946FDF7F4FE8B
:1023A0008046894632463B4610461946FDF7ECFE0C
:1023B00006460F466410002CEAD1DDE90401DDE990
:1023C0000023BAF1000F06DAFDF7DEFE42464B4667
:1023D000FDF7DAFE05E0FEF744F942464B46FEF70C
:1023E00040F904460E460022284BFEF7C1F903D8F7
:1023F0004FF0FF30014607E00022254B20463146D2
:10240000FEF788F8FEF79CF9102409E0002C0ADB9F
:102410000A220023FDF7B9FF039B30321A55641ED0
:1024200050EA0102F2D1641C039AC4F1110314446E
:10243000119A012A03D0012208430DD10AE0084372
:1024400004D000204FF0110B119072E7A3EB0B05A5
:102450006D1E0DE05B4504DD4FF0000205F1010546
:1024600004E003DA4FF00002A5F10105002AECD0E8
:1024700002981199C0E90231C0E9004579E70000EE
:10248000000014400000F03F300000000000F04366
:102490000000E03F2DE9FF4F95B09B468946064678
:1024A00000250FE2252877D100242746F84A01218C
:1024B000059400E0044316F8013F203B01FA03F0C5
:1024C0001042F7D130782A2811D06FF02F033078DE
:1024D000A0F13002092A16D8059A44F0020402EB52
:1024E000820203EB42021044761C0590EFE759F894
:1024F000042B0592002A03DA504244F4005405905C
:1025000044F00204761C30782E2816D116F8010FFC
:1025100044F004042A280DD06FF02F023078A0F187
:102520003003092B09D807EB870302EB4303C718D5
:10253000761CF3E759F8047B761C30786C280FD0B2
:1025400006DC4C2817D068280DD06A2814D104E086
:10255000742810D07A280FD10DE044F400140AE05A
:1025600044F4801401E044F440147278824202D1B1
:1025700004F58014761C761C307866280BD013DCAA
:10258000582877D009DC002875D04528F6D0462891
:10259000F4D047281AD19DE118E0632835D064288B
:1025A00079D0652812D195E1702873D008DC6728AE
:1025B000F1D069286FD06E280DD06F2806D1B5E014
:1025C00073282CD0752875D0782874D05A4617995E
:1025D00090476D1C75E1C4F30250022809D003280E
:1025E0000DD0D9F8001004280DD00D6009F10409B0
:1025F00067E1D9F80010EA17C1E90052F6E7D9F807
:1026000000100D80F2E70D70F0E719F8041B8DF84B
:10261000001000208DF80100EA46012003E059F87F
:1026200004AB4FF0FF3061074FF0000102D40DE022
:1026300008F101018846B9420FDA8045F8DB1AF843
:1026400008100029F4D108E008F101018846814210
:10265000FADB1AF808100029F6D105985B46A0EBC2
:10266000080721463846179A00F094FA284400EBF0
:10267000080507E04DE029E10DE01AF8010B5A4684
:1026800017999047B8F10108F7D25B4621463846C2
:10269000179A13E142E00A220092C4F302524FF06B
:1026A000000A022A08D059F804CB032A4FEAEC7139
:1026B0000AD00DE029E02AE009F1070121F0070224
:1026C000F2E802C1914609E00FFA8CFC4FEAEC7186
:1026D000042A03D14FFA8CFC4FEAEC71002907DA87
:1026E0000A460021DCF1000C61EB02012D2202E020
:1026F000220504D52B228DF80420012203E0E207F5
:1027000001D02022F7E7904659E00A2102E010228A
:102710000DE010214FF0000A00910BE010224FF065
:10272000000A44F004040827009203E008224FF056
:10273000000A0092C4F30252022A05D059F804CBD1
:102740000021032A08D009E009F1070121F007025E
:10275000F2E802C1914605E01FFA8CFC042A01D17F
:102760000CF0FF0C4FF00008220728D5702806D087
:10277000009B83F0100353EA0A0305D00EE04022C9
:102780008DF80420012208E05CEA010206D0302224
:102790008DF804208DF8050002229046009B83F0FE
:1027A000080353EA0A030AD15CEA010201D1620775
:1027B00005D530228DF804204FF001087F1E5828DF
:1027C00004D034A003900EA802900DE036A0F9E7E3
:1027D00053466046009AFDF7D8FD84460398825C14
:1027E0000298401E029002705CEA0100F0D102984B
:1027F00006A9081A00F1200A600702D524F48034E3
:1028000000E00127574502DDA7EB0A0000E00020A9
:1028100000EB0A01009005984144401A0590E0033E
:1028200006D45B462146179A059800F0B3F9054493
:10283000002706E001A85A46C05D179990476D1C15
:102840007F1C4745F6DBE0030CD55B462146179A13
:10285000059800F09FF9054404E030205A46179986
:1028600090476D1C0099481E00900029F5DC08E097
:10287000029802995A460078491C0291179990478C
:102880006D1CBAF10001AAF1010AF1DC65E100005A
:102890000928010030313233343536373839616236
:1028A00063646566000000003031323334353637FA
:1028B00038394142434445460000000000F058F9D1
:1028C0000544761C307800287FF4ECAD19B028461A
:1028D000BDE8F08F620700D4062709F1070222F055
:1028E000070CFCE80223E14603F000485FEA080C0D
:1028F00002D00FF2702C0DE05FEA045C02D50FF2FB
:10290000682C07E05FEAC47C02D00FF2602C01E083
:10291000AFF2700C4FF0FF3823F00043CDF850C0F9
:1029200065280CD006DC452809D046281DD047284C
:102930003DD13DE0662818D067287ED138E00021DF
:10294000112F01DB112000E0781CCDE9000106A960
:102950000EA8FFF7DDFCDDE90F010E9A03910021BF
:10296000009207F1010A04914DE04FF000400097FA
:10297000CDE9011006A90EA8FFF7CAFCDDE90F0298
:1029800003920E9B11990022DDF80CA00093049293
:1029900011B9791C00EB010AB7EB0A0004D4C0F1AD
:1029A000FF3007F1010A0490AAEB0700019044E010
:1029B000012F00DA01270021112F01DD112000E095
:1029C0003846CDE9000106A90EA8FFF7A1FCDDE914
:1029D0000F010E9A0391002104910092BA4621073B
:1029E0000CD40399514500DA8A46BAF1010F05DD8E
:1029F000009AAAF10101515C302908D0B84202DAEC
:102A000010F1040F06DA0121CDE9011015E0AAF159
:102A10000101E9E7002805DC049901440491AAEBCF
:102A2000000102E0411C514500DD8A460499401A2C
:102A3000401C01904FF000400290200704D4019800
:102A4000504501DBCDF8048000208DF84F0002983E
:102A50000DF14F07B0F1004F25D02B200E900298BA
:102A60004FF0020800280CDA404202902D200E9010
:102A700007E00A210298FDF772FC3031029007F856
:102A8000011DB8F10001A8F10108F2DC029800284C
:102A9000EFD1791E0E980870307800F0200040F0D9
:102AA000450007F8020D12A8C01B00F10708149892
:102AB000007800B1012000EB0A01019801EBE07100
:102AC00005984144401A401E0590E00306D45B4639
:102AD0002146179A059800F05DF80544149800788F
:102AE00018B15A46179990476D1CE00324D55B46F0
:102AF0002146179A059800F04DF805441CE004980B
:102B0000002807DBDDE90301884203DD0098405C13
:102B1000179901E0179930205A469047049805F11B
:102B20000105401C04900198401E019004D12E2004
:102B30005A46179990476D1CBAF10001AAF1010A93
:102B4000DDDC05E017F8010B5A46179990476D1C1C
:102B5000B8F10001A8F10108F4DC5B462146179AA0
:102B60000598ABE62D0000002B00000020000000BF
:102B70002DE9F041044600251E461746880404D47A
:102B800005E039462020B0476D1C641EF9D5284663
:102B9000BDE8F0812DE9F041044600251E4690462F
:102BA000C80301D5302700E02027880404D505E0BC
:102BB00041463846B0476D1C641EF9D52846BDE82D
:102BC000F081020406080000000001020304010273
:102BD00003040607080900000000000000000000D0
:102BE000000000000000000000F8000000000000ED
:102BF00000333000000000100C06100C060000002E
:102C000000000000000040C07840C0784000043F51
:102C100004043F040400007088FC08300000001821
:102C200020FF211E0000F008F000E0180000002145
:102C30001C031E211E0000F00888700000001E21E9
:102C400023241927211010160E0000000000000098
:102C5000000000000000000000E018040200000076
:102C600000071820400000020418E00000000040A7
:102C7000201807000000404080F080404000020221
:102C8000010F01020200000000F00000000001013D
:102C9000011F01010100000000000000000080B0E1
:102CA00070000000000000000000000000000001B3
:102CB00001010101010100000000000000000030DE
:102CC0003000000000000000000080601804006078
:102CD00018060100000000E010080810E000000FD6
:102CE000102020100F00001010F80000000000203D
:102CF000203F202000000070080808887000003085
:102D0000282422213000003008888848300000182C
:102D1000202020110E000000C02010F80000000745
:102D20000424243F240000F80888880808000019BB
:102D3000212020110E0000E0108888180000000FEC
:102D4000112020110E0000380808C83808000000C3
:102D5000003F000000000070880808887000001C18
:102D6000222121221C0000E010080810E0000000D1
:102D7000312222110F00000000C0C000000000003E
:102D80000030300000000000008000000000000063
:102D9000806000000000000080402010080000015A
:102DA000020408102000404040404040400004041D
:102DB00004040404040000081020408000000020E7
:102DC000100804020100007048080808F000000024
:102DD000003036010000C030C828E810E0000718B5
:102DE000272423140B000000C038E0000000203C22
:102DF00023020227382008F8888888700000203FC6
:102E0000202020110E00C0300808080838000718DC
:102E100020202010080008F808080810E000203FD3
:102E2000202020100F0008F88888E8081000203FB4
:102E300020202320180008F88888E8081000203F88
:102E4000200003000000C030080808380000071800
:102E50002020221E020008F808000008F808203F81
:102E6000210101213F20000808F808080000002087
:102E7000203F2020000000000808F8080800C0805B
:102E800080807F00000008F888C028180800203FD4
:102E900020012638200008F8080000000000203F2C
:102EA00020202020300008F8F800F8F80800203F23
:102EB000003F003F200008F830C00008F808203F1D
:102EC000200007183F00E01008080810E0000F106D
:102ED000202020100F0008F808080808F000203F04
:102EE000210101010000E01008080810E0000F189F
:102EF000242438504F0008F8888888887000203FC4
:102F00002000030C302000708808080838000038C2
:102F1000202121221C00180808F8080818000000C9
:102F2000203F2000000008F808000008F808001FF3
:102F3000202020201F000878880000C838080000E2
:102F400007380E010000F80800F80008F800033CFC
:102F50000700073C030008186880806818082030C4
:102F60002C03032C30200838C800C83808000000A3
:102F7000203F2000000010080808C838080020384A
:102F8000262120201800000000FE0202020000009E
:102F9000007F40404000000C30C0000000000000F6
:102FA00000010638C00000020202FE0000000040DE
:102FB00040407F0000000000040202020400000004
:102FC0000000000000000000000000000000808001
:102FD00080808080808000020204000000000000E9
:102FE00000000000000000008080808000000019C8
:102FF000242222223F2008F8008080000000003FA9
:10300000112020110E000000008080800000000EC2
:10301000112020201100000000808088F800000EA0
:10302000112020103F200000808080800000001FC1
:10303000222222221300008080F088888818002035
:10304000203F202000000000808080808000006BF6
:1030500094949493600008F8008080800000203FE2
:10306000210000203F2000809898000000000020F0
:10307000203F20200000000000809898000000C041
:103080008080807F000008F8000080808000203F62
:1030900024022D302000000808F800000000002065
:1030A000203F202000008080808080808000203FA2
:1030B00020003F20003F8080008080800000203F73
:1030C000210000203F200000808080800000001F41
:1030D000202020201F00808000808000000080FFD2
:1030E000A12020110E000000008080808000000ED2
:1030F000112020A0FF808080800080808000202020
:103100003F2120000100000080808080800000338B
:10311000242424241900008080E080800000000026
:10312000001F202000008080000000808000001F21
:10313000202020103F2080808000008080800001BF
:103140000E300806010080800080008080800F30F3
:103150000C030C300F000080800080808000002075
:10316000312E0E31200080808000008080808081A0
:103170008E70180601000080808080808000002111
:10318000302C2221300000000000807C0202000070
:103190000000003F404000000000FF000000000071
:1031A0000000FF0000000002027C800000000040E0
:1031B000403F00000000000601010202040400007C
:1031C00000000000000000000000060909060000E1
:1031D00000000000000048756D3A25642025254850
:1031E0000D0A0054656D70483A0054656D704C3A94
:1031F0000054656D703A000018320008000000208D
:1032000008000000F022000820320008080000201A
:1032100080040000002300080000000000000000FF
:04000005080000ED02
:00000001FF
