:020000040800F2
:1000000080040020010100083D0D0008350D0008A6
:10001000390D0008FD0700086D18000800000000F9
:100020000000000000000000000000004D15000866
:10003000B10B0008000000009114000851150008E1
:100040001B0100081B0100081B0100081B01000820
:100050001B0100081B0100081B0100081B01000810
:100060001B0100081B0100081B0100081B01000800
:100070001B0100081B0100081B0100081B010008F0
:100080001B0100081B0100081B0100081B010008E0
:100090001B0100081B0100081B0100081B010008D0
:1000A0001B0100081B0100081B0100081B010008C0
:1000B0001B0100081B010008000000001B010008D4
:1000C0001B01000800000000000000001B010008E8
:1000D00000000000651600081B0100080000000079
:1000E0001B0100081B0100081B010008DFF80CD0F1
:1000F00000F040FB00480047411900088004002040
:100100000648804706480047FEE7FEE7FEE7FEE7B1
:10011000FEE7FEE7FEE7FEE7FEE7FEE7551500080F
:10012000ED00000880EA010210B502F00043400033
:1001300022D04A001FD0010E01EB1261C0F356001D
:10014000C2F3560240F4000042F40002A0FB022079
:1001500000047F39140400D0401C50EA124001D43E
:100160004000491EC2B20C0604EBD010401C4008EF
:10017000802A02D003E0002010BD20F001000029F9
:1001800000DA0020184310BD2DE9FE4F81EA030478
:1001900004F0004421F0004100944FF0000B23F0E4
:1001A000004350EA01045ED052EA03045BD0C3F37B
:1001B0000A54C1F30A552C44A4F2F3340194A0FB71
:1001C0000254C1F3130141F48011C3F3130343F448
:1001D000801301FB024400FB034E840A970A44EAA1
:1001E000815447EA8357A4FB076802958D0A05FBF3
:1001F00007854FEA932C04FB0C542705029D4FEA18
:10020000065847EA1637B5EB08056EEB070C870E64
:10021000920E47EA811742EA8312A7FB0201B6EB6E
:100220000B0164EB00042B0D43EA0C335E1844EB26
:100230001C50DA465146E7FB0201C5F313044FEAAE
:100240000B3343EA14534FEA0432019C43EA06039A
:10025000A4F10C040294009CCDE900B400F0F5F880
:1002600003B0BDE8F08F00200146F9E7002801DB6C
:10027000C0F10040002901DBC1F10041814201D3FE
:1002800001207047002070470EB5C10F80EAE07072
:100290000844CA07002140F233438DE80E000A46A5
:1002A0000B4600F0D2F803B000BD20F00040C10DB5
:1002B000C0F3160040F400007F2901DA00207047E7
:1002C000962903DCC1F19601C840704796398840F1
:1002D000704700F0004230F000400AD0C10D01F537
:1002E0006071C0F3160042EA0151C2084007114391
:1002F000704700200146704701F0004330B421F000
:10030000004150EA010206D00A0DA2F56072C1F365
:100310001301002A02DC30BC00207047440F44EA7D
:10032000C104C100E01830BC00EBC25000F047B877
:1003300030B50B46014600202022012409E021FAB5
:1003400002F59D4205D303FA02F5491B04FA02F5B2
:100350002844151EA2F10102F1DC30BD2DE9F05F49
:100360000546002092469B46884606468146402424
:100370001BE0284641464746224600F01CFA5346F9
:100380005A46C01A914110D311461846224600F031
:1003900003FA2D1A67EB01084F462246012000217F
:1003A00000F0FAF917EB00094E41201EA4F10104F8
:1003B000DFDC484631462A464346BDE8F09F002927
:1003C000A8BF7047401C490008BF20F001007047DB
:1003D00010B4B0FA80FC00FA0CF050EA010404BF3B
:1003E00010BC704749B1CCF1200421FA04F411FA91
:1003F0000CF118BF012121430843A3EB0C01CB1DD5
:100400004FEA00614FEA102042BF002010BC704745
:1004100000EBC35010440029A4BF10BC7047401C1F
:10042000490008BF20F0010010BC704710B5141E31
:1004300073F1000408DA401C41F1000192185B419D
:100440001A4301D120F0010010BD2DE9F04D924674
:100450009B4611B1B1FA81F202E0B0FA80F220328B
:10046000904600F099F904460F4640EA0A0041EA36
:100470000B0153465A46084313D0114653EA010074
:1004800019D0C8F14002504600F095F905460E46D5
:1004900050465946424600F07FF9084305D00120F6
:1004A00004E020463946BDE8F08D0020054346EAC9
:1004B000E0762C4337430A986305E40AA0EB080072
:1004C0000022FD0A44EA47540A3002D500200146C2
:1004D000E9E7010510196941DDE90845001969419D
:1004E000BDE8F04DA2E72DE9FE4F804681EA03000A
:1004F000C00F0C46009021F0004123F00045B8EBFE
:100500000200A94105D24046214690461C460B46B2
:10051000024623F00040104347D0270DC7F30A00DE
:10052000C3F30A510290401A019040286BDAC3F3DA
:10053000130040F4801B0098924620B10023D2EBB8
:10054000030A63EB0B0B01985946C0F14002504679
:1005500000F022F906460D4650465946019A00F031
:100560003AF910EB08006141002487EA115284EA4D
:10057000E7731A4340D0009A62B3019A012A4FEA06
:10058000075215DC001B61EB02014FF0004202EA4A
:100590000752CDE90042001C41F5801132462B463E
:1005A000FFF753FF03B0BDE8F08F40462146F9E75F
:1005B000001B61EB0201001C41F5801300185B4138
:1005C0002018A2F5001747EB030140EAD570B619D1
:1005D0006D4111E06D084FEA360645EAC0754FEAF5
:1005E0000752001B61EB0201001C41F58011490814
:1005F0004FEA30000019514132462B4603B0BDE8A6
:10060000F04FFFF713BF0098012240000023D0EB0A
:10061000020263EBE073009821464FEAE074B8EB06
:10062000000061EB0401E9E783F000435BE781F040
:10063000004158E72DE9F04D81EA030404F0004B36
:1006400021F0004514464FF0000A23F0004150EA23
:10065000050220D054EA01021DD0C5F30A57024614
:10066000C5F31303C1F31300C1F30A5640F4801518
:1006700043F48013A7EB0608101BD64608F2FD389A
:1006800073EB050002D308F1010801E092185B4109
:10069000B8F1000F03DA00200146BDE8F08D00201C
:1006A0004FF48011064684460EE0171B73EB0507D6
:1006B00005D3121B63EB050306434CEA010C490802
:1006C0004FEA300092185B4150EA0107EDD152EA3F
:1006D000030012D082EA040083EA0501084305D032
:1006E000101BAB4106D20122002306E000224FF08E
:1006F000004302E06FF0010253101AEB06004CEBCE
:10070000085110EB0A0041EB0B01BDE8F04DFFF77B
:100710008DBEC1F30A52C1F3130140F2FF3341F41D
:1007200080119A4202DA00200146704740F23343BA
:100730009A42A2F2334202DC524200F03CB800F08E
:100740002BB8000030B5041E71F1000404DB4FF03B
:100750000044404264EB0101141E73F1000405DB08
:100760001C464FF00043524263EB0403994208BF1A
:10077000904230BD064C074D06E0E06840F00103B2
:1007800094E8070098471034AC42F6D3FFF7B2FC68
:100790006C2800088C280008202A04DB203A00FA84
:1007A00002F1002070479140C2F1200320FA03F3C8
:1007B000194390407047202A04DB203A21FA02F0C6
:1007C0000021704721FA02F3D040C2F1200291408B
:1007D000084319467047202A06DBCB17203A41FA16
:1007E00002F043EAE07306E041FA02F3D040C2F1BE
:1007F000200291400843194670470000FEE70000C0
:10080000B0B582B040F600040420C4F20104ADF893
:10081000040048208DF8070001A9204600F01EFAC8
:100820002046042100F07AFA90B10020054601200C
:1008300000F002FA2046042100F070FA18B1632D8E
:1008400005F10100F2D3622D02D9002002B0B0BD43
:100850002046042100F062FA10B1012002B0B0BDC0
:10086000002000BF0546012000F0E6F920460421E3
:1008700000F054FA18B9632D05F10100F2D30020FD
:10088000632D38BF012002B0B0BD00002DE9F04358
:1008900081B040F60004C4F2010400264FF00408C1
:1008A0004FF048096D46002720462946ADF80080E4
:1008B0008DF8039000F0D2F92046042100F02EFAC2
:1008C0000028F9D12046042100F028FA0028F9D0A8
:1008D0003C2000F0B1F92046042100F01FFA002866
:1008E00018BF012040EA4606072F07F10107DBD3B6
:1008F000F0B201B0BDE8F0832DE9F04383B00646C5
:10090000042040F60004C1F20300C4F2010488464A
:10091000029002A920469946174600F09FF920460A
:100920000421012200F000FA1E2000F085F9204683
:100930000421002200F0F8F9142000F03BF92046D1
:100940000421012200F0F0F91E2000F075F9FFF7F4
:1009500057FFF8B14FF0FF340DF10305FFF796FF95
:1009600029190134042C4870F8D19DF803009DF832
:1009700004109DF805209DF806300C189DF80750CE
:1009800014441C44AC4205D1387089F80010327010
:1009900088F8003003B0BDE8F083000010B582B0E5
:1009A000022040F60004C1F20100C4F201040190EB
:1009B00001A9204600F052F920460221012200F050
:1009C000B3F920460221002200F0AEF94FF4FA708C
:1009D00000F032F920460221012200F0A5F940F290
:1009E000262000F029F9CC2000F08EF8442000F0F9
:1009F0008BF802B010BD00002DE9F04F83B040F637
:100A00000004C4F2010400254FF0020A4FF0010B6C
:100A10004FF0480902AE4FF0000800BF0220C1F2BB
:100A200001000190204601A900F018F9204602219A
:100A3000002200F079F9052000F0FEF8204602219E
:100A4000012200F071F920463146ADF808A08DF87A
:100A50000B9000F003F9052000F0EEF8204602218B
:100A600000F05CF90746322000F0E6F80BFA05F0DA
:100A7000002F05F1010518BF48EA0008082DCDD167
:100A80005FFA88F003B0BDE8F08F000010B582B0C7
:100A9000022040F60004C1F20100C4F201040190FA
:100AA00001A9204600F0DAF820460221012200F0D8
:100AB0003BF920460221002200F036F94FF4FA708B
:100AC00000F0BAF820460221012200F02DF940F290
:100AD000262000F0B1F8CC2000F016F8BE2000F07F
:100AE00013F8FFF789FF0446FFF786FF44EA00206A
:100AF000FFF7CAFB0023C3F6B0730022FFF744FBE5
:100B0000FFF7FAFB02B010BD2DE9F04782B040F6C6
:100B1000000540F2020A0446C4F2010500264FF027
:100B20000109C1F2010A0DF1040800BF09FA06F03B
:100B300000EA040728464146CDF804A000F08EF8EC
:100B400028460221002200F0EFF80A2000F074F895
:100B5000284602213A4600F0E7F8322000F06CF80F
:100B600028460221012200F0DFF80136082EDDD1EF
:100B700002B0BDE8F087000080B500F079FE0420E7
:100B8000012100F087FC0420012100F083FC00F02B
:100B900041FA03A201200121BDE8804000F040BBE2
:100BA00054656D702048756D69205465737421001B
:100BB0007047000010B5002808BF10BD4EF21001AC
:100BC00041F6401CCEF20001C0F2010C4FF0000EC5
:100BD00005220423C1F804C0C1F808E00A6000BF80
:100BE0000C68E403FCD501380B60F3D110BD0000A4
:100BF000B0B500B34EF2100141F6401CCEF2000138
:100C0000C0F2010C4FF0000E0522042303E000BFE8
:100C1000013808BFB0BD4FF47A7400BFC1F804C0FA
:100C2000C1F808E00A6000BF0D68ED03FCD5013C87
:100C30000B60F3D1ECE7B0BD4EF2100100EBC00049
:100C4000CEF20001C00048600020886005200860E6
:100C50000868C003FCD50420086070472DE9F04700
:100C6000CA7802F00F0CD30644BF8B784CEA030C11
:100C700009880B0625D082465AF8144B00F1100E55
:100C800000254FF001094FF00F08002706E000BFD4
:100C90001E600137082F05F1040511D009FA07F687
:100CA0000E42F6D008FA05F324EA03030CFA05F421
:100CB0001C43282A5346EBD0482AEAD17346E7E77B
:100CC0000460B1F5807F38BFBDE8F087436800F16C
:100CD000100E00F1140900254FF4807A4FF00F0830
:100CE000002705E034600137082F05F1040512D014
:100CF0000AFA07F404EA0106A642F4D108FA05F656
:100D0000B3430CFA05F63343282A4E46EAD0482A64
:100D1000E9D17646E6E74360BDE8F08780680840A1
:100D200018BF0120704700001023002A08BF1423B9
:100D3000C1507047FEE70000FEE70000704700006A
:100D400010B5C17800294EF20011CEF200011AD080
:100D50004EF60C52CEF200021268072323EA12224A
:100D60000F23C2F1040C23FA02F24378847890F83E
:100D700000E003FA0CF322401A43120101EB0E03C8
:100D800083F8002300E080310078012300F01F0287
:100D900003FA02F2C0F3421041F8202010BD000017
:100DA00040F080604EF60C5140F0FD70CEF2000134
:100DB000086070472DE9F04140F2100740F211063B
:100DC00040F2080540F20908C2F20007C2F200062C
:100DD000C2F20005C2F20008384631462A464346B0
:100DE000FFF78AFD42F657043978C0F60004204622
:100DF00000F0B0FD3178204600F0ACFD42F64A0428
:100E00002978C0F60004204600F0A4FD98F80010F0
:100E1000204600F09FFD42F66302C0F60002032068
:100E2000012100F0FDF903200D21E62200F076F902
:100E30003A7803200621022300F0B8F93078CD2457
:100E40006043302707EBD0220320092100F066F928
:100E5000307800FB04F1C90A01EB8101A0EB4100ED
:100E600040F03000C2B203200A2100F057F90320FD
:100E700008213A2200F052F9032008212E2200F026
:100E80004DF923A20420012100F0CAF922A2042076
:100E90000D2100F0C5F928780621604307EBD02228
:100EA000042000F03BF9287800FB04F1C90A01EBAB
:100EB0008101A0EB410040F03000C2B204200721C4
:100EC00000F02CF998F800000921604307EBD022CC
:100ED000042000F023F998F8000000FB04F1C90A8F
:100EE00001EB8101A0EB410040F03000C2B20420D0
:100EF0000A2100F013F9042008213A2200F00EF92B
:100F0000042008212E22BDE8F04100F007B900BFFF
:100F100048756D693A0000002552480070B542F6E8
:100F20006302C0F600020220012100F079F90220DC
:100F30000D21E62200F0F2F8FFF730FDFFF7A6FDE5
:100F400040F20C05C2F200052860FFF7C2F9024624
:100F50002DA00B4600F0FEFC2C6800212046FFF778
:100F600085F941F25976CDF2B71638BB2046FFF726
:100F70009CF9024602200721032300F017F9286894
:100F800044F20001C4F21C61FFF7CCF8FFF78DF9C1
:100F9000A0FB0612510B42F2107201FB120202205A
:100FA0000B21022300F002F902200A212E2200F078
:100FB000B5F8022006212D2200F0B0F802200A2107
:100FC0002E2200F0ABF82868FFF76FF902460220E6
:100FD0000721032300F0EAF8286844F20001C4F274
:100FE0001C61FFF79FF8FFF760F9A0FB0612510B99
:100FF00042F2107201FB120202200B210223BDE813
:10100000704000F0D3B800BF0D0A77643A3E256601
:101010000A000000B0B582B00820012100F03AFAC1
:10102000012040F60044C1F20340C4F2010401ADC6
:10103000019020462946FFF711FE0220ADF804007A
:1010400020462946FFF70AFE204601210122FFF72C
:101050006BFE204602210122FFF766FEAE2000F063
:10106000F5F8D52000F0F2F8802000F0EFF8A82085
:1010700000F0ECF83F2000F0E9F8D32000F0E6F8AB
:101080000020002400F0E2F8402000F0DFF8A1206A
:1010900000F0DCF8C82000F0D9F8DA2000F0D6F82B
:1010A000122000F0D3F8812000F0D0F8CF2000F01B
:1010B000CDF8D92000F0CAF8F12000F0C7F8DB2005
:1010C00000F0C4F8302000F0C1F8A42000F0BEF811
:1010D000A62000F0BBF88D2000F0B8F8142000F036
:1010E000B5F8AF2000F0B2F844F0B000C0B200F0A4
:1010F000ADF8102000F0AAF80020002500F0A6F8B6
:10110000002000F031F9681C45B2B5F1FF3FF7DC73
:10111000E0B201340728E7D302B0B0BD2DE9F043B7
:1011200081B016467E224FEA400802EB40006FF085
:10113000070240F0B00002EBC104C0B2E5B200F01B
:1011400085F8280900F11009484600F07FF804F0FE
:101150000805284600F07AF842F25A20C0F600004E
:1011600000EB0616A6F20127082400BF17F8010FAE
:1011700000F0FAF8013CF9D1A8F1010040F0B0000C
:10118000C0B200F063F8484600F060F8284600F06E
:101190005DF8A6F2F914082514F8010F00F0E4F840
:1011A000013DF9D101B0BDE8F08300002DE9F04721
:1011B000002B08BFBDE8F0874CF6CD4A1C46904690
:1011C000894607465D420026CCF6CC4A18E000BFAF
:1011D0000120B8FBF0F0A0FB0A12D20802EB820259
:1011E000A0EB420006EB090140F03000C2B2C9B2E8
:1011F0003846FFF793FF0136A64205F101050DD0F1
:10120000F0430019E4D00120294600BF00EB800024
:1012100001314A1C4FEA4000F8D1DAE7BDE8F08717
:10122000F0B581B0144612786AB10D460646002723
:101230007819C1B2D2B23046FFF770FF0137F8B269
:10124000225C002AF4D101B0F0BD0000F0B581B0FD
:1012500040F60044C4F20104054620460221012262
:10126000FFF762FD204601210122FFF75DFD2046C8
:10127000022100220026FFF757FD2046012100220F
:10128000FFF752FD802700BF27FA06F000F0780232
:1012900020460221FFF748FD204601210122FFF7E9
:1012A00043FD204601210022FFF73EFD0136082EB6
:1012B000EAD1204601210122FFF736FD2046012117
:1012C0000022FFF731FD0826204602210022FFF709
:1012D0002BFD204601210122FFF726FD204601219A
:1012E0000022FFF721FD013EEED12046012101221F
:1012F000FFF71AFD2046012100220026FFF714FD0A
:10130000802700BF27FA06F000EA050220460221E6
:10131000FFF70AFD204601210122FFF705FD2046C7
:1013200001210022FFF700FD0136082EEAD12046F8
:1013300001210122FFF7F8FC204601210022FFF7DE
:10134000F3FC204602210022FFF7EEFC204601219B
:101350000122FFF7E9FC20460221012201B0BDE88D
:10136000F040FFF7E1BC0000F0B581B040F600446A
:10137000C4F201040546204602210122FFF7D4FCF5
:10138000204601210122FFF7CFFC20460221002246
:101390000026FFF7C9FC204601210022FFF7C4FC0C
:1013A000802700BF27FA06F000F0780220460221CD
:1013B000FFF7BAFC204601210122FFF7B5FC2046C9
:1013C00001210022FFF7B0FC0136082EEAD12046A9
:1013D00001210122FFF7A8FC20460121002200265E
:1013E000FFF7A2FC802700BF27FA06F000F04002BA
:1013F00020460221FFF798FC204601210122FFF739
:1014000093FC204601210022FFF78EFC0136082EB6
:10141000EAD1204601210122FFF786FC2046012166
:1014200000220026FFF780FC802700BF27FA06F085
:1014300000EA050220460221FFF776FC2046012142
:101440000122FFF771FC204601210022FFF76CFC0E
:101450000136082EEAD1204601210122FFF764FC63
:10146000204601210022FFF75FFC204602210022D6
:10147000FFF75AFC204601210122FFF755FC2046C8
:101480000221012201B0BDE8F040FFF74DBC000091
:1014900070470000002941F21801C4F202010A68F5
:1014A0000CBF22EA000010430860704710B541F2FB
:1014B0000404C4F20204226802F00C02082A41F279
:1014C0000022C0F27A021CD12368D4F800C0C3F312
:1014D000834E5FEACC330EF1020C06D440F60012C4
:1014E000C0F23D020CFB02F20BE023689B0302D426
:1014F0000CFB02F205E040F60012C0F23D020CFBCC
:1015000002F20260226842F24A23C2F30312C0F6DA
:1015100000039A5C0168D14041602268C2F3022254
:101520009A5C21FA02F282602268C2F3C2229A5CBB
:1015300042F24623D140C1602268C0F60003C2F3E4
:1015400081329A5CB1FBF2F1016110BD704700007D
:101550007047000082B041F20400C4F2020050F86B
:10156000041C002241F0010140F8041C0168CFF680
:10157000FF021140016050F8041C4FF6FF72CFF6D5
:10158000F662114040F8041C50F8041C21F480213C
:1015900040F8041C016821F4FE0101604FF41F01B2
:1015A000416000210191009150F8041C41F4803108
:1015B00040F8041C50F8041C01F40031009101991A
:1015C00001310191009919B90199B1F5A06FF1D1DB
:1015D00050F8041C890354BF002101210091009997
:1015E000012936D142F20001C4F202010A6842F038
:1015F00010020A600A6822F003020A600A6842F0D8
:1016000002020A600168016001680160016841F43A
:1016100080610160016821F47C110160016841F47E
:10162000E811016050F8041C41F0807140F8041C7E
:1016300050F8041C8901FBD5016821F00301016009
:10164000016841F002010160016801F00C01082904
:10165000FAD14EF60850CEF200004FF00061016062
:1016600002B0704710B543F60004C4F201042046EE
:1016700040F2255100F066F8012818BF10BD204641
:1016800000F0ECF840F21201C2F200010A78C0B298
:10169000012A11D0AAB9402834D140F27800C2F210
:1016A0000000007870BB0120087040F21300C2F205
:1016B00000000021017025E00D2817D102200870DC
:1016C00020E00A281ED10020087040F21301C2F267
:1016D0000001097840F21402C2F20002505440F2B4
:1016E0007800C2F20000012101700BE040F213010A
:1016F000C2F200010A7840F21403C2F200039854C7
:10170000501C0870204640F22551BDE8104000F002
:1017100001B80000090A012202FA01F1C94301805F
:10172000704700008289002918BF012122F400526D
:1017300042EA4131818170470088084018BF01208A
:1017400070470000C1F34212022A06D0012A14BFDA
:1017500000F1140200F10C0201E000F11002128805
:10176000008801F01F03090ADA40C840104000F069
:1017700001007047C1F3421301F01F0C1421022B2A
:1017800008BF1021012B4FF0010308BF0C21002AD4
:1017900003FA0CF243580CBF23EA02021A434250E8
:1017A0007047000070B586B00446008A0D46C988AF
:1017B00020F4405008432082A0894EF6F3110840DF
:1017C000A9882A896B89084310431843A081A08AFD
:1017D000A98920F44070084301AEA0823046FFF78B
:1017E00065FE43F6000106F10800C4F201018C42D7
:1017F00008BF06F10C0000681922B4F90C10504320
:101800002A680123B1F1FF3FC8BF022302FA03F1A6
:10181000B0FBF1F048F21F51C5F2EB11A0FB012320
:101820005A096FF0630302FB0300B4F90C3003267E
:10183000B3F1FF3FC8BF042600FA06F000F1320002
:10184000A0FB01014FF00700C8BF0F2000EA5110B4
:1018500040EA0210208106B070BD000080886FF35E
:101860005F2070476FF35F2181807047FEE70000C3
:1018700070B586B004200121FFF70CFE4FF48040C4
:101880000121FFF707FE43F6000440F20020C4F2F6
:101890000104C1F60300A4F5405504AE04902846A7
:1018A0003146FFF7DBF940F20040C0F203400490FC
:1018B00028463146FFF7D2F94FF416500090002029
:1018C0004FF44021ADF80C00CDE9010169462046F6
:1018D000FFF768FF204640F225510122FFF74AFF3B
:1018E0004FF4A060FFF75CFA40F22510C0F201103F
:1018F000059005A8FFF724FA20460121FFF712FF03
:1019000006B070BDB0B543F6000504460A28C4F21F
:10191000010509D128460D21FFF7A4FF28468021A3
:10192000FFF70AFF0028F9D0E1B22846FFF79AFF37
:1019300028468021FFF700FF0028F9D02046B0BDDF
:10194000FFF71AF9FFF7EAFAFFF734FA0120FFF779
:101950004FF9F7E70FB4054B10B503A9044A0298F5
:1019600000F0DAF810BC5DF814FB0000051900085F
:101970000000002002E008C8121F08C1002AFAD1A6
:1019800070477047002001E001C1121F002AFBD1FF
:10199000704700002DE9FF5F82B00021DDE90430CF
:1019A000020DDDF840B0034318D044F61050A2F207
:1019B000FF3242431514119801281FD0A5EB0B00EC
:1019C000401C5FEA000A4FF000064E4FDFF83891E6
:1019D000B046504615D5CAF1000413E01198012411
:1019E0004AA3012801D16FEA0B010298119AC0E9BC
:1019F0000031C0E9024206B0BDE8F09FCBF1000023
:101A0000DFE704460021404A491842EB0450CDE983
:101A1000001012E0E00707D032463B4640464946F8
:101A2000FEF7B2FB8046894632463B4610461946D1
:101A3000FEF7AAFB06460F466410002CEAD1DDE94A
:101A40000401DDE90023BAF1000F06DAFEF79CFB82
:101A500042464B46FEF798FB05E0FEF7EBFD42469B
:101A60004B46FEF7E7FD04460E460022284BFEF7E4
:101A700069FE03D84FF0FF30014607E00022254BF6
:101A800020463146FEF72FFDFEF743FE102409E005
:101A9000002C0ADB0A220023FEF760FC039B303295
:101AA0001A55641E50EA0102F2D1641C039AC4F173
:101AB00011031444119A012A03D0012208430DD1C5
:101AC0000AE0084304D000204FF0110B119072E798
:101AD000A3EB0B056D1E0DE05B4504DD4FF000022E
:101AE00005F1010504E003DA4FF00002A5F101055C
:101AF000002AECD002981199C0E90231C0E90045F2
:101B000079E70000000014400000F03F30000000C2
:101B10000000F0430000E03F2DE9FF4F95B09B46E9
:101B20008946064600250FE2252877D1002427465E
:101B3000F84A0121059400E0044316F8013F203BD8
:101B400001FA03F01042F7D130782A2811D06FF053
:101B50002F033078A0F13002092A16D8059A44F0F4
:101B6000020402EB820203EB42021044761C059051
:101B7000EFE759F8042B0592002A03DA504244F4A7
:101B80000054059044F00204761C30782E2816D1BB
:101B900016F8010F44F004042A280DD06FF02F022C
:101BA0003078A0F13003092B09D807EB870302EB4B
:101BB0004303C718761CF3E759F8047B761C30788A
:101BC0006C280FD006DC4C2817D068280DD06A2866
:101BD00014D104E0742810D07A280FD10DE044F419
:101BE00000140AE044F4801401E044F440147278D4
:101BF000824202D104F58014761C761C3078662867
:101C00000BD013DC582877D009DC002875D0452884
:101C1000F6D04628F4D047281AD19DE118E0632871
:101C200035D0642879D0652812D195E1702873D019
:101C300008DC6728F1D069286FD06E280DD06F2896
:101C400006D1B5E073282CD0752875D0782874D0CB
:101C50005A46179990476D1C75E1C4F3025002284B
:101C600009D003280DD0D9F8001004280DD00D603C
:101C700009F1040967E1D9F80010EA17C1E9005237
:101C8000F6E7D9F800100D80F2E70D70F0E719F8CB
:101C9000041B8DF8001000208DF80100EA46012099
:101CA00003E059F804AB4FF0FF3061074FF000013B
:101CB00002D40DE008F101018846B9420FDA8045EF
:101CC000F8DB1AF808100029F4D108E008F1010146
:101CD00088468142FADB1AF808100029F6D10598E7
:101CE0005B46A0EB080721463846179A00F094FAA5
:101CF000284400EB080507E04DE029E10DE01AF863
:101D0000010B5A4617999047B8F10108F7D25B4684
:101D100021463846179A13E142E00A220092C4F3A2
:101D200002524FF0000A022A08D059F804CB032AC5
:101D30004FEAEC710AD00DE029E02AE009F1070131
:101D400021F00702F2E802C1914609E00FFA8CFC8B
:101D50004FEAEC71042A03D14FFA8CFC4FEAEC7184
:101D6000002907DA0A460021DCF1000C61EB0201D0
:101D70002D2202E0220504D52B228DF80420012219
:101D800003E0E20701D02022F7E7904659E00A215C
:101D900002E010220DE010214FF0000A00910BE04C
:101DA00010224FF0000A44F004040827009203E0D8
:101DB00008224FF0000A0092C4F30252022A05D012
:101DC00059F804CB0021032A08D009E009F10701E2
:101DD00021F00702F2E802C1914605E01FFA8CFCEF
:101DE000042A01D10CF0FF0C4FF00008220728D57F
:101DF000702806D0009B83F0100353EA0A0305D035
:101E00000EE040228DF80420012208E05CEA010285
:101E100006D030228DF804208DF80500022290466D
:101E2000009B83F0080353EA0A030AD15CEA01022B
:101E300001D1620705D530228DF804204FF001084A
:101E40007F1E582804D034A003900EA802900DE005
:101E500036A0F9E753466046009AFEF77FFA8446BB
:101E60000398825C0298401E029002705CEA0100B6
:101E7000F0D1029806A9081A00F1200A600702D5DD
:101E800024F4803400E00127574502DDA7EB0A0067
:101E900000E0002000EB0A01009005984144401A40
:101EA0000590E00306D45B462146179A059800F09A
:101EB000B3F90544002706E001A85A46C05D17990A
:101EC00090476D1C7F1C4745F6DBE0030CD55B4655
:101ED0002146179A059800F09FF9054404E0302048
:101EE0005A46179990476D1C0099481E009000298A
:101EF000F5DC08E0029802995A460078491C0291E4
:101F0000179990476D1CBAF10001AAF1010AF1DCA2
:101F100065E10000092801003031323334353637AD
:101F20003839616263646566000000003031323325
:101F300034353637383941424344454600000000C5
:101F400000F058F90544761C307800287FF4ECAD99
:101F500019B02846BDE8F08F620700D4062709F1C2
:101F6000070222F0070CFCE80223E14603F00048D8
:101F70005FEA080C02D00FF2702C0DE05FEA045CFF
:101F800002D50FF2682C07E05FEAC47C02D00FF2A2
:101F9000602C01E0AFF2700C4FF0FF3823F00043EB
:101FA000CDF850C065280CD006DC452809D046285D
:101FB0001DD047283DD13DE0662818D067287ED146
:101FC00038E00021112F01DB112000E0781CCDE961
:101FD000000106A90EA8FFF7DDFCDDE90F010E9A4E
:101FE00003910021009207F1010A04914DE04FF0A6
:101FF00000400097CDE9011006A90EA8FFF7CAFC22
:10200000DDE90F0203920E9B11990022DDF80CA06E
:102010000093049211B9791C00EB010AB7EB0A0096
:1020200004D4C0F1FF3007F1010A0490AAEB0700C5
:10203000019044E0012F00DA01270021112F01DD7A
:10204000112000E03846CDE9000106A90EA8FFF7EF
:10205000A1FCDDE90F010E9A039100210491009289
:10206000BA4621070CD40399514500DA8A46BAF1E1
:10207000010F05DD009AAAF10101515C302908D059
:10208000B84202DA10F1040F06DA0121CDE901109D
:1020900015E0AAF10101E9E7002805DC04990144F3
:1020A0000491AAEB000102E0411C514500DD8A4683
:1020B0000499401A401C01904FF000400290200704
:1020C00004D40198504501DBCDF8048000208DF840
:1020D0004F0002980DF14F07B0F1004F25D02B2093
:1020E0000E9002984FF0020800280CDA404202904D
:1020F0002D200E9007E00A210298FEF719F93031E1
:10210000029007F8011DB8F10001A8F10108F2DC06
:1021100002980028EFD1791E0E980870307800F0F0
:10212000200040F0450007F8020D12A8C01B00F186
:1021300007081498007800B1012000EB0A0101980B
:1021400001EBE07105984144401A401E0590E00300
:1021500006D45B462146179A059800F05DF80544C1
:102160001498007818B15A46179990476D1CE003EF
:1021700024D55B462146179A059800F04DF8054492
:102180001CE00498002807DBDDE90301884203DD39
:102190000098405C179901E0179930205A46904703
:1021A000049805F10105401C04900198401E01901F
:1021B00004D12E205A46179990476D1CBAF10001A0
:1021C000AAF1010ADDDC05E017F8010B5A46179960
:1021D00090476D1CB8F10001A8F10108F4DC5B46E2
:1021E0002146179A0598ABE62D0000002B00000051
:1021F000200000002DE9F041044600251E46174648
:10220000880404D405E039462020B0476D1C641EC4
:10221000F9D52846BDE8F0812DE9F04104460025B6
:102220001E469046C80301D5302700E020278804C9
:1022300004D505E041463846B0476D1C641EF9D50B
:102240002846BDE8F08102040608000000000102F3
:10225000030401020304060708090000000000004F
:1022600000000000000000000000000000F8000076
:102270000000000000333000000000100C06100CBD
:102280000600000000000000000040C07840C07858
:102290004000043F04043F040400007088FC083040
:1022A0000000001820FF211E0000F008F000E018D8
:1022B000000000211C031E211E0000F00888700091
:1022C00000001E2123241927211010160E000000E3
:1022D00000000000000000000000000000E0180402
:1022E0000200000000071820400000020418E0006F
:1022F00000000040201807000000404080F08040AF
:1023000040000202010F01020200000000F0000084
:1023100000000101011F0101010000000000000098
:10232000000080B07000000000000000000000000D
:102330000000000101010101010100000000000096
:10234000000000303000000000000000000080604D
:102350001804006018060100000000E010080810D2
:10236000E000000F102020100F00001010F80000F7
:1023700000000020203F202000000070080808888E
:10238000700000302824222130000030088888485E
:1023900030000018202020110E000000C02010F88E
:1023A000000000070424243F240000F8088888085F
:1023B00008000019212020110E0000E01088881864
:1023C0000000000F112020110E0000380808C83846
:1023D00008000000003F0000000000708808088826
:1023E0007000001C222121221C0000E010080810AF
:1023F000E0000000312222110F00000000C0C000E8
:1024000000000000003030000000000000800000EC
:1024100000000000806000000000000080402010EC
:1024200008000001020408102000404040404040E5
:102430004000040404040404040000081020408048
:10244000000000201008040201000070480808087D
:10245000F0000000003036010000C030C828E8104D
:10246000E0000718272423140B000000C038E00008
:102470000000203C23020227382008F88888887052
:102480000000203F202020110E00C030080808085E
:102490003800071820202010080008F80808081045
:1024A000E000203F202020100F0008F88888E8086E
:1024B0001000203F20202320180008F88888E80812
:1024C0001000203F200003000000C030080808383A
:1024D000000007182020221E020008F8080000084B
:1024E000F808203F210101213F20000808F80808D2
:1024F00000000020203F2020000000000808F8080D
:102500000800C08080807F00000008F888C028187C
:102510000800203F20012638200008F808000000AD
:102520000000203F20202020300008F8F800F8F8B4
:102530000800203F003F003F200008F830C000089E
:10254000F808203F200007183F00E0100808081096
:10255000E0000F10202020100F0008F808080808DD
:10256000F000203F210101010000E01008080810E0
:10257000E0000F18242438504F0008F88888888815
:102580007000203F2000030C3020007088080808ED
:1025900038000038202121221C00180808F80808FB
:1025A00018000000203F2000000008F80800000884
:1025B000F808001F202020201F000878880000C88D
:1025C0003808000007380E010000F80800F800087D
:1025D000F800033C0700073C030008186880806887
:1025E000180820302C03032C30200838C800C838C5
:1025F00008000000203F2000000010080808C8382C
:1026000008002038262120201800000000FE0202C9
:1026100002000000007F40404000000C30C000007D
:102620000000000000010638C00000020202FE00A7
:102630000000004040407F00000000000402020251
:102640000400000000000000000000000000000086
:102650000000808080808080808000020204000072
:10266000000000000000000000000000808080806A
:1026700000000019242222223F2008F80080800058
:102680000000003F112020110E000000008080801B
:102690000000000E11202020110000000080808822
:1026A000F800000E112020103F2000008080808064
:1026B0000000001F222222221300008080F0888860
:1026C00088180020203F20200000000080808080AB
:1026D0008000006B94949493600008F800808080E0
:1026E0000000203F210000203F200080989800003B
:1026F00000000020203F202000000000008098986B
:10270000000000C08080807F000008F8000080800A
:102710008000203F24022D302000000808F800002F
:1027200000000020203F20200000808080808080EA
:102730008000203F20003F20003F8080008080807C
:102740000000203F210000203F200000808080808A
:102750000000001F202020201F00808000808000BB
:10276000000080FFA12020110E000000008080806A
:102770008000000E112020A0FF80808080008080DB
:10278000800020203F212000010000008080808008
:1027900080000033242424241900008080E08080FD
:1027A00000000000001F202000008080000000804A
:1027B0008000001F202020103F20808080000080AB
:1027C000808000010E3008060100808000800080BB
:1027D00080800F300C030C300F0000808000808060
:1027E00080000020312E0E3120008080800000808B
:1027F000808080818E70180601000080808080803B
:1028000080000021302C2221300000000000807C5C
:10281000020200000000003F404000000000FF00F6
:10282000000000000000FF0000000002027C8000A9
:1028300000000040403F00000000000601010202CD
:102840000404000000000000000048756D3A256493
:10285000202525480D0A0054656D3A256420A1E61F
:102860000D0A0054656D703A0000000090280008C1
:1028700000000020080000007419000898280008D3
:1028800008000020780400008419000800000000FF
:08289000000000000000000040
:04000005080000ED02
:00000001FF
