:020000040800F2
:10000000600600206D01000841040008810300081B
:100010003D04000829020008450C0008000000000B
:10002000000000000000000000000000DD080008E3
:100030002D02000800000000A9080008E1080008DF
:100040008701000887010008870100088701000870
:100050008701000887010008870100088701000860
:100060008701000887010008870100088701000850
:100070008701000887010008870100088701000840
:100080008701000887010008870100088701000830
:100090008701000887010008870100088701000820
:1000A0008701000887010008870100088701000810
:1000B0008701000887010008870100088701000800
:1000C00087010008870100088701000887010008F0
:1000D00087010008870100088701000887010008E0
:1000E00087010008870100088701000800F002F876
:1000F00000F02CF80AA090E8000C82448344AAF196
:100100000107DA4501D100F021F8AFF2090EBAE893
:100110000F0013F0010F18BFFB1A43F0010318473B
:100120003C1100004C110000002300240025002693
:10013000103A28BF78C1FBD8520728BF30C148BF4A
:100140000B6070471FB51FBD10B510BD00F031F832
:100150001146FFF7F7FF00F077FD00F04FF803B40A
:10016000FFF7F2FF03BC00F057F800000948804792
:1001700009480047FEE7FEE7FEE7FEE7FEE7FEE789
:10018000FEE7FEE7FEE7FEE704480549054A064BA1
:1001900070470000E5080008ED000008600000203E
:1001A0006006002060020020600200207047704757
:1001B0007047754600F02CF8AE4605006946534678
:1001C00020F00700854618B020B5FFF7DDFFBDE839
:1001D00020404FF000064FF000074FF000084FF0AE
:1001E000000BAC46ACE8C009ACE8C009ACE8C009FB
:1001F000ACE8C00921F007018D46704710B50446F0
:10020000AFF300802046BDE81040FFF7A8BF000014
:10021000004870470000002001491820ABBEFEE7EF
:100220002600020070470000FEE700007047000053
:100230002DE9F047CA7802F00F0CD30644BF8B7843
:100240004CEA030C09880B0625D082465AF8144B59
:1002500000F1100E00254FF001094FF00F080027A4
:1002600006E000BF1E600137082F05F1040511D01C
:1002700009FA07F60E42F6D008FA05F324EA03035A
:100280000CFA05F41C43282A5346EBD0482AEAD13D
:100290007346E7E70460B1F5807F38BFBDE8F087BB
:1002A000436800F1100E00F1140900254FF4807A24
:1002B0004FF00F08002705E034600137082F05F1E3
:1002C000040512D00AFA07F404EA0106A642F4D1A2
:1002D00008FA05F6B3430CFA05F63343282A4E46CE
:1002E000EAD0482AE9D17646E6E74360BDE8F087E0
:1002F000B0B50422C4F20102134602F1180E002820
:1003000048BF73461C6800F44013B3F5401F1FFA42
:1003100080FC06D1156824F0706325F070641460C9
:1003200015E0C3020AD46FF00F0303EA50430CFA3E
:1003300003F324EA030343F0706308E0C0F30343CC
:10034000032505FA03F324EA030343F070636FF017
:100350000F0404EA504400290CFA04F518BF2B439B
:10036000002848BF72461360B0BD0000416170476D
:10037000016170471023002A08BF1423C150704741
:10038000FEE7000010B540F60044C4F20104A4F5F5
:100390008230502100F0FCFBA4F58430502100F0A5
:1003A000F9FB20468021FFF7E3FF20464FF48071E0
:1003B000FFF7DCFF20464FF40071FFF7D9FF04F58B
:1003C00080604FF40051BDE81040FFF7CFBF000040
:1003D000B0B582B00820012100F074FA012001219B
:1003E00000F070FA40F60000C0F21A000121FFF799
:1003F0007FFF40F2803040F60044C1F20300C4F2B7
:10040000010401AD019020462946FFF711FF42F299
:100410000000C1F20300019004F580602946FFF757
:1004200007FF6020C1F60300019020462946FFF730
:10043000FFFE00F0DFFA02B0B0BD0000FEE70000F2
:1004400070470000B0B582B01020012100F03AFAE8
:1004500048F2000041F20004C1F20340C4F201047A
:1004600001AD019020462946FFF7E2FE4FF480409F
:10047000ADF8040020462946FFF7DAFE20464FF487
:1004800000410122FFF776FF20464FF48041012210
:10049000FFF770FFAE2000F0BBF8D52000F0B8F8F1
:1004A000802000F0B5F8A82000F0B2F83F2000F05E
:1004B000AFF8D32000F0ACF80020002400F0A8F83A
:1004C000402000F0A5F8A12000F0A2F8C82000F01C
:1004D0009FF8DA2000F09CF8122000F099F88120B3
:1004E00000F096F8CF2000F093F8D92000F090F8B3
:1004F000F12000F08DF8DB2000F08AF8302000F0C9
:1005000087F8A42000F084F8A62000F081F88D2060
:1005100000F07EF8142000F07BF8AF2000F078F8AF
:1005200044F0B000C0B200F073F8102000F070F892
:100530000020002500F06CF8002000F00DF9681C88
:1005400045B2B5F1FF3FF7DCE0B201340728E7D34D
:1005500002B0B0BD2DE9F04381B016467E224FEACD
:10056000400802EB40006FF0070240F0B00002EBE1
:10057000C104C0B2E5B200F04BF8280900F110093F
:10058000484600F045F804F00805284600F040F819
:1005900040F66C40C0F6000000EB0616A6F20127FC
:1005A000082400BF17F8010F00F0D6F8013CF9D17C
:1005B000A8F1010040F0B000C0B200F029F84846B0
:1005C00000F026F8284600F023F8A6F2F9140825D2
:1005D00014F8010F00F0C0F8013DF9D101B0BDE8F9
:1005E000F0830000F0B581B0144612786AB10D4670
:1005F000064600277819C1B2D2B23046FFF7AAFFEB
:100600000137F8B2225C002AF4D101B0F0BD00003D
:10061000F0B581B041F20004C4F201040546204661
:100620004FF480410122FFF7A5FE20464FF4004120
:100630000122FFF79FFE20464FF480410022002652
:10064000FFF798FE20464FF400410022FFF792FE8C
:10065000802700BF27FA06F000F0780220464FF40A
:100660008041FFF787FE20464FF400410122FFF74B
:1006700081FE20464FF400410022FFF77BFE013649
:10068000082EE7D120464FF400410122FFF772FE09
:1006900020464FF400410022FFF76CFE082600BF01
:1006A00020464FF480410022FFF764FE20464FF4BD
:1006B00000410122FFF75EFE20464FF40041002278
:1006C000FFF758FE013EEBD120464FF400410122D6
:1006D000FFF750FE20464FF4004100220026FFF7AE
:1006E00049FE802727FA06F000EA050220464FF46B
:1006F0008041FFF73FFE20464FF400410122FFF703
:1007000039FE20464FF400410022FFF733FE013648
:10071000082EE7D120464FF400410122FFF72AFEC0
:1007200020464FF400410022FFF724FE20464FF4FC
:1007300080410022FFF71EFE20464FF400410122B7
:10074000FFF718FE20464FF48041012201B0BDE8BA
:10075000F040FFF70FBE0000F0B581B041F2000499
:10076000C4F20104054620464FF480410122FFF700
:1007700001FE20464FF400410122FFF7FBFD204619
:100780004FF4804100220026FFF7F4FD20464FF48D
:1007900000410022FFF7EEFD802700BF27FA06F098
:1007A00000F0780220464FF48041FFF7E3FD204639
:1007B0004FF400410122FFF7DDFD20464FF40041D8
:1007C0000022FFF7D7FD0136082EE7D120464FF46F
:1007D00000410122FFF7CEFD20464FF400410022E8
:1007E0000026FFF7C7FD802727FA06F000F0400239
:1007F00020464FF48041FFF7BDFD20464FF40041F5
:100800000122FFF7B7FD20464FF400410022FFF719
:10081000B1FD0136082EE7D120464FF400410122F8
:10082000FFF7A8FD20464FF4004100220026FFF705
:10083000A1FD802727FA06F000EA050220464FF4C2
:100840008041FFF797FD20464FF400410122FFF75A
:1008500091FD20464FF400410022FFF78BFD013649
:10086000082EE7D120464FF400410122FFF782FD18
:1008700020464FF400410022FFF77CFD20464FF454
:1008800080410022FFF776FD20464FF4004101220F
:10089000FFF770FD20464FF48041012201B0BDE812
:1008A000F040FFF767BD000070470000002941F2EB
:1008B0001C01C4F202010A680CBF22EA00001043C6
:1008C00008607047002941F21801C4F202010A6869
:1008D0000CBF22EA00001043086070477047000018
:1008E0007047000082B041F20400C4F2020050F8E8
:1008F000041C002241F0010140F8041C0168CFF6FD
:10090000FF021140016050F8041C4FF6FF72CFF651
:10091000F662114040F8041C50F8041C21F48021B8
:1009200040F8041C016821F4FE0101604FF41F012E
:10093000416000210191009150F8041C41F4803184
:1009400040F8041C50F8041C01F400310091019996
:1009500001310191009919B90199B1F5A06FF1D157
:1009600050F8041C890354BF002101210091009913
:10097000012936D142F20001C4F202010A6842F0B4
:1009800010020A600A6822F003020A600A6842F054
:1009900002020A600168016001680160016841F4B7
:1009A00080610160016821F47C110160016841F4FB
:1009B000E811016050F8041C41F0807140F8041CFB
:1009C00050F8041C8901FBD5016821F00301016086
:1009D000016841F002010160016801F00C01082981
:1009E000FAD14EF60850CEF200004FF000610160DF
:1009F00002B070472DE9F04387B002200121FFF7D4
:100A000055FF40F20044C4F200044FF063084FF079
:100A10002309002604A92046CDF81480CDF81090B3
:100A20008DF8186000F0B8F86D46284600F0AAF876
:100A30006027C0F20107204629460097CDF80660DE
:100A400000F066F82046012100F020F80420012182
:100A5000FFF72CFF04F5806404A92046CDE9049833
:100A60008DF8186000F098F86D46284600F08AF876
:100A7000204629460097CDF8066000F011F8204680
:100A8000012100F003F807B0BDE8F08302880029D7
:100A900018BF012122F001021144018070470000BB
:100AA000B0B5028C22F001020284038C8288B0F877
:100AB00018C00C8923F002032343A0F180444D8821
:100AC000A4F59634B1F800E04FEAB424072C43EAC9
:100AD000050313D8012505FA04F414F0E50F0DD031
:100AE0004C8923F00C0324F004048D8823438C8963
:100AF0002B4322F44072CD8922432A432CF0730504
:100B000045EA0E0582800583C98881860384B0BDCD
:100B1000B0B5028C22F010020284038C8288B0F8F7
:100B200018E00C894D88B1F800C02C4343F2004511
:100B300023F02003C4F20105A84243EA041305D0C0
:100B400042F60044C4F20104A04211D14C896FF076
:100B5000400523F0C00305EA04148D88234343EACB
:100B600005138C89CD8922F440622C4342EA840229
:100B70002EF4E64545EA0C2582800583C988018765
:100B80000384B0BD0021C160816041600160704795
:100B9000818670470187704740F6FF33B0F800C088
:100BA000C4F2000398420FDCB0F1804F1ED040F237
:100BB0000043C4F20003984218D040F60003C4F288
:100BC0000003984212D016E040F60043C4F200033E
:100BD00098420BD043F20043C4F20103984205D07F
:100BE00042F60043C4F20103984204D14B882CF032
:100BF000700243EA020C41F2004240F48063C4F206
:100C00000002934204D0CA882CF4407342EA030CD9
:100C1000A0F800C08A888285A0F18042A2F59632B1
:100C20000B884FEAB222072A038507D8012303FA6B
:100C300002F212F0E50F1CBF097A018601218182C0
:100C400070470000FEE70000FFF7FCFBFFF7C0FB6A
:100C500004A201200121FFF7C5FC00BFFFF792FBB2
:100C6000FCE700BF4D4F544F523A00000000000017
:100C7000000000000000000000000000000000F87C
:100C800000000000000000333000000000100C06DF
:100C9000100C0600000000000000000040C078407A
:100CA000C0784000043F04043F040400007088FC46
:100CB00008300000001820FF211E0000F008F0009E
:100CC000E018000000211C031E211E0000F008880F
:100CD000700000001E2123241927211010160E0079
:100CE000000000000000000000000000000000E024
:100CF0001804020000000007182040000002041839
:100D0000E00000000040201807000000404080F094
:100D1000804040000202010F01020200000000F0CA
:100D2000000000000101011F01010100000000009E
:100D30000000000080B07000000000000000000013
:100D4000000000000001010101010101000000009C
:100D50000000000000303000000000000000000033
:100D600080601804006018060100000000E0100810
:100D70000810E000000F102020100F00001010F8E5
:100D8000000000000020203F202000000070080824
:100D900008887000003028242221300000300888A4
:100DA000884830000018202020110E000000C020CC
:100DB00010F8000000070424243F240000F80888ED
:100DC000880808000019212020110E0000E010887A
:100DD00088180000000F112020110E0000380808AC
:100DE000C83808000000003F0000000000708808BC
:100DF00008887000001C222121221C0000E010083D
:100E00000810E0000000312222110F00000000C095
:100E1000C000000000000030300000000000008032
:100E20000000000000008060000000000000804022
:100E3000201008000001020408102000404040403B
:100E4000404040000404040404040400000810208E
:100E500040800000002010080402010000704808D3
:100E60000808F0000000003036010000C030C8283B
:100E7000E810E0000718272423140B000000C038F6
:100E8000E0000000203C23020227382008F8888870
:100E900088700000203F202020110E00C03008087C
:100EA00008083800071820202010080008F8080853
:100EB0000810E000203F202020100F0008F888884C
:100EC000E8081000203F20202320180008F8888818
:100ED000E8081000203F200003000000C030080890
:100EE0000838000007182020221E020008F8080019
:100EF0000008F808203F210101213F20000808F8E0
:100F0000080800000020203F202000000000080802
:100F1000F8080800C08080807F00000008F888C0C2
:100F200028180800203F20012638200008F8080073
:100F300000000000203F20202020300008F8F800AA
:100F4000F8F80800203F003F003F200008F830C0BC
:100F50000008F808203F200007183F00E0100808AC
:100F60000810E0000F10202020100F0008F80808DB
:100F70000808F000203F210101010000E0100808EE
:100F80000810E0000F18242438504F0008F8888813
:100F900088887000203F2000030C302000708808F3
:100FA000080838000038202121221C00180808F801
:100FB000080818000000203F2000000008F8080082
:100FC0000008F808001F202020201F000878880053
:100FD00000C83808000007380E010000F80800F8C3
:100FE0000008F800033C0700073C0300081868806D
:100FF0008068180820302C03032C30200838C800E3
:10100000C83808000000203F200000001008080831
:10101000C83808002038262120201800000000FED3
:10102000020202000000007F40404000000C30C07F
:1010300000000000000000010638C00000020202AB
:10104000FE000000004040407F000000000004025D
:101050000202040000000000000000000000000088
:101060000000000080808080808080800002020478
:101070000000000000000000000000000000808070
:10108000808000000019242222223F2008F80080DE
:1010900080000000003F112020110E0000000080A1
:1010A00080800000000E1120202011000000008030
:1010B0008088F800000E112020103F200000808062
:1010C00080800000001F222222221300008080F076
:1010D000888888180020203F2020000000008080A1
:1010E00080808000006B94949493600008F80080E6
:1010F00080800000203F210000203F200080989841
:10110000000000000020203F2020000000000080A0
:101110009898000000C08080807F000008F80000E0
:1011200080808000203F24022D302000000808F835
:10113000000000000020203F2020000080808080F0
:1011400080808000203F20003F20003F8080008082
:1011500080800000203F210000203F200000808090
:1011600080800000001F202020201F008080008041
:101170008000000080FFA12020110E0000000080F0
:1011800080808000000E112020A0FF8080808000E1
:101190008080800020203F2120000100000080800E
:1011A000808080000033242424241900008080E003
:1011B000808000000000001F2020000080800000D0
:1011C00000808000001F202020103F2080808000B1
:1011D0000080808000010E300806010080800080C1
:1011E000008080800F300C030C300F0000808000E6
:1011F000808080000020312E0E3120008080800011
:101200000080808080818E701806010000808080C0
:10121000808080000021302C22213000000000005E
:10122000807C020200000000003F404000000000FF
:10123000FF00000000000000FF0000000002027C30
:10124000800000000040403F000000000006010157
:101250000202040400000000000000006C120008FC
:0C126000000000206006000028010008CB
:04000005080000ED02
:00000001FF
