:020000040800F2
:100000009004002001010008D50E00080107000837
:10001000D10E00085D020008091C00080000000065
:100020000000000000000000000000005117000860
:1000300045050008000000000515000855170008D8
:100040001B0100081B0100081B0100081B01000820
:100050001B0100081B0100081B0100081B01000810
:100060001B0100081B0100081B0100081B01000800
:100070001B0100081B0100081B0100081B010008F0
:100080001B0100081B0100081B0100081B010008E0
:100090001B0100081B0100081B0100081B010008D0
:1000A0001B0100081B0100081B0100081B010008C0
:1000B000691800081B0100081B0100081B0100084B
:1000C0001B0100081B0100081B0100081B010008A0
:1000D0001B010008151A00081B0100081B0100087D
:1000E0001B0100081B0100081B010008DFF80CD0F1
:1000F00000F018F800480047A51C000890040020F4
:100100000648804706480047FEE7FEE7FEE7FEE7B1
:10011000FEE7FEE7FEE7FEE7FEE7FEE75917000809
:10012000ED000008064C074D06E0E06840F00103D2
:1001300094E8070098471034AC42F6D3FFF7DAFF93
:10014000FC2200081C2300088268002922F001021A
:1001500018BF0132826070478268002922F48072E1
:1001600018BF02F580728260704700008068C0F39B
:10017000800070478068C0F3C000704780B5426857
:100180004FF6FF63CFF6F07302EA030C0B680A79AF
:1001900043EA0C0343EA0222426082684FF2FD7395
:1001A000CFF6F17302EA030CD1E902E24B7942EA9D
:1001B0000C0242EA0E0242EA43028260C26A097CF1
:1001C00022F470020139C9B242EA0151C16280BD14
:1001D000B0B501EB410C4FF0100E092988BFACF10E
:1001E0001E0C88BF4FF00C0E50F80E40072505FA84
:1001F0000CF5AC4303FA0CF3234340F80E30062A07
:1002000002EB820303D834306FF0040207E00C2ABB
:1002100087BF2C306FF0400230306FF022021A445A
:1002200003681F259540AB43914019430160B0BD61
:10023000816841F0080181607047000082680029F0
:1002400022F4A00218BF02F5A002826070470000ED
:10025000816841F00401816070470000FEE7000002
:1002600002684FF6FE7C42F00103002908BF02EA53
:100270000C0303607047000002684FF6FE731A40DB
:100280007F230421C4F20203C4F2020102600022AF
:100290009842026042608260C26016DC4322C4F26F
:1002A000020290422CDC0822C4F20202904251D099
:1002B0001C22C4F2020290424ED03022C4F202024A
:1002C00090425ED14FF4706058E040F22F42C4F289
:1002D0000202904226DC8022C4F2020290423DD00B
:1002E00040F20842C4F2020290423AD040F21C426C
:1002F000C4F20202904244D101F58061F0203DE059
:100300004422C4F20202904236D05822C4F20202C1
:1003100090421CD06C22C4F20202904231D14FF4C0
:1003200070002BE040F23042C4F2020290421CD036
:1003300040F24442C4F2020290421BD040F25842C2
:10034000C4F20202904218BF704701F580614FF479
:10035000702013E00F2011E0F0200FE04FF07060EC
:100360000CE001F580610F2008E001F580614FF499
:10037000706003E001F580614FF470400A6810433B
:10038000086070472DE9F047026847F6F073D1E93D
:10039000026A9A4301F11007B0CF01F11C0E3243FB
:1003A000D1E900899EE80A501A4322432A433A437E
:1003B000114341EA0C0141EA0E010160C0F804A0BA
:1003C000C0F80880C0F80C90BDE8F087B0B540F2E6
:1003D0001500C2F20000007840F200040138C0B2FB
:1003E0000228C2F2000408D80121C000C0F20201B4
:1003F00021FA00F500F0AAFD2570207802282CD003
:1004000001283ED0002874D146A20120012100F02D
:1004100041FF40F21804C2F20004228802200121A8
:10042000042300F0B9FE628802200921042300F0B1
:10043000B3FEA28803200121042300F0ADFEE28870
:1004400003200921042300F0A7FE228904200121B2
:100450000423BDE8B04000F09FBE29A20120032183
:1004600000F018FF00F09EFC40F214050246C2F2B4
:1004700000050220012102232A70BDE8B04000F0EF
:1004800059BE23A20120012100F004FF40F208041C
:10049000C2F20004204600F01FFBB4F90020022045
:1004A0000121052300F0B2FEB4F902200220092147
:1004B000052300F0ABFEB4F904200320012105233D
:1004C00000F0A4FEB4F9062003200921052300F062
:1004D0009DFEB4F9082004200121052300F096FEBA
:1004E000B4F90A20042009210523BDE8B04000F03A
:1004F0008DBE10A201200121BDE8B04000F0CABEAF
:10050000204D505536303530204944202100000020
:10051000204D5055363035302056616C75652021A0
:100520000000000020526F636B65722056616C758D
:100530006520210053656C656374204552524F520B
:10054000202100007047000010B5002808BF10BD32
:100550004EF2100141F6401CCEF20001C0F2010C37
:100560004FF0000E05220423C1F804C0C1F808E0D2
:100570000A6000BF0C68E403FCD501380B60F3D1BE
:1005800010BD00004EF2100100EBC000CEF20001E1
:10059000C000486000208860052008600868C0032B
:1005A000FCD50420086070472DE9F047CA7802F0B6
:1005B0000F0CD30644BF8B784CEA030C09880B065A
:1005C00025D082465AF8144B00F1100E00254FF04A
:1005D00001094FF00F08002706E000BF1E60013739
:1005E000082F05F1040511D009FA07F60E42F6D0DE
:1005F00008FA05F324EA03030CFA05F41C43282A3D
:100600005346EBD0482AEAD17346E7E70460B1F5D8
:10061000807F38BFBDE8F087436800F1100E00F11D
:10062000140900254FF4807A4FF00F08002705E0E9
:1006300034600137082F05F1040512D00AFA07F4D7
:1006400004EA0106A642F4D108FA05F6B3430CFA0F
:1006500005F63343282A4E46EAD0482AE9D17646A1
:10066000E6E74360BDE8F087B0B50422C4F20102BA
:10067000134602F1180E002848BF73461C6800F4A8
:100680004013B3F5401F1FFA80FC06D1156824F013
:10069000706325F07064146015E0C3020AD46FF033
:1006A0000F0303EA50430CFA03F324EA030343F075
:1006B000706308E0C0F30343032505FA03F324EA5B
:1006C000030343F070636FF00F0404EA5044002901
:1006D0000CFA04F518BF2B43002848BF724613607C
:1006E000B0BD00008068084018BF012070470000BE
:1006F000016170471023002A08BF1423C1507047BE
:10070000FEE7000010B582B00420012100F01EFFBA
:1007100041F6000040F60004C1F20340C4F20104B7
:10072000019001A92046FFF73FFF20464FF4C0513A
:10073000FFF7DEFF02B010BDB0B540F60004C4F212
:10074000010420464FF480510122FFF7D3FF0A2015
:10075000FFF718FF20464FF400610122FFF7CAFFA0
:100760000A20FFF70FFF20464FF48051FFF7BAFF32
:1007700005460A20FFF706FF20464FF400610022DD
:10078000FFF7B8FF0A20FFF7FDFE2846B0BD0000C6
:100790002DE9F04140F600040026C4F201044FF0B8
:1007A0008008002720464FF400610122FFF7A2FFD6
:1007B0000A20FFF7E7FE20464FF48051FFF792FF33
:1007C00005460A20FFF7DEFE28FA06F0002D18BFC6
:1007D000074320464FF400610022FFF78BFF0A20F9
:1007E000FFF7D0FE0136082EDCD1F8B2BDE8F0816B
:1007F00010B540F60004C4F20104024620464FF44E
:100800008051FFF777FF0A20FFF7BCFE20464FF428
:1008100000610122FFF76EFF0A20FFF7B3FE2046BA
:100820004FF400610022FFF765FF0A20BDE8104089
:10083000FFF7A8BEF0B581B040F6000504460026DB
:10084000C4F20105802700BF27FA06F000EA04027F
:1008500028464FF48051FFF74DFF0A20FFF792FE24
:1008600028464FF400610122FFF744FF0A20FFF7FA
:1008700089FE28464FF400610022FFF73BFF0A2063
:10088000FFF780FE0136082EDED101B0F0BD00007A
:1008900010B540F60004C4F2010420464FF4805124
:1008A0000122FFF727FF0A20FFF76CFE20464FF4D6
:1008B00000610122FFF71EFF0A20FFF763FE2046BA
:1008C0004FF480510022FFF715FF0A20FFF75AFE70
:1008D00020464FF400610022FFF70CFF0A20BDE81C
:1008E0001040FFF74FBE000010B540F60004C4F200
:1008F000010420464FF480510022FFF7FBFE0A203E
:10090000FFF740FE20464FF400610122FFF7F2FEA0
:100910000A20FFF737FE20464FF480510122FFF7EF
:10092000E9FE0A20BDE81040FFF72CBE40F2160198
:10093000C2F20001087800220A707047B0B582B098
:1009400000F0B0FF1C20012100F000FE48F2F21080
:1009500040F60004C4F60300C4F2010401AD0190A6
:1009600020462946FFF720FE4FF4E050ADF8040082
:1009700004F580602946FFF717FE4FF40050ADF8EC
:10098000040004F500602946FFF70EFE02B0B0BD7A
:10099000B0B540F60004C4F2010404F500604FF461
:1009A0000051FFF79FFEE8B320464FF40041FFF7E8
:1009B00099FEC8B320460221FFF794FEB0B304F5B8
:1009C000806528464FF48051FFF78CFE80B32046A7
:1009D0002021FFF787FE68B320461021FFF782FE33
:1009E00050B320464021FFF77DFE38B320468021DA
:1009F000FFF778FE20B328464FF48061FFF772FEC0
:100A000000B320464FF48071FFF76CFEE0B128463A
:100A10004FF40061FFF766FE6FF00701002808BF82
:100A2000032112E0092110E00A210EE00B210CE065
:100A30000C210AE00D2108E00E2106E00F2104E060
:100A4000002102E0012100E0022101F00F004FF639
:100A50000F61C140C90708BFB0BD04A1085C40F2E6
:100A60001601C2F200010870B0BD00BF08090A0BF0
:100A700001010101010102030405060770B582B0FE
:100A80001820012100F062FD41F200040820C4F2A8
:100A90000104C1F20300A4F5806501AE019028466F
:100AA0003146FFF781FD4FF44040ADF80400204689
:100AB0003146FFF779FD28460821FFF719FE204649
:100AC0004FF48041FFF714FE20464FF40041FFF73A
:100AD0000FFE02B070BD0000B0B50446FFF7D8FEAF
:100AE000D020FFF7A7FEFFF727FE3B20FFF7A2FE6F
:100AF000FFF722FEFFF7CCFED120FFF79BFEFFF7AA
:100B00001BFEFFF745FE05460120FFF771FEFFF7CC
:100B1000EBFE28022080FFF7BBFED020FFF78AFE05
:100B2000FFF70AFE3C20FFF785FEFFF705FEFFF703
:100B3000AFFED120FFF77EFEFFF7FEFDFFF728FE98
:100B400005460120FFF754FEFFF7CEFE208828431C
:100B50002080FFF79DFED020FFF76CFEFFF7ECFD35
:100B60003D20FFF767FEFFF7E7FDFFF791FED1207D
:100B7000FFF760FEFFF7E0FDFFF70AFE05460120E4
:100B8000FFF736FEFFF7B0FE28026080FFF780FE19
:100B9000D020FFF74FFEFFF7CFFD3E20FFF74AFEC4
:100BA000FFF7CAFDFFF774FED120FFF743FEFFF702
:100BB000C3FDFFF7EDFD05460120FFF719FEFFF726
:100BC00093FE608828436080FFF762FED020FFF725
:100BD00031FEFFF7B1FD3F20FFF72CFEFFF7ACFD24
:100BE000FFF756FED120FFF725FEFFF7A5FDFFF723
:100BF000CFFD05460120FFF7FBFDFFF775FE28023C
:100C0000A080FFF745FED020FFF714FEFFF794FD0C
:100C10004020FFF70FFEFFF78FFDFFF739FED120D1
:100C2000FFF708FEFFF788FDFFF7B2FD054601203C
:100C3000FFF7DEFDFFF758FEA0882843A080FFF7EE
:100C400027FED020FFF7F6FDFFF776FD4320FFF7E4
:100C5000F1FDFFF771FDFFF71BFED120FFF7EAFD65
:100C6000FFF76AFDFFF794FD05460120FFF7C0FD81
:100C7000FFF73AFE2802E080FFF70AFED020FFF7D8
:100C8000D9FDFFF759FD4420FFF7D4FDFFF754FDD0
:100C9000FFF7FEFDD120FFF7CDFDFFF74DFDFFF77C
:100CA00077FD05460120FFF7A3FDFFF71DFEE08855
:100CB0002843E080FFF7ECFDD020FFF7BBFDFFF7F6
:100CC0003BFD4520FFF7B6FDFFF736FDFFF7E0FDE2
:100CD000D120FFF7AFFDFFF72FFDFFF759FD0546C8
:100CE0000120FFF785FDFFF7FFFD28022081FFF7B8
:100CF000CFFDD020FFF79EFDFFF71EFD4620FFF73A
:100D000099FDFFF719FDFFF7C3FDD120FFF792FD15
:100D1000FFF712FDFFF73CFD05460120FFF768FDD8
:100D2000FFF7E2FD208928432081FFF7B1FDD020A5
:100D3000FFF780FDFFF700FD4720FFF77BFDFFF782
:100D4000FBFCFFF7A5FDD120FFF774FDFFF7F4FCD6
:100D5000FFF71EFD05460120FFF74AFDFFF7C4FD22
:100D600028026081FFF794FDD020FFF763FDFFF7B5
:100D7000E3FC4820FFF75EFDFFF7DEFCFFF788FD90
:100D8000D120FFF757FDFFF7D7FCFFF701FD054620
:100D90000120FFF72DFDFFF7A7FD60892843608143
:100DA000B0BD000010B5FFF773FDD020FFF742FD86
:100DB000FFF7C2FC7520FFF73DFDFFF7BDFCFFF715
:100DC00067FDD120FFF736FDFFF7B6FCFFF7E0FC2B
:100DD00004460120FFF70CFDFFF786FD204610BDFD
:100DE00080B5FFF78FFCFFF753FDD020FFF722FD02
:100DF000FFF7A2FC6B20FFF71DFDFFF79DFC012014
:100E0000FFF718FDFFF798FCFFF76EFDFFF740FDB9
:100E1000D020FFF70FFDFFF78FFC6C20FFF70AFDD6
:100E2000FFF78AFC0020FFF705FDFFF785FCFFF7C1
:100E30005BFDFFF72DFDD020FFF7FCFCFFF77CFCEE
:100E40001920FFF7F7FCFFF777FC0720FFF7F2FC0C
:100E5000FFF772FCFFF748FDFFF71AFDD020FFF700
:100E6000E9FCFFF769FC1A20FFF7E4FCFFF764FCDC
:100E70000620FFF7DFFCFFF75FFCFFF735FDFFF70C
:100E800007FDD020FFF7D6FCFFF756FC1B20FFF72D
:100E9000D1FCFFF751FC1820FFF7CCFCFFF74CFC0E
:100EA000FFF722FDFFF7F4FCD020FFF7C3FCFFF7AC
:100EB00043FC1C20FFF7BEFCFFF73EFC1820FFF7A9
:100EC000B9FCFFF739FCBDE88040FFF70DBD00001D
:100ED000FEE700007047000010B5C17800294EF20F
:100EE0000011CEF200011AD04EF60C52CEF20002E2
:100EF0001268072323EA12220F23C2F1040C23FAFB
:100F000002F24378847890F800E003FA0CF3224070
:100F10001A43120101EB0E0383F8002300E0803135
:100F20000078012300F01F0203FA02F2C0F342101E
:100F300041F8202010BD000040F080604EF60C51BA
:100F400040F0FD70CEF2000108607047B0B500249B
:100F500044F0B000C0B200F0B3F9102000F0B0F9D6
:100F60000020002500F0ACF9002000F037FA681CE2
:100F700045B2B5F1FF3FF7DCE0B20134072828BFE6
:100F8000B0BDE5E7B0B582B00820012100F0DEFA7F
:100F90000120012100F0DAFA40F20020C0F2300016
:100FA0000121FFF761FB202040F60044C1F203401D
:100FB000C4F2010401AD019020462946FFF7F4FA7E
:100FC0001020ADF8040020462946FFF7EDFA204630
:100FD00020210122FFF78EFB204610210122FFF77E
:100FE00089FBAE2000F06CF9D52000F069F9802073
:100FF00000F066F9A82000F063F93F2000F060F9E6
:10100000D32000F05DF90020002400F059F94020C1
:1010100000F056F9A12000F053F9C82000F050F973
:10102000DA2000F04DF9122000F04AF9812000F09A
:1010300047F9CF2000F044F9D92000F041F9F12020
:1010400000F03EF9DB2000F03BF9302000F038F9E9
:10105000A42000F035F9A62000F032F98D2000F030
:101060002FF9142000F02CF9AF2000F029F900BF6F
:1010700044F0B000C0B200F023F9102000F020F9D5
:101080000020002500F01CF9002000F0A7F9681CE2
:1010900045B2B5F1FF3FF7DCE0B201340728E7D3F2
:1010A00002B0B0BD2DE9F04381B016467E224FEA72
:1010B000400802EB40006FF0070240F0B00002EB86
:1010C000C104C0B2E5B200F0FBF8280900F1100934
:1010D000484600F0F5F804F00805284600F0F0F85E
:1010E00041F60A50C0F6000000EB0616A6F20127F2
:1010F000082400BF17F8010F00F070F9013CF9D186
:10110000A8F1010040F0B000C0B200F0D9F84846A4
:1011100000F0D6F8284600F0D3F8A6F2F914082516
:1011200014F8010F00F05AF9013DF9D101B0BDE802
:10113000F08300002DE9F04381B04BB31C4690468C
:10114000894607465D42002616E000BF0120B8FB35
:10115000F0F006EB090100F00F0000F137020A2859
:1011600038BF00F13002C9B23846FFF79BFF0136A5
:10117000A64205F101050BD0F0430019E6D001208D
:10118000294600BF01314A1C4FEA0010FAD1DEE7C0
:1011900001B0BDE8F08300002DE9F047002B08BF47
:1011A000BDE8F0874CF6CD4A1C4690468946074676
:1011B0005D420026CCF6CC4A18E000BF0120B8FB07
:1011C000F0F0A0FB0A12D20802EB8202A0EB420070
:1011D00006EB090140F03000C2B2C9B23846FFF751
:1011E00061FF0136A64205F101050DD0F04300195B
:1011F000E4D00120294600BF00EB800001314A1CE9
:101200004FEA4000F8D1DAE7BDE8F0872DE9F04772
:101210001C4691468846002A074603D42B22FFF736
:1012200041FF04E02D22FFF73DFFC9F10009002C2A
:1012300008BFBDE8F0874CF6CD4A66420025CCF6E3
:10124000CC4A17E00120B9FBF0F00135A0FB0A12EF
:10125000D20802EB8202A0EB420005EB080140F04D
:101260003000C2B2C9B23846FFF71CFFA54206F1F2
:1012700001060DD0E8430019E4D00120314600BF3B
:1012800000EB800001314A1C4FEA4000F8D1DAE758
:10129000BDE8F087F0B581B0144612786AB10D460A
:1012A000064600277819C1B2D2B23046FFF7FAFEDF
:1012B0000137F8B2225C002AF4D101B0F0BD000081
:1012C000F0B581B040F60044C4F201040546204662
:1012D00010210122FFF70EFA204620210122FFF7FC
:1012E00009FA2046102100220026FFF703FA2046C3
:1012F00020210022FFF7FEF9802700BF27FA06F021
:1013000000F0780220461021FFF7F4F92046202152
:101310000122FFF7EFF9204620210022FFF7EAF92A
:101320000136082EEAD1204620210122FFF7E2F9FA
:10133000204620210022FFF7DDF908262046102153
:101340000022FFF7D7F9204620210122FFF7D2F92A
:10135000204620210022FFF7CDF9013EEED12046A4
:1013600020210122FFF7C6F9204620210022002675
:10137000FFF7C0F9802700BF27FA06F000EA050250
:1013800020461021FFF7B6F9204620210122FFF761
:10139000B1F9204620210022FFF7ACF90136082ED2
:1013A000EAD1204620210122FFF7A4F9204620217E
:1013B0000022FFF79FF9204610210022FFF79AF93B
:1013C000204620210122FFF795F920461021012215
:1013D00001B0BDE8F040FFF78DB90000F0B581B075
:1013E00040F60044C4F201040546204610210122C3
:1013F000FFF780F9204620210122FFF77BF92046E4
:10140000102100220026FFF775F920462021002236
:10141000FFF770F9802700BF27FA06F000F0780286
:1014200020461021FFF766F9204620210122FFF710
:1014300061F9204620210022FFF75CF90136082ED1
:10144000EAD1204620210122FFF754F9204620212D
:1014500000220026FFF74EF9802700BF27FA06F08A
:1014600000F0400220461021FFF744F920462021D9
:101470000122FFF73FF9204620210022FFF73AF929
:101480000136082EEAD1204620210122FFF732F949
:101490002046202100220026FFF72CF9802700BFDC
:1014A00027FA06F000EA050220461021FFF722F98C
:1014B000204620210122FFF71DF92046202100228D
:1014C000FFF718F90136082EEAD120462021012223
:1014D000FFF710F9204620210022FFF70BF92046E4
:1014E00010210022FFF706F9204620210122FFF7F4
:1014F00001F920461021012201B0BDE8F040FFF7BC
:10150000F9B800007047000041F20401C4F2020182
:101510000A6822F44042104308607047002941F2F3
:101520001401C4F202010A680CBF22EA0000104351
:1015300008607047002941F21C01C4F202010A68E8
:101540000CBF22EA0000104308607047002941F2F6
:101550001801C4F202010A680CBF22EA000010431D
:101560000860704710B541F20404C4F20204226816
:1015700002F00C02082A41F20022C0F27A021CD1C9
:101580002368D4F800C0C3F3834E5FEACC330EF176
:10159000020C06D440F60012C0F23D020CFB02F22F
:1015A0000BE023689B0302D40CFB02F205E040F63B
:1015B0000012C0F23D020CFB02F20260226841F60A
:1015C000FA43C2F30312C0F600039A5C0168D140EB
:1015D00041602268C2F302229A5C21FA02F2826020
:1015E0002268C2F3C2229A5C41F6F643D140C16040
:1015F0002268C0F60003C2F381329A5CB1FBF2F1BB
:10160000016110BDF0B58BB042F200440C20012105
:10161000C4F20104FFF79AFF0D206D46ADF80000FB
:101620000026A4F5E05029468DF80360FEF7BCFFC4
:101630000320ADF80000A4F5C05029468DF80360E2
:10164000FEF7B2FF0825C4F202052846FEF714FE95
:1016500001200121FFF762FF42F24C40C4F2010079
:10166000009040F21800C2F20000CDE9010680208F
:1016700005904FF4807006904FF480600790202012
:1016800008904FF400500527CDE909066946284621
:10169000CDE90376FEF776FE28460121FEF7E0FD50
:1016A0004FF400700121FFF751FF4FF460200290CA
:1016B00040F20110ADF804006946204603960096FA
:1016C0008DF81070FEF75AFD4FF44040FFF71CFFF5
:1016D0002046022101220723FEF77AFD204603213E
:1016E00002220723FEF774FD204608210322072368
:1016F000FEF76EFD2046092104220723FEF768FD50
:101700002046002105220723FEF762FD2046012125
:10171000FEF722FD20460121FEF716FD1E20FEF7F2
:1017200031FF2046FEF784FD2046FEF723FD00280A
:10173000FAD12046FEF78CFD2046FEF717FD002863
:10174000FAD120460121FEF779FD0BB0F0BD000073
:10175000704700007047000082B041F20400C4F2FC
:10176000020050F8041C002241F0010140F8041C62
:101770000168CFF6FF021140016050F8041C4FF6DB
:10178000FF72CFF6F662114040F8041C50F8041CBA
:1017900021F4802140F8041C016821F4FE0101605D
:1017A0004FF41F01416000210191009150F8041C89
:1017B00041F4803140F8041C50F8041C01F400315D
:1017C0000091019901310191009919B90199B1F57F
:1017D000A06FF1D150F8041C890354BF00210121EE
:1017E00000910099012936D142F20001C4F20201B0
:1017F0000A6842F010020A600A6822F003020A60D6
:101800000A6842F002020A60016801600168016032
:10181000016841F480610160016821F47C1101607C
:10182000016841F4E811016050F8041C41F0807136
:1018300040F8041C50F8041C8901FBD5016821F014
:1018400003010160016841F002010160016801F0DB
:101850000C010829FAD14EF60850CEF200004FF0E4
:101860000061016002B0704780B54FF080400121F7
:1018700000F060F8012818BF80BD40F22200C2F2DB
:10188000000001780131CAB2142A017003D300218B
:101890000170FFF77DF84FF080400121BDE88040E6
:1018A00000F03AB880B584B001200121FFF742FE74
:1018B0004FF0804000F052F840F2E730019040F2E3
:1018C0001B20009000208DF8080069464FF08040F2
:1018D00000F04AF84FF08040012100F019F84FF075
:1018E00080400121012200F031F84FF080400121B9
:1018F00000F016F84FF4A060FFF71EFB40F21C103A
:10190000C0F20210039003A8FFF7E6FA04B080BD0E
:10191000C943018270470000C9430182704700003B
:101920000288002918BF012122F001021144018020
:1019300070470000028A80890A4000EA010018BF4F
:101940000122002818BF012010407047002A828918
:101950000CBF22EA0101114381817047018921F006
:10196000070101817047000040F6FF33B0F800C066
:10197000C4F2000398420FDCB0F1804F1ED040F259
:101980000043C4F20003984218D040F60003C4F2AA
:101990000003984212D016E040F60043C4F2000360
:1019A00098420BD043F20043C4F20103984205D0A1
:1019B00042F60043C4F20103984204D14B882CF054
:1019C000700243EA020C41F2004240F48063C4F228
:1019D0000002934204D0CA882CF4407342EA030CFC
:1019E000A0F800C08A888285A0F18042A2F59632D4
:1019F0000B884FEAB222072A038507D8012303FA8E
:101A000002F212F0E50F1CBF097A018601218182E2
:101A10007047000010B543F60004C4F201042046EC
:101A200040F2255100F060F8012818BF10BD204693
:101A300000F0E6F840F22301C2F200010A78C0B2D9
:101A4000012A11D0AAB9402834D140F28900C2F24B
:101A50000000007870BB0120087040F22400C2F240
:101A600000000021017025E00D2817D10220087028
:101A700020E00A281ED10020087040F22401C2F2A2
:101A80000001097840F22502C2F20002505440F2EF
:101A90008900C2F20000012101700BE040F2240134
:101AA000C2F200010A7840F22503C2F20003985402
:101AB000501C0870204640F22551BDE8104000F04F
:101AC00001B80000090A012202FA01F1C9430180AC
:101AD000704700008289002918BF012122F40052BA
:101AE00042EA413181817047C1F34212022A06D095
:101AF000012A14BF00F1140200F10C0201E000F110
:101B000010021288008801F01F03090ADA40C84059
:101B1000104000F001007047C1F3421301F01F0CA8
:101B20001421022B08BF1021012B4FF0010308BF25
:101B30000C21002A03FA0CF243580CBF23EA0202DC
:101B40001A4342507047000070B586B00446008AC0
:101B50000D46C98820F4405008432082A0894EF6E3
:101B6000F3110840A9882A896B8908431043184358
:101B7000A081A08AA98920F44070084301AEA08208
:101B80003046FFF7EFFC43F6000106F10800C4F20F
:101B900001018C4208BF06F10C0000681922B4F95B
:101BA0000C1050432A680123B1F1FF3FC8BF022344
:101BB00002FA03F1B0FBF1F048F21F51C5F2EB114C
:101BC000A0FB01235A096FF0630302FB0300B4F981
:101BD0000C300326B3F1FF3FC8BF042600FA06F01D
:101BE00000F13200A0FB01014FF00700C8BF0F2039
:101BF00000EA511040EA0210208106B070BD0000DA
:101C000080886FF35F207047FEE70000F0B585B075
:101C1000042001210427FFF799FC43F6000440F259
:101C20000020C4F20104C1F60300A4F5405501AE42
:101C3000019028463146FEF7B7FC4FF48060ADF8BE
:101C40000400284631468DF80770FEF7ADFC4FF4CE
:101C500080400121FFF77AFC4FF4165001900020DC
:101C60004FF44021ADF81000CDE9020101A9204652
:101C7000FFF76AFF204640F225510122FFF74CFF93
:101C800020460121FFF726FF4FF4A060FFF754F92B
:101C900040F22510C0F20110019001A8FFF71CF9D5
:101CA00005B0F0BDFFF76EF9FEF7E8FEFEF746FE61
:101CB000FFF7ACFFFFF7A6FCFFF792F840F2150420
:101CC000C2F20004FEF732FE2070FEF77FFB4FF4F5
:101CD000FA70FEF739FCF5E702E008C8121F08C1E8
:101CE000002AFAD170477047002001E001C1121F9D
:101CF000002AFBD170470204060800000000010220
:101D000003040102030406070809000000000000A4
:101D100000000000000000000000000000F80000CB
:101D20000000000000333000000000100C06100C12
:101D30000600000000000000000040C07840C078AD
:101D40004000043F04043F040400007088FC083095
:101D50000000001820FF211E0000F008F000E0182D
:101D6000000000211C031E211E0000F008887000E6
:101D700000001E2123241927211010160E00000038
:101D800000000000000000000000000000E0180457
:101D90000200000000071820400000020418E000C4
:101DA00000000040201807000000404080F0804004
:101DB00040000202010F01020200000000F00000DA
:101DC00000000101011F01010100000000000000EE
:101DD000000080B070000000000000000000000063
:101DE00000000001010101010101000000000000EC
:101DF00000000030300000000000000000008060A3
:101E00001804006018060100000000E01008081027
:101E1000E000000F102020100F00001010F800004C
:101E200000000020203F20200000007008080888E3
:101E300070000030282422213000003008888848B3
:101E400030000018202020110E000000C02010F8E3
:101E5000000000070424243F240000F808888808B4
:101E600008000019212020110E0000E010888818B9
:101E70000000000F112020110E0000380808C8389B
:101E800008000000003F000000000070880808887B
:101E90007000001C222121221C0000E01008081004
:101EA000E0000000312222110F00000000C0C0003D
:101EB0000000000000303000000000000080000042
:101EC0000000000080600000000000008040201042
:101ED000080000010204081020004040404040403B
:101EE000400004040404040404000008102040809E
:101EF00000000020100804020100007048080808D3
:101F0000F0000000003036010000C030C828E810A2
:101F1000E0000718272423140B000000C038E0005D
:101F20000000203C23020227382008F888888870A7
:101F30000000203F202020110E00C03008080808B3
:101F40003800071820202010080008F8080808109A
:101F5000E000203F202020100F0008F88888E808C3
:101F60001000203F20202320180008F88888E80867
:101F70001000203F200003000000C030080808388F
:101F8000000007182020221E020008F808000008A0
:101F9000F808203F210101213F20000808F8080827
:101FA00000000020203F2020000000000808F80862
:101FB0000800C08080807F00000008F888C02818D2
:101FC0000800203F20012638200008F80800000003
:101FD0000000203F20202020300008F8F800F8F80A
:101FE0000800203F003F003F200008F830C00008F4
:101FF000F808203F200007183F00E01008080810EC
:10200000E0000F10202020100F0008F80808080832
:10201000F000203F210101010000E0100808081035
:10202000E0000F18242438504F0008F8888888886A
:102030007000203F2000030C302000708808080842
:1020400038000038202121221C00180808F8080850
:1020500018000000203F2000000008F808000008D9
:10206000F808001F202020201F000878880000C8E2
:102070003808000007380E010000F80800F80008D2
:10208000F800033C0700073C0300081868808068DC
:10209000180820302C03032C30200838C800C8381A
:1020A00008000000203F2000000010080808C83881
:1020B00008002038262120201800000000FE02021F
:1020C00002000000007F40404000000C30C00000D3
:1020D0000000000000010638C00000020202FE00FD
:1020E0000000004040407F000000000004020202A7
:1020F00004000000000000000000000000000000DC
:1021000000008080808080808080000202040000C7
:1021100000000000000000000000000080808080BF
:1021200000000019242222223F2008F800808000AD
:102130000000003F112020110E0000000080808070
:102140000000000E11202020110000000080808877
:10215000F800000E112020103F20000080808080B9
:102160000000001F222222221300008080F08888B5
:1021700088180020203F2020000000008080808000
:102180008000006B94949493600008F80080808035
:102190000000203F210000203F2000809898000090
:1021A00000000020203F20200000000000809898C0
:1021B000000000C08080807F000008F80000808060
:1021C0008000203F24022D302000000808F8000085
:1021D00000000020203F2020000080808080808040
:1021E0008000203F20003F20003F808000808080D2
:1021F0000000203F210000203F20000080808080E0
:102200000000001F202020201F0080800080800010
:10221000000080FFA12020110E00000000808080BF
:102220008000000E112020A0FF8080808000808030
:10223000800020203F21200001000000808080805D
:1022400080000033242424241900008080E0808052
:1022500000000000001F202000008080000000809F
:102260008000001F202020103F2080808000008000
:10227000808000010E300806010080800080008010
:1022800080800F300C030C300F00008080008080B5
:1022900080000020312E0E312000808080000080E0
:1022A000808080818E701806010000808080808090
:1022B00080000021302C2221300000000000807CB2
:1022C000020200000000003F404000000000FF004C
:1022D000000000000000FF0000000002027C8000FF
:1022E00000000040403F0000000000060101020223
:1022F000040400000000000000000000202300088B
:102300000000002008000000D81C00082823000856
:102310000800002088040000E81C000800000000FD
:082320000200000000000000B3
:04000005080000ED02
:00000001FF
