:020000040800F2
:10000000A80400200101000819160008450E000888
:1000100015160008410900088127000800000000AB
:10002000000000000000000000000000B5220008F1
:10003000850C0008000000008D1F0008B922000890
:100040001B0100081B0100081B0100081B01000820
:100050001B0100081B0100081B0100081B01000810
:100060001B0100081B0100081B0100081B01000800
:100070001B0100081B0100081B0100081B010008F0
:100080001B0100081B0100081B0100081B010008E0
:100090001B0100081B0100081B0100081B010008D0
:1000A0001B0100081B0100081B0100081B010008C0
:1000B000CD2300081B0100081B0100081B010008DC
:1000C0001B0100081B0100081B0100081B010008A0
:1000D0001B010008792500081B0100081B0100080E
:1000E0001B0100081B0100081B010008DFF80CD0F1
:1000F00000F058FB0048004759280008A8040020D9
:100100000648804706480047FEE7FEE7FEE7FEE7B1
:10011000FEE7FEE7FEE7FEE7FEE7FEE7BD2200089A
:10012000ED00000880EA010210B502F00043400033
:1001300022D04A001FD0010E01EB1261C0F356001D
:10014000C2F3560240F4000042F40002A0FB022079
:1001500000047F39140400D0401C50EA124001D43E
:100160004000491EC2B20C0604EBD010401C4008EF
:10017000802A02D003E0002010BD20F001000029F9
:1001800000DA0020184310BD30B480EA010202F00A
:10019000004530F0004221F0004013D090B1C30D73
:1001A000D40DC2F31601C0F31600E41A41F40001A5
:1001B00040F400027D34914201D3641C00E0490008
:1001C000002C02DA30BC002070474FF400000023FE
:1001D000914201D3891A034340084FEA4101F7D104
:1001E00051B1914202D14FF0004105E002D24FF0EF
:1001F000010101E06FF0010103EBC450284430BC61
:1002000000F0F6B82DE9FE4F81EA030404F0004443
:1002100021F0004100944FF0000B23F0004350EA1E
:1002200001045ED052EA03045BD0C3F30A54C1F365
:100230000A552C44A4F2F3340194A0FB0254C1F3F8
:10024000130141F48011C3F3130343F4801301FB42
:10025000024400FB034E840A970A44EA815447EAA9
:100260008357A4FB076802958D0A05FB07854FEAB3
:10027000932C04FB0C542705029D4FEA065847EACD
:100280001637B5EB08056EEB070C870E920E47EAA2
:10029000811742EA8312A7FB0201B6EB0B0164EB64
:1002A00000042B0D43EA0C335E1844EB1C50DA4675
:1002B0005146E7FB0201C5F313044FEA0B3343EA4F
:1002C00014534FEA0432019C43EA0603A4F10C04E0
:1002D0000294009CCDE900B400F0D0F803B0BDE872
:1002E000F08F00200146F9E70EB540F2334102914C
:1002F0000021CDE900110A460B4600F0BFF803B01B
:1003000000BD20F00040C10DC0F3160040F4000015
:100310007F2901DA00207047962903DCC1F196019C
:10032000C840704796398840704701F0004330B4A8
:1003300021F0004150EA010206D00A0DA2F56072D8
:10034000C1F31301002A02DC30BC00207047440FC7
:1003500044EAC104C100E01830BC00EBC25000F018
:1003600047B830B50B46014600202022012409E0A1
:1003700021FA02F59D4205D303FA02F5491B04FA5E
:1003800002F52844151EA2F10102F1DC30BD2DE971
:10039000F05F0546002092469B4688460646814609
:1003A00040241BE0284641464746224600F01BFAFF
:1003B00053465A46C01A914110D311461846224658
:1003C00000F002FA2D1A67EB01084F462246012081
:1003D000002100F0F9F917EB00094E41201EA4F1AD
:1003E0000104DFDC484631462A464346BDE8F09F1B
:1003F0000029A8BF7047401C490008BF20F0010039
:10040000704710B4B0FA80FC00FA0CF050EA010416
:1004100004BF10BC704749B1CCF1200421FA04F4A8
:1004200011FA0CF118BF012121430843A3EB0C0181
:10043000CB1D4FEA00614FEA102042BF002010BCE4
:10044000704700EBC35010440029A4BF10BC704794
:10045000401C490008BF20F0010010BC704710B5D7
:10046000141E73F1000408DA401C41F100019218D7
:100470005B411A4301D120F0010010BD2DE9F04D80
:1004800092469B4611B1B1FA81F202E0B0FA80F2D5
:100490002032904600F098F904460F4640EA0A00E0
:1004A00041EA0B0153465A46084313D0114653EA1A
:1004B000010019D0C8F14002504600F094F90546F9
:1004C0000E4650465946424600F07EF9084305D094
:1004D000012004E020463946BDE8F08D00200543A8
:1004E00046EAE0762C4337430A986305E40AA0EB1A
:1004F00008000022FD0A44EA47540A3002D50020D1
:100500000146E9E7010510196941DDE908450019CF
:100510006941BDE8F04DA2E72DE9FE4F804681EA32
:100520000300C00F0C46009021F0004123F000456D
:10053000B8EB0200A94105D24046214690461C4630
:100540000B46024623F00040104347D0270DC7F367
:100550000A00C3F30A510290401A019040286BDA56
:10056000C3F3130040F4801B0098924620B100238F
:10057000D2EB030A63EB0B0B01985946C0F1400222
:10058000504600F021F906460D4650465946019A5C
:1005900000F039F910EB08006141002487EA11529C
:1005A00084EAE7731A4340D0009A62B3019A012AA1
:1005B0004FEA075215DC001B61EB02014FF00042CD
:1005C00002EA0752CDE90042001C41F58011324693
:1005D0002B46FFF753FF03B0BDE8F08F404621469E
:1005E000F9E7001B61EB0201001C41F580130018C4
:1005F0005B412018A2F5001747EB030140EAD570D4
:10060000B6196D4111E06D084FEA360645EAC0752E
:100610004FEA0752001B61EB0201001C41F58011FB
:1006200049084FEA30000019514132462B4603B0C9
:10063000BDE8F04FFFF713BF0098012240000023F0
:10064000D0EB020263EBE073009821464FEAE074BE
:10065000B8EB000061EB0401E9E783F000435BE7DE
:1006600081F0004158E72DE9F04D81EA030404F0E0
:10067000004B21F0004514464FF0000A23F00041E2
:1006800050EA050220D054EA01021DD0C5F30A57F2
:100690000246C5F31303C1F31300C1F30A5640F435
:1006A000801543F48013A7EB0608101BD64608F20A
:1006B000FD3873EB050002D308F1010801E0921840
:1006C0005B41B8F1000F03DA00200146BDE8F08D70
:1006D00000204FF48011064684460EE0171B73EB92
:1006E000050705D3121B63EB050306434CEA010C17
:1006F00049084FEA300092185B4150EA0107EDD1FA
:1007000052EA030012D082EA040083EA050108439A
:1007100005D0101BAB4106D20122002306E00022C7
:100720004FF0004302E06FF0010253101AEB060095
:100730004CEB085110EB0A0041EB0B01BDE8F04D0A
:10074000FFF78DBEC1F30A52C1F3130140F2FF332C
:1007500041F480119A4202DA00200146704740F2CB
:1007600033439A42A2F2334202DC524200F03BB8D9
:1007700000F02AB830B5041E71F1000404DB4FF01C
:100780000044404264EB0101141E73F1000405DBD8
:100790001C464FF00043524263EB0403994208BFEA
:1007A000904230BD064C074D06E0E06840F0010382
:1007B00094E8070098471034AC42F6D3FFF79AFC50
:1007C000CC370008EC370008202A04DB203A00FA76
:1007D00002F1002070479140C2F1200320FA03F398
:1007E000194390407047202A04DB203A21FA02F096
:1007F0000021704721FA02F3D040C2F1200291405B
:10080000084319467047202A06DBCB17203A41FAE5
:1008100002F043EAE07306E041FA02F3D040C2F18D
:100820002002914008431946704700008268002961
:1008300022F0010218BF01328260704782680029ED
:1008400022F4807218BF02F5807282607047000047
:100850008068C0F3800070478068C0F3C0007047B4
:1008600080B542684FF6FF63CFF6F07302EA030CDF
:100870000B680A7943EA0C0343EA02224260826869
:100880004FF2FD73CFF6F17302EA030CD1E902E2F5
:100890004B7942EA0C0242EA0E0242EA43028260CB
:1008A000C26A097C22F470020139C9B242EA0151DC
:1008B000C16280BDB0B501EB410C4FF0100E0929AB
:1008C00088BFACF11E0C88BF4FF00C0E50F80E40E4
:1008D000072505FA0CF5AC4303FA0CF3234340F863
:1008E0000E30062A02EB820303D834306FF0040284
:1008F00007E00C2A87BF2C306FF0400230306FF0D9
:1009000022021A4403681F259540AB4391401943C6
:100910000160B0BD816841F008018160704700004E
:100920008268002922F4A00218BF02F5A0028260AA
:1009300070470000816841F0040181607047000049
:10094000FEE7000002684FF6FE7C42F0010300293A
:1009500008BF02EA0C0303607047000002684FF60C
:10096000FE731A407F230421C4F20203C4F2020181
:10097000026000229842026042608260C26016DC1F
:100980004322C4F2020290422CDC0822C4F202028A
:10099000904251D01C22C4F2020290424ED030222A
:1009A000C4F2020290425ED14FF4706058E040F20F
:1009B0002F42C4F20202904226DC8022C4F20202DC
:1009C00090423DD040F20842C4F2020290423AD036
:1009D00040F21C42C4F20202904244D101F580610F
:1009E000F0203DE04422C4F20202904236D0582268
:1009F000C4F2020290421CD06C22C4F20202904265
:100A000031D14FF470002BE040F23042C4F20202C8
:100A100090421CD040F24442C4F2020290421BD0E9
:100A200040F25842C4F20202904218BF704701F5EA
:100A300080614FF4702013E00F2011E0F0200FE0F0
:100A40004FF070600CE001F580610F2008E001F5C7
:100A500080614FF4706003E001F580614FF47040F5
:100A60000A681043086070472DE9F047026847F6AE
:100A7000F073D1E9026A9A4301F11007B0CF01F196
:100A80001C0E3243D1E900899EE80A501A432243E2
:100A90002A433A43114341EA0C0141EA0E01016045
:100AA000C0F804A0C0F80880C0F80C90BDE8F0873A
:100AB000B0B540F22500C2F20000007840F22704F1
:100AC0000138C0B20228C2F2000408D80121C000D7
:100AD000C0F2020121FA00F500F07CFF25702078B9
:100AE00002284CD001285ED0002840F0948040F2CB
:100AF0009C04C2F20004204601F0C8FA52A2012070
:100B0000012101F00BF954A20220012101F006F9A4
:100B100052A20220092101F001F951A20320012172
:100B200001F0FCF84FA20320092101F0F7F84EA2D2
:100B30000420012101F0F2F8A288022004210323FD
:100B400001F06EF8228802200C21032301F068F8DE
:100B5000E28803200421032301F062F86288032065
:100B60000C21032301F05CF8A068FFF7CAFB0246E2
:100B700004200A210323BDE8B04001F051B829A2A6
:100B80000120032101F0CAF800F0AEFC40F2240578
:100B90000246C2F200050220012102232A70BDE8AC
:100BA000B04001F00BB823A20120012101F0B6F8FA
:100BB00040F21804C2F20004204600F02FFBB4F902
:100BC000002002200121052301F064F8B4F902207D
:100BD00002200921052301F05DF8B4F90420032067
:100BE0000121052301F056F8B4F90620032009215C
:100BF000052301F04FF8B4F9082004200121052352
:100C000001F048F8B4F90A20042009210523BDE8C1
:100C1000B04001F03FB817A201200121BDE8B0406B
:100C200001F07CB8204D50553630353020494420F5
:100C300021000000204D5055363035302056616C73
:100C4000756520210000000020526F636B657220E3
:100C500056616C75652021004C583A0052583A0094
:100C60004C593A0052593A00426174746572793AAB
:100C70000000000053656C656374204552524F526A
:100C8000202100007047000010B5002808BF10BDEB
:100C90004EF2100141F6401CCEF20001C0F2010CF0
:100CA0004FF0000E05220423C1F804C0C1F808E08B
:100CB0000A6000BF0C68E403FCD501380B60F3D177
:100CC00010BD00004EF2100100EBC000CEF200019A
:100CD000C000486000208860052008600868C003E4
:100CE000FCD50420086070472DE9F047CA7802F06F
:100CF0000F0CD30644BF8B784CEA030C09880B0613
:100D000025D082465AF8144B00F1100E00254FF002
:100D100001094FF00F08002706E000BF1E600137F1
:100D2000082F05F1040511D009FA07F60E42F6D096
:100D300008FA05F324EA03030CFA05F41C43282AF5
:100D40005346EBD0482AEAD17346E7E70460B1F591
:100D5000807F38BFBDE8F087436800F1100E00F1D6
:100D6000140900254FF4807A4FF00F08002705E0A2
:100D700034600137082F05F1040512D00AFA07F490
:100D800004EA0106A642F4D108FA05F6B3430CFAC8
:100D900005F63343282A4E46EAD0482AE9D176465A
:100DA000E6E74360BDE8F087B0B50422C4F2010273
:100DB000134602F1180E002848BF73461C6800F461
:100DC0004013B3F5401F1FFA80FC06D1156824F0CC
:100DD000706325F07064146015E0C3020AD46FF0EC
:100DE0000F0303EA50430CFA03F324EA030343F02E
:100DF000706308E0C0F30343032505FA03F324EA14
:100E0000030343F070636FF00F0404EA50440029B9
:100E10000CFA04F518BF2B43002848BF7246136034
:100E2000B0BD00008068084018BF01207047000076
:100E300041617047016170471023002A08BF1423E5
:100E4000C1507047FEE7000010B582B004200121B8
:100E500001F0C0F841F6000040F60004C1F2034082
:100E6000C4F20104019001A92046FFF73DFF20468E
:100E70004FF4C051FFF7DEFF02B010BDB0B540F631
:100E80000004C4F2010420464FF480510122FFF710
:100E9000D3FF0A20FFF716FF20464FF4006101221E
:100EA000FFF7CAFF0A20FFF70DFF20464FF48051DD
:100EB000FFF7B8FF05460A20FFF704FF20464FF46E
:100EC00000610022FFF7B8FF0A20FFF7FBFE28466B
:100ED000B0BD00002DE9F04140F600040026C4F248
:100EE00001044FF08008002720464FF400610122E2
:100EF000FFF7A2FF0A20FFF7E5FE20464FF48051DE
:100F0000FFF790FF05460A20FFF7DCFE28FA06F0FF
:100F1000002D18BF074320464FF400610022FFF761
:100F20008BFF0A20FFF7CEFE0136082EDCD1F8B287
:100F3000BDE8F08110B540F60004C4F20104024699
:100F400020464FF48051FFF777FF0A20FFF7BAFEE3
:100F500020464FF400610122FFF76EFF0A20FFF7E1
:100F6000B1FE20464FF400610022FFF765FF0A2022
:100F7000BDE81040FFF7A6BEF0B581B040F6000511
:100F800004460026C4F20105802700BF27FA06F0B8
:100F900000EA040228464FF48051FFF74DFF0A2073
:100FA000FFF790FE28464FF400610122FFF744FF4F
:100FB0000A20FFF787FE28464FF400610022FFF762
:100FC0003BFF0A20FFF77EFE0136082EDED101B07E
:100FD000F0BD000010B540F60004C4F20104204644
:100FE0004FF480510122FFF727FF0A20FFF76AFE26
:100FF00020464FF400610122FFF71EFF0A20FFF791
:1010000061FE20464FF480510022FFF715FF0A20B1
:10101000FFF758FE20464FF400610022FFF70CFF57
:101020000A20BDE81040FFF74DBE000010B540F6A5
:101030000004C4F2010420464FF480510022FFF75F
:10104000FBFE0A20FFF73EFE20464FF4006101221E
:10105000FFF7F2FE0A20FFF735FE20464FF48051DD
:101060000122FFF7E9FE0A20BDE81040FFF72ABE83
:1010700040F22601C2F20001087800220A7070478F
:10108000B0B582B001F0C0F91C20012100F0A2FF30
:1010900048F2F21040F60004C4F60300C4F2010462
:1010A00001AD019020462946FFF71EFE4FF4E050A7
:1010B000ADF8040004F580602946FFF715FE4FF4F3
:1010C0000050ADF8040004F500602946FFF70CFE5F
:1010D00002B0B0BDB0B540F60004C4F2010404F59E
:1010E00000604FF40051FFF79DFEE8B320464FF437
:1010F0000041FFF797FEC8B320460221FFF792FE9A
:10110000B0B304F5806528464FF48051FFF78AFE9E
:1011100080B320462021FFF785FE68B320461021CA
:10112000FFF780FE50B320464021FFF77BFE38B327
:1011300020468021FFF776FE20B328464FF48061D9
:10114000FFF770FE00B320464FF48071FFF76AFE90
:10115000E0B128464FF40061FFF764FE6FF007012D
:10116000002808BF032112E0092110E00A210EE047
:101170000B210CE00C210AE00D2108E00E2106E015
:101180000F2104E0002102E0012100E0022101F032
:101190000F004FF60F61C140C90708BFB0BD04A1E1
:1011A000085C40F22601C2F200010870B0BD00BF29
:1011B00008090A0B010101010101020304050607E8
:1011C00070B582B01820012100F004FF41F2000444
:1011D0000820C4F20104C1F20300A4F5806501AE49
:1011E000019028463146FFF77FFD4FF44040ADF8AF
:1011F000040020463146FFF777FD28460821FFF717
:1012000019FE20464FF48041FFF714FE20464FF4AC
:101210000041FFF70FFE02B070BD0000B0B50446FC
:10122000FFF7D8FED020FFF7A7FEFFF727FE3B20F1
:10123000FFF7A2FEFFF722FEFFF7CCFED120FFF75B
:101240009BFEFFF71BFEFFF745FE05460120FFF75B
:1012500071FEFFF7EBFE28022080FFF7BBFED020D7
:10126000FFF78AFEFFF70AFE3C20FFF785FEFFF737
:1012700005FEFFF7AFFED120FFF77EFEFFF7FEFD74
:10128000FFF728FE05460120FFF754FEFFF7CEFECC
:10129000208828432080FFF79DFED020FFF76CFEBA
:1012A000FFF7ECFD3D20FFF767FEFFF7E7FDFFF7D7
:1012B00091FED120FFF760FEFFF7E0FDFFF70AFE89
:1012C00005460120FFF736FEFFF7B0FE28026080DA
:1012D000FFF780FED020FFF74FFEFFF7CFFD3E2047
:1012E000FFF74AFEFFF7CAFDFFF774FED120FFF7B4
:1012F00043FEFFF7C3FDFFF7EDFD05460120FFF7B5
:1013000019FEFFF793FE608828436080FFF762FEB6
:10131000D020FFF731FEFFF7B1FD3F20FFF72CFE95
:10132000FFF7ACFDFFF756FED120FFF725FEFFF7D4
:10133000A5FDFFF7CFFD05460120FFF7FBFDFFF7F9
:1013400075FE2802A080FFF745FED020FFF714FEAF
:10135000FFF794FD4020FFF70FFEFFF78FFDFFF72B
:1013600039FED120FFF708FEFFF788FDFFF7B2FD39
:1013700005460120FFF7DEFDFFF758FEA088284351
:10138000A080FFF727FED020FFF7F6FDFFF776FDE0
:101390004320FFF7F1FDFFF771FDFFF71BFED120A2
:1013A000FFF7EAFDFFF76AFDFFF794FD0546012010
:1013B000FFF7C0FDFFF73AFE2802E080FFF70AFEC4
:1013C000D020FFF7D9FDFFF759FD4420FFF7D4FDEA
:1013D000FFF754FDFFF7FEFDD120FFF7CDFDFFF72E
:1013E0004DFDFFF777FD05460120FFF7A3FDFFF751
:1013F0001DFEE0882843E080FFF7ECFDD020FFF7DA
:10140000BBFDFFF73BFD4520FFF7B6FDFFF736FDBF
:10141000FFF7E0FDD120FFF7AFFDFFF72FFDFFF74E
:1014200059FD05460120FFF785FDFFF7FFFD280266
:101430002081FFF7CFFDD020FFF79EFDFFF71EFDB7
:101440004620FFF799FDFFF719FDFFF7C3FDD120F7
:10145000FFF792FDFFF712FDFFF73CFD0546012067
:10146000FFF768FDFFF7E2FD208928432081FFF7A1
:10147000B1FDD020FFF780FDFFF700FD4720FFF70B
:101480007BFDFFF7FBFCFFF7A5FDD120FFF774FD07
:10149000FFF7F4FCFFF71EFD05460120FFF74AFDAC
:1014A000FFF7C4FD28026081FFF794FDD020FFF70D
:1014B00063FDFFF7E3FC4820FFF75EFDFFF7DEFC6E
:1014C000FFF788FDD120FFF757FDFFF7D7FCFFF7A7
:1014D00001FD05460120FFF72DFDFFF7A7FD6089FF
:1014E00028436081B0BD000010B5FFF773FDD02028
:1014F000FFF742FDFFF7C2FC7520FFF73DFDFFF748
:10150000BDFCFFF767FDD120FFF736FDFFF7B6FC06
:10151000FFF7E0FC04460120FFF70CFDFFF786FD16
:10152000204610BD80B5FFF78FFCFFF753FDD0209C
:10153000FFF722FDFFF7A2FC6B20FFF71DFDFFF771
:101540009DFC0120FFF718FDFFF798FCFFF76EFDEB
:10155000FFF740FDD020FFF70FFDFFF78FFC6C2059
:10156000FFF70AFDFFF78AFC0020FFF705FDFFF7F4
:1015700085FCFFF75BFDFFF72DFDD020FFF7FCFC9E
:10158000FFF77CFC1920FFF7F7FCFFF777FC07203B
:10159000FFF7F2FCFFF772FCFFF748FDFFF71AFDBB
:1015A000D020FFF7E9FCFFF769FC1A20FFF7E4FC05
:1015B000FFF764FC0620FFF7DFFCFFF75FFCFFF797
:1015C00035FDFFF707FDD020FFF7D6FCFFF756FCEF
:1015D0001B20FFF7D1FCFFF751FC1820FFF7CCFCD4
:1015E000FFF74CFCFFF722FDFFF7F4FCD020FFF7DC
:1015F000C3FCFFF743FC1C20FFF7BEFCFFF73EFCDB
:101600001820FFF7B9FCFFF739FCBDE88040FFF771
:101610000DBD0000FEE700007047000070B584B00B
:101620006FF03D008DF80C004FF0C23002900025A5
:1016300000208DF80450009500F034FE302000F0BA
:101640007BF802AC605D013500F076F8052DF9D12C
:10165000012000F027FE0020002600F023FE1020CD
:1016600000F06AF86D4600BFFF2000F065F8A8554D
:101670000136052EF8D1012000F014FE002000BF35
:10168000215C2A5C914204D1042800F10100F7D3C7
:1016900005200538B0FA80F0400904B070BD0000A4
:1016A00010B5FFF7BBFF78B90BA400BF204601F0CF
:1016B0000BF90A2001F082FD4FF47A70FFF7E4FA8B
:1016C000FFF7ACFF0028F1D009A001F0FDF80A20D7
:1016D000BDE8104001F072BD4E524632344C3031FC
:1016E0005F436865636B206661696C6564202100F7
:1016F0004E524632344C30315F436865636B207321
:1017000075636365656420210000000080B582B0C8
:101710000820012100F05EFC40F24010C1F20300FD
:10172000019040F60040C4F2010001A9FFF7DCFA85
:1017300000F08EFD02B080BD2DE9F04381B040F68F
:10174000004581460026C4F201054FF080080027BD
:1017500028FA06F404EA090228464FF40041FFF78C
:101760006BFB28464FF400510122FFF765FB28462A
:101770004FF48041FFF756FB012828464FF40051F3
:101780004FF0000208BF2743FFF756FB0136082E33
:10179000DED1F8B201B0BDE8F083000070B540F6CC
:1017A0000044C4F20104204640210022FFF744FB1C
:1017B000002000F077FD3020FFF7BEFF40F2090067
:1017C000C2F20000451E052615F8010FFFF7B4FF11
:1017D000013EF9D1012000F065FD002000F062FD1E
:1017E0002A20FFF7A9FF40F20400C2F20000451EC4
:1017F000052600BF15F8010FFFF79EFF013EF9D146
:10180000012000F04FFD002000F04CFD2120FFF7EB
:1018100093FF0120FFF790FF012000F043FD00201F
:1018200000F040FD2220FFF787FF0120FFF784FF33
:10183000012000F037FD002000F034FD2420FFF7E8
:101840007BFF1A20FFF778FF012000F02BFD00201E
:1018500000F028FD2520FFF76FFF2820FFF76CFF21
:10186000012000F01FFD002000F01CFD2620FFF7E6
:1018700063FF0F20FFF760FF012000F013FD002041
:1018800000F010FD2020FFF757FF0E20FFF754FF58
:10189000012000F007FD204640210122BDE87040F4
:1018A000FFF7CABA70B540F60044C4F20104054619
:1018B0002046402100220026FFF7BEFA002000F05B
:1018C000F1FCA020FFF738FF013D00BF15F8010F24
:1018D000FFF732FF1F2E06F10106F7D3012000F0BB
:1018E000E1FC204640210122FFF7A6FA20464FF4F2
:1018F0008071FFF797FA0028F8D1002000F0D2FCA1
:101900000720FFF719FFFF20FFF716FF044601200D
:1019100000F0C8FC002000F0C5FC2720FFF70CFFFA
:101920002046FFF709FF012000F0BCFCE00607D4C9
:10193000A0064FF0200058BF4FF0FF30C0B270BD7E
:10194000002000F0AFFCE120FFF7F6FEFF20FFF7DC
:10195000F3FE012000F0A6FC1020C0B270BD000014
:1019600010B5C17800294EF20011CEF200011AD054
:101970004EF60C52CEF200021268072323EA12221E
:101980000F23C2F1040C23FA02F24378847890F812
:1019900000E003FA0CF322401A43120101EB0E039C
:1019A00083F8002300E080310078012300F01F025B
:1019B00003FA02F2C0F3421041F8202010BD0000EB
:1019C00040F080604EF60C5140F0FD70CEF2000108
:1019D00008607047B0B5002444F0B000C0B200F019
:1019E000B3F9102000F0B0F90020002500F0ACF9A8
:1019F000002000F037FA681C45B2B5F1FF3FF7DC74
:101A0000E0B20134072828BFB0BDE5E7B0B582B029
:101A10000820012100F0DEFA0120012100F0DAFAAD
:101A200040F20020C0F230000121FFF7BDF9202074
:101A300040F60044C1F20340C4F2010401AD01903C
:101A400020462946FFF750F91020ADF80400204643
:101A50002946FFF749F9204620210122FFF7ECF93A
:101A6000204610210122FFF7E7F9AE2000F06CF9C3
:101A7000D52000F069F9802000F066F9A82000F078
:101A800063F93F2000F060F9D32000F05DF90020F9
:101A9000002400F059F9402000F056F9A12000F090
:101AA00053F9C82000F050F9DA2000F04DF9122067
:101AB00000F04AF9812000F047F9CF2000F044F906
:101AC000D92000F041F9F12000F03EF9DB2000F0D0
:101AD0003BF9302000F038F9A42000F035F9A620B9
:101AE00000F032F98D2000F02FF9142000F02CF9CD
:101AF000AF2000F029F900BF44F0B000C0B200F000
:101B000023F9102000F020F90020002500F01CF936
:101B1000002000F0A7F9681C45B2B5F1FF3FF7DCE3
:101B2000E0B201340728E7D302B0B0BD2DE9F0439D
:101B300081B016467E224FEA400802EB40006FF06B
:101B4000070240F0B00002EBC104C0B2E5B200F001
:101B5000FBF8280900F11009484600F0F5F804F0F8
:101B60000805284600F0F0F843F2DC10C0F600004B
:101B700000EB0616A6F20127082400BF17F8010F94
:101B800000F070F9013CF9D1A8F1010040F0B0007B
:101B9000C0B200F0D9F8484600F0D6F8284600F068
:101BA000D3F8A6F2F914082514F8010F00F05AF939
:101BB000013DF9D101B0BDE8F08300002DE9F0430B
:101BC00081B04BB31C469046894607465D420026CD
:101BD00016E000BF0120B8FBF0F006EB090100F0B1
:101BE0000F0000F137020A2838BF00F13002C9B2F5
:101BF0003846FFF79BFF0136A64205F101050BD0E1
:101C0000F0430019E6D00120294600BF01314A1CEB
:101C10004FEA0010FAD1DEE701B0BDE8F083000022
:101C20002DE9F047002B08BFBDE8F0874CF6CD4A00
:101C30001C469046894607465D420026CCF6CC4AB3
:101C400018E000BF0120B8FBF0F0A0FB0A12D20898
:101C500002EB8202A0EB420006EB090140F03000EB
:101C6000C2B2C9B23846FFF761FF0136A64205F19C
:101C700001050DD0F0430019E4D00120294600BF32
:101C800000EB800001314A1C4FEA4000F8D1DAE74E
:101C9000BDE8F0872DE9F0471C4691468846002AAA
:101CA000074603D42B22FFF741FF04E02D22FFF764
:101CB0003DFFC9F10009002C08BFBDE8F0874CF6D4
:101CC000CD4A66420025CCF6CC4A17E00120B9FB8C
:101CD000F0F00135A0FB0A12D20802EB8202A0EB61
:101CE000420005EB080140F03000C2B2C9B23846EC
:101CF000FFF71CFFA54206F101060DD0E8430019CD
:101D0000E4D00120314600BF00EB800001314A1CC5
:101D10004FEA4000F8D1DAE7BDE8F087F0B581B0CE
:101D2000144612786AB10D46064600277819C1B2EA
:101D3000D2B23046FFF7FAFE0137F8B2225C002A31
:101D4000F4D101B0F0BD0000F0B581B040F6004420
:101D5000C4F201040546204610210122FFF76CF869
:101D6000204620210122FFF767F82046102100229B
:101D70000026FFF761F8204620210022FFF75CF8DB
:101D8000802700BF27FA06F000F0780220461021D5
:101D9000FFF752F8204620210122FFF74DF8204698
:101DA00020210022FFF748F80136082EEAD120460C
:101DB00020210122FFF740F8204620210022FFF7D2
:101DC0003BF80826204610210022FFF735F8204670
:101DD00020210122FFF730F8204620210022FFF7C2
:101DE0002BF8013EEED1204620210122FFF724F8F6
:101DF0002046202100220026FFF71EF8802700BF82
:101E000027FA06F000EA050220461021FFF714F831
:101E1000204620210122FFF70FF820462021002232
:101E2000FFF70AF80136082EEAD1204620210122C8
:101E3000FFF702F8204620210022FEF7FDFF204692
:101E400010210022FEF7F8FF204620210122FEF794
:101E5000F3FF20461021012201B0BDE8F040FEF75B
:101E6000EBBF0000F0B581B040F60044C4F20104BD
:101E70000546204610210122FEF7DEFF20462021E4
:101E80000122FEF7D9FF2046102100220026FEF78E
:101E9000D3FF204620210022FEF7CEFF802700BF7F
:101EA00027FA06F000F0780220461021FEF7C4FF62
:101EB000204620210122FEF7BFFF204620210022DC
:101EC000FEF7BAFF0136082EEAD120462021012272
:101ED000FEF7B2FF2046202100220026FEF7ACFFCD
:101EE000802700BF27FA06F000F0400220461021AC
:101EF000FEF7A2FF204620210122FEF79DFF20468B
:101F000020210022FEF798FF0136082EEAD1204654
:101F100020210122FEF790FF2046202100220026EA
:101F2000FEF78AFF802700BF27FA06F000EA0502C5
:101F300020461021FEF780FF204620210122FEF7D7
:101F40007BFF204620210022FEF776FF0136082E77
:101F5000EAD1204620210122FEF76EFF20462021F3
:101F60000022FEF769FF204610210022FEF764FFE1
:101F7000204620210122FEF75FFF2046102101228A
:101F800001B0BDE8F040FEF757BF00007047000009
:101F900041F20401C4F202010A6822F440421043F3
:101FA00008607047002941F21401C4F202010A6876
:101FB0000CBF22EA0000104308607047002941F27C
:101FC0001C01C4F202010A680CBF22EA000010439F
:101FD00008607047002941F21801C4F202010A6842
:101FE0000CBF22EA000010430860704710B541F2B0
:101FF0000404C4F20204226802F00C02082A41F22E
:102000000022C0F27A021CD12368D4F800C0C3F3C6
:10201000834E5FEACC330EF1020C06D440F6001278
:10202000C0F23D020CFB02F20BE023689B0302D4DA
:102030000CFB02F205E040F60012C0F23D020CFB80
:1020400002F20260226843F2CC13C2F30312C0F61C
:1020500000039A5C0168D14041602268C2F3022209
:102060009A5C21FA02F282602268C2F3C2229A5C70
:1020700043F2C813D140C1602268C0F60003C2F326
:1020800081329A5CB1FBF2F1016110BD10B50446DA
:1020900040F22800C2F20000818864225143090BFB
:1020A0002180C1885143090B618001885143090B8C
:1020B000A18041885143090BE1800089FEF714F9A2
:1020C00046F26663C4F20A034FF06632FEF79AF8EE
:1020D0000023C3F630730022FEF794F8FEF725F9CB
:1020E0000021C4F24001FEF71DF84CF6CD41C4F2C8
:1020F0006C01FEF749F80021C4F2C821FEF712F87E
:10210000A06010BDF0B58BB042F200440C2001215C
:10211000C4F20104FFF75EFF0D206D46ADF800002C
:102120000026A4F5E05029468DF80360FEF7DCFD9B
:102130000320ADF80000A4F5C05029468DF80360D7
:10214000FEF7D2FD0825C4F202052846FEF706FC7C
:1021500001200121FFF726FF42F24C40C4F20100AA
:10216000009040F22800C2F20000CDE90106802074
:1021700005904FF4807006904FF480600790202007
:1021800008904FF400500527CDE909066946284616
:10219000CDE90376FEF768FC28460121FEF7D2FB65
:1021A0004FF400700121FFF715FF4FF460200290FB
:1021B00040F20110ADF804006946204603960096EF
:1021C0008DF81070FEF74CFB4FF44040FFF7E0FE37
:1021D0002046022101220723FEF76CFB2046032143
:1021E00002220723FEF766FB20460821032207236D
:1021F000FEF760FB2046092104220723FEF75AFB65
:102200002046002105220723FEF754FB204601212A
:10221000FEF714FB20460121FEF708FB1E20FEF707
:1022200051FD2046FEF776FB2046FEF715FB002801
:10223000FAD12046FEF77EFB2046FEF709FB002878
:10224000FAD120460121FEF76BFB0BB0F0BD000078
:10225000B0B582B008200121FFF7BCFE4AF2800031
:1022600040F60044C1F20300C4F2010401AD019044
:1022700020462946FEF738FD44F20000C4F603006C
:10228000019020462946FEF72FFD2046802101229D
:10229000FEF7D2FD20464FF400510022FEF7CCFDA0
:1022A00002B0B0BD024640F60040C4F201008021F9
:1022B000FEF7C2BD704700007047000082B041F2D7
:1022C0000400C4F2020050F8041C002241F0010195
:1022D00040F8041C0168CFF6FF021140016050F87D
:1022E000041C4FF6FF72CFF6F662114040F8041C52
:1022F00050F8041C21F4802140F8041C016821F4EA
:10230000FE0101604FF41F01416000210191009125
:1023100050F8041C41F4803140F8041C50F8041CAF
:1023200001F400310091019901310191009919B92D
:102330000199B1F5A06FF1D150F8041C890354BF85
:102340000021012100910099012936D142F20001BA
:10235000C4F202010A6842F010020A600A6822F020
:1023600003020A600A6842F002020A600168016022
:1023700001680160016841F480610160016821F435
:102380007C110160016841F4E811016050F8041CFF
:1023900041F0807140F8041C50F8041C8901FBD501
:1023A000016821F003010160016841F00201016050
:1023B000016801F00C010829FAD14EF60850CEF25E
:1023C00000004FF00061016002B0704780B54FF02F
:1023D0008040012100F060F8012818BF80BD40F264
:1023E0003200C2F2000001780131CAB2142A017031
:1023F00003D300210170FEF76DFE4FF080400121F4
:10240000BDE8804000F03AB880B584B001200121D9
:10241000FFF7D4FD4FF0804000F052F840F2E73073
:10242000019040F21B20009000208DF808006946C2
:102430004FF0804000F04AF84FF08040012100F05A
:1024400019F84FF080400121012200F031F84FF0DF
:102450008040012100F016F84FF4A060FFF7B0FAB9
:1024600040F21C10C0F20210039003A8FFF778FAA4
:1024700004B080BDC943018270470000C943018296
:10248000704700000288002918BF012122F00102D4
:102490001144018070470000028A80890A4000EAE6
:1024A000010018BF0122002818BF0120104070470A
:1024B000002A82890CBF22EA010111438181704701
:1024C000018921F0070101817047000040F6FF33C8
:1024D000B0F800C0C4F2000398420FDCB0F1804FA6
:1024E0001ED040F20043C4F20003984218D040F6D8
:1024F0000003C4F20003984212D016E040F60043F5
:10250000C4F2000398420BD043F20043C4F201032B
:10251000984205D042F60043C4F20103984204D128
:102520004B882CF0700243EA020C41F2004240F466
:102530008063C4F20002934204D0CA882CF4407332
:1025400042EA030CA0F800C08A888285A0F180428C
:10255000A2F596320B884FEAB222072A038507D8E4
:10256000012303FA02F212F0E50F1CBF097A01867B
:10257000012181827047000010B543F60004C4F2C7
:102580000104204640F2255100F066F8012818BFEA
:1025900010BD204600F0ECF840F23301C2F2000119
:1025A0000A78C0B2012A11D0AAB9402834D140F229
:1025B0009900C2F20000007870BB0120087040F260
:1025C0003400C2F200000021017025E00D2817D16F
:1025D0000220087020E00A281ED10020087040F276
:1025E0003401C2F20001097840F23502C2F2000261
:1025F000505440F29900C2F20000012101700BE03A
:1026000040F23401C2F200010A7840F23503C2F20E
:1026100000039854501C0870204640F22551BDE834
:10262000104000F001B80000090A012202FA01F18D
:10263000C9430180704700008289002918BF012129
:1026400022F4005242EA41318181704700880840FB
:1026500018BF012070470000C1F34212022A06D0C1
:10266000012A14BF00F1140200F10C0201E000F194
:1026700010021288008801F01F03090ADA40C840DE
:10268000104000F001007047C1F3421301F01F0C2D
:102690001421022B08BF1021012B4FF0010308BFAA
:1026A0000C21002A03FA0CF243580CBF23EA020261
:1026B0001A4342507047000070B586B00446008A45
:1026C0000D46C98820F4405008432082A0894EF668
:1026D000F3110840A9882A896B89084310431843DD
:1026E000A081A08AA98920F44070084301AEA0828D
:1026F0003046FFF77BFC43F6000106F10800C4F208
:1027000001018C4208BF06F10C0000681922B4F9DF
:102710000C1050432A680123B1F1FF3FC8BF0223C8
:1027200002FA03F1B0FBF1F048F21F51C5F2EB11D0
:10273000A0FB01235A096FF0630302FB0300B4F905
:102740000C300326B3F1FF3FC8BF042600FA06F0A1
:1027500000F13200A0FB01014FF00700C8BF0F20BD
:1027600000EA511040EA0210208106B070BD00005E
:1027700080886FF35F2070476FF35F21818070471F
:10278000FEE70000F0B585B0042001210427FFF723
:1027900021FC43F6000440F20020C4F20104C1F61B
:1027A0000300A4F5405501AE019028463146FEF7DE
:1027B0009BFA4FF48060ADF80400284631468DF84E
:1027C0000770FEF791FA4FF480400121FFF702FCF9
:1027D0004FF4E130019000204FF44021ADF810009B
:1027E000CDE9020101A92046FFF766FF204640F22D
:1027F00025510122FFF748FF20460121FFF71CFF6A
:102800004FF4A060FFF7DCF840F22510C0F2011091
:10281000019001A8FFF7A4F805B0F0BDB0B543F6EC
:10282000000504460A28C4F2010509D128460D21F5
:10283000FFF7A2FF28468021FFF708FF0028F9D004
:10284000E1B22846FFF798FF28468021FFF7FEFEF9
:102850000028F9D02046B0BDFFF7D8F8FEF7B0FC4D
:10286000FEF70EFCFFF78EFFFFF74CFCFEF75AFE5B
:10287000FEF74CFFFEF714FFFEF790FF40F20E004C
:10288000C2F20000FFF70EF820280FD140F60044F6
:10289000C4F2010420460821FEF7CAFA4FF4FA7088
:1028A000FEF7F2F920460821FEF7C4FA40F22504AB
:1028B000C2F20004FEF7DCFB2070FEF7F9F84FF4DB
:1028C000FA70FEF7E1F9F5E70FB4054B10B503A96F
:1028D000044A029800F0DAF810BC5DF814FB00001E
:1028E0001D2800080000002002E008C8121F08C1CF
:1028F000002AFAD170477047002001E001C1121F81
:10290000002AFBD1704700002DE9FF5F82B0002153
:10291000DDE90430020DDDF840B0034318D044F681
:102920001050A2F2FF3242431514119801281FD013
:10293000A5EB0B00401C5FEA000A4FF000064E4F6B
:10294000DFF83891B046504615D5CAF1000413E0BF
:10295000119801244AA3012801D16FEA0B010298C2
:10296000119AC0E90031C0E9024206B0BDE8F09F0B
:10297000CBF10000DFE704460021404A491842EB52
:102980000450CDE9001012E0E00707D032463B4684
:1029900040464946FDF736FC8046894632463B466E
:1029A00010461946FDF72EFC06460F466410002C13
:1029B000EAD1DDE90401DDE90023BAF1000F06DA0E
:1029C000FDF720FC42464B46FDF71CFC05E0FDF7F9
:1029D0004AFE42464B46FDF746FE04460E4600229E
:1029E000284BFDF7C7FE03D84FF0FF30014607E044
:1029F0000022254B20463146FDF78EFDFDF7A2FE55
:102A0000102409E0002C0ADB0A220023FDF7BFFC9A
:102A1000039B30321A55641E50EA0102F2D1641C45
:102A2000039AC4F111031444119A012A03D001221C
:102A300008430DD10AE0084304D000204FF0110BE9
:102A4000119072E7A3EB0B056D1E0DE05B4504DDF5
:102A50004FF0000205F1010504E003DA4FF0000237
:102A6000A5F10105002AECD002981199C0E90231C4
:102A7000C0E9004579E70000000014400000F03F85
:102A8000300000000000F0430000E03F2DE9FF4F60
:102A900095B09B468946064600250FE2252877D14A
:102AA00000242746F84A0121059400E0044316F863
:102AB000013F203B01FA03F01042F7D130782A2879
:102AC00011D06FF02F033078A0F13002092A16D808
:102AD000059A44F0020402EB820203EB4202104426
:102AE000761C0590EFE759F8042B0592002A03DACB
:102AF000504244F40054059044F00204761C3078AF
:102B00002E2816D116F8010F44F004042A280DD0FF
:102B10006FF02F023078A0F13003092B09D807EBB2
:102B2000870302EB4303C718761CF3E759F8047BCD
:102B3000761C30786C280FD006DC4C2817D068281B
:102B40000DD06A2814D104E0742810D07A280FD14F
:102B50000DE044F400140AE044F4801401E044F46D
:102B600040147278824202D104F58014761C761CDF
:102B7000307866280BD013DC582877D009DC002881
:102B800075D04528F6D04628F4D047281AD19DE1C3
:102B900018E0632835D0642879D0652812D195E1F2
:102BA000702873D008DC6728F1D069286FD06E28B0
:102BB0000DD06F2806D1B5E073282CD0752875D0BC
:102BC000782874D05A46179990476D1C75E1C4F364
:102BD0000250022809D003280DD0D9F8001004288B
:102BE0000DD00D6009F1040967E1D9F80010EA176A
:102BF000C1E90052F6E7D9F800100D80F2E70D7038
:102C0000F0E719F8041B8DF8001000208DF8010082
:102C1000EA46012003E059F804AB4FF0FF306107AA
:102C20004FF0000102D40DE008F101018846B942DD
:102C30000FDA8045F8DB1AF808100029F4D108E013
:102C400008F1010188468142FADB1AF808100029D0
:102C5000F6D105985B46A0EB080721463846179A3F
:102C600000F094FA284400EB080507E04DE029E164
:102C70000DE01AF8010B5A4617999047B8F1010870
:102C8000F7D25B4621463846179A13E142E00A2202
:102C90000092C4F302524FF0000A022A08D059F8F9
:102CA00004CB032A4FEAEC710AD00DE029E02AE0B8
:102CB00009F1070121F00702F2E802C1914609E09B
:102CC0000FFA8CFC4FEAEC71042A03D14FFA8CFC0A
:102CD0004FEAEC71002907DA0A460021DCF1000C0A
:102CE00061EB02012D2202E0220504D52B228DF892
:102CF0000420012203E0E20701D02022F7E79046FA
:102D000059E00A2102E010220DE010214FF0000AE4
:102D100000910BE010224FF0000A44F00404082751
:102D2000009203E008224FF0000A0092C4F302521E
:102D3000022A05D059F804CB0021032A08D009E063
:102D400009F1070121F00702F2E802C1914605E00E
:102D50001FFA8CFC042A01D10CF0FF0C4FF0000884
:102D6000220728D5702806D0009B83F0100353EA71
:102D70000A0305D00EE040228DF80420012208E06D
:102D80005CEA010206D030228DF804208DF805009F
:102D900002229046009B83F0080353EA0A030AD1FB
:102DA0005CEA010201D1620705D530228DF80420CA
:102DB0004FF001087F1E582804D034A003900EA8BD
:102DC00002900DE036A0F9E753466046009AFDF701
:102DD000DEFA84460398825C0298401E02900270DC
:102DE0005CEA0100F0D1029806A9081A00F1200A55
:102DF000600702D524F4803400E00127574502DD46
:102E0000A7EB0A0000E0002000EB0A010090059803
:102E10004144401A0590E00306D45B462146179AC8
:102E2000059800F0B3F90544002706E001A85A46CA
:102E3000C05D179990476D1C7F1C4745F6DBE0038A
:102E40000CD55B462146179A059800F09FF905447A
:102E500004E030205A46179990476D1C0099481E8F
:102E600000900029F5DC08E0029802995A460078A3
:102E7000491C0291179990476D1CBAF10001AAF103
:102E8000010AF1DC65E1000009280100303132332C
:102E90003435363738396162636465660000000096
:102EA0003031323334353637383941424344454680
:102EB0000000000000F058F90544761C3078002826
:102EC0007FF4ECAD19B02846BDE8F08F620700D45E
:102ED000062709F1070222F0070CFCE80223E1466D
:102EE00003F000485FEA080C02D00FF2702C0DE0EE
:102EF0005FEA045C02D50FF2682C07E05FEAC47C4D
:102F000002D00FF2602C01E0AFF2700C4FF0FF38EE
:102F100023F00043CDF850C065280CD006DC4528CE
:102F200009D046281DD047283DD13DE0662818D05D
:102F300067287ED138E00021112F01DB112000E04D
:102F4000781CCDE9000106A90EA8FFF7DDFCDDE93C
:102F50000F010E9A03910021009207F1010A0491DA
:102F60004DE04FF000400097CDE9011006A90EA8F2
:102F7000FFF7CAFCDDE90F0203920E9B11990022B4
:102F8000DDF80CA00093049211B9791C00EB010A42
:102F9000B7EB0A0004D4C0F1FF3007F1010A049036
:102FA000AAEB0700019044E0012F00DA012700217D
:102FB000112F01DD112000E03846CDE9000106A9FE
:102FC0000EA8FFF7A1FCDDE90F010E9A0391002185
:102FD00004910092BA4621070CD40399514500DAB6
:102FE0008A46BAF1010F05DD009AAAF10101515C90
:102FF000302908D0B84202DA10F1040F06DA0121B4
:10300000CDE9011015E0AAF10101E9E7002805DC8E
:10301000049901440491AAEB000102E0411C5145CE
:1030200000DD8A460499401A401C01904FF0004090
:103030000290200704D40198504501DBCDF80480AC
:1030400000208DF84F0002980DF14F07B0F1004FAE
:1030500025D02B200E9002984FF0020800280CDAA1
:10306000404202902D200E9007E00A210298FDF7C1
:1030700078F93031029007F8011DB8F10001A8F18C
:103080000108F2DC02980028EFD1791E0E98087032
:10309000307800F0200040F0450007F8020D12A83B
:1030A000C01B00F107081498007800B1012000EB64
:1030B0000A01019801EBE07105984144401A401E55
:1030C0000590E00306D45B462146179A059800F068
:1030D0005DF805441498007818B15A46179990473E
:1030E0006D1CE00324D55B462146179A059800F035
:1030F0004DF805441CE00498002807DBDDE90301D6
:10310000884203DD0098405C179901E01799302050
:103110005A469047049805F10105401C0490019817
:10312000401E019004D12E205A46179990476D1CDD
:10313000BAF10001AAF1010ADDDC05E017F8010B84
:103140005A46179990476D1CB8F10001A8F1010883
:10315000F4DC5B462146179A0598ABE62D0000008B
:103160002B000000200000002DE9F041044600255E
:103170001E461746880404D405E039462020B0478F
:103180006D1C641EF9D52846BDE8F0812DE9F0419B
:10319000044600251E469046C80301D5302700E0AE
:1031A0002027880404D505E041463846B0476D1C09
:1031B000641EF9D52846BDE8F08100000149FFF7FB
:1031C0002DBB0000000000200204060800000000E3
:1031D00001020304010203040607080900000000BD
:1031E000000000000000000000000000000000F8E7
:1031F00000000000000000333000000000100C064A
:10320000100C0600000000000000000040C07840E4
:10321000C0784000043F04043F040400007088FCB0
:1032200008300000001820FF211E0000F008F00008
:10323000E018000000211C031E211E0000F0088879
:10324000700000001E2123241927211010160E00E3
:10325000000000000000000000000000000000E08E
:1032600018040200000000071820400000020418A3
:10327000E00000000040201807000000404080F0FF
:10328000804040000202010F01020200000000F035
:10329000000000000101011F010101000000000009
:1032A0000000000080B0700000000000000000007E
:1032B0000000000000010101010101010000000007
:1032C000000000000030300000000000000000009E
:1032D00080601804006018060100000000E010087B
:1032E0000810E000000F102020100F00001010F850
:1032F000000000000020203F20200000007008088F
:10330000088870000030282422213000003008880E
:10331000884830000018202020110E000000C02036
:1033200010F8000000070424243F240000F8088857
:10333000880808000019212020110E0000E01088E4
:1033400088180000000F112020110E000038080816
:10335000C83808000000003F000000000070880826
:1033600008887000001C222121221C0000E01008A7
:103370000810E0000000312222110F00000000C000
:10338000C00000000000003030000000000000809D
:10339000000000000000806000000000000080408D
:1033A00020100800000102040810200040404040A6
:1033B00040404000040404040404040000081020F9
:1033C000408000000020100804020100007048083E
:1033D0000808F0000000003036010000C030C828A6
:1033E000E810E0000718272423140B000000C03861
:1033F000E0000000203C23020227382008F88888DB
:1034000088700000203F202020110E00C0300808E6
:1034100008083800071820202010080008F80808BD
:103420000810E000203F202020100F0008F88888B6
:10343000E8081000203F20202320180008F8888882
:10344000E8081000203F200003000000C0300808FA
:103450000838000007182020221E020008F8080083
:103460000008F808203F210101213F20000808F84A
:10347000080800000020203F20200000000008086D
:10348000F8080800C08080807F00000008F888C02D
:1034900028180800203F20012638200008F80800DE
:1034A00000000000203F20202020300008F8F80015
:1034B000F8F80800203F003F003F200008F830C027
:1034C0000008F808203F200007183F00E010080817
:1034D0000810E0000F10202020100F0008F8080846
:1034E0000808F000203F210101010000E010080859
:1034F0000810E0000F18242438504F0008F888887E
:1035000088887000203F2000030C3020007088085D
:10351000080838000038202121221C00180808F86B
:10352000080818000000203F2000000008F80800EC
:103530000008F808001F202020201F0008788800BD
:1035400000C83808000007380E010000F80800F82D
:103550000008F800033C0700073C030008186880D7
:103560008068180820302C03032C30200838C8004D
:10357000C83808000000203F20000000100808089C
:10358000C83808002038262120201800000000FE3E
:10359000020202000000007F40404000000C30C0EA
:1035A00000000000000000010638C0000002020216
:1035B000FE000000004040407F00000000000402C8
:1035C00002020400000000000000000000000000F3
:1035D00000000000808080808080808000020204E3
:1035E00000000000000000000000000000008080DB
:1035F000808000000019242222223F2008F8008049
:1036000080000000003F112020110E00000000800B
:1036100080800000000E112020201100000000809A
:103620008088F800000E112020103F2000008080CC
:1036300080800000001F222222221300008080F0E0
:10364000888888180020203F20200000000080800B
:1036500080808000006B94949493600008F8008050
:1036600080800000203F210000203F2000809898AB
:10367000000000000020203F20200000000000800B
:103680009898000000C08080807F000008F800004B
:1036900080808000203F24022D302000000808F8A0
:1036A000000000000020203F20200000808080805B
:1036B00080808000203F20003F20003F80800080ED
:1036C00080800000203F210000203F2000008080FB
:1036D00080800000001F202020201F0080800080AC
:1036E0008000000080FFA12020110E00000000805B
:1036F00080808000000E112020A0FF80808080004C
:103700008080800020203F21200001000000808078
:10371000808080000033242424241900008080E06D
:10372000808000000000001F20200000808000003A
:1037300000808000001F202020103F20808080001B
:103740000080808000010E3008060100808000802B
:10375000008080800F300C030C300F000080800050
:10376000808080000020312E0E312000808080007B
:103770000080808080818E7018060100008080802B
:10378000808080000021302C2221300000000000C9
:10379000807C020200000000003F4040000000006A
:1037A000FF00000000000000FF0000000002027C9B
:1037B000800000000040403F0000000000060101C2
:1037C000020204040000000000000000F0370008BE
:1037D0000000002018000000E82800080838000851
:1037E0001800002090040000F828000800000000E5
:1037F0000000000000C2C2C2C200C2C2C2C26162F6
:0838000063646566676800005F
:04000005080000ED02
:00000001FF
