:020000040800F2
:10000000D80600206D010008350B00082D060008F9
:10001000310B00083D030008B11700080000000084
:10002000000000000000000000000000591300085C
:10003000AD04000800000000011100085D13000875
:100040008701000887010008870100088701000870
:100050008701000887010008870100088701000860
:100060008701000887010008870100088701000850
:100070008701000887010008870100088701000840
:100080008701000887010008870100088701000830
:100090008701000887010008870100088701000820
:1000A0008701000887010008870100088701000810
:1000B0001114000887010008870100088701000863
:1000C00087010008870100088701000887010008F0
:1000D00087010008BD150008870100088701000896
:1000E00087010008870100088701000800F002F876
:1000F00000F02CF80AA090E8000C82448344AAF196
:100100000107DA4501D100F021F8AFF2090EBAE893
:100110000F0013F0010F18BFFB1A43F0010318473B
:100120002C1E00003C1E0000002300240025002699
:10013000103A28BF78C1FBD8520728BF30C148BF4A
:100140000B6070471FB51FBD10B510BD00F031F832
:100150001146FFF7F7FF01F079FB00F04FF803B409
:10016000FFF7F2FF03BC00F057F800000948804792
:1001700009480047FEE7FEE7FEE7FEE7FEE7FEE789
:10018000FEE7FEE7FEE7FEE704480549054A064BA1
:100190007047000061130008ED000008D80000203F
:1001A000D8060020D8020020D802002070477047EF
:1001B0007047754600F02CF8AE4605006946534678
:1001C00020F00700854618B020B5FFF7DDFFBDE839
:1001D00020404FF000064FF000074FF000084FF0AE
:1001E000000BAC46ACE8C009ACE8C009ACE8C009FB
:1001F000ACE8C00921F007018D46704710B50446F0
:10020000AFF300802046BDE81040FFF7A8BF000014
:10021000004870470000002001491820ABBEFEE7EF
:1002200026000200704700008268002922F00102C7
:1002300018BF0132826070478268002922F4807200
:1002400018BF02F580728260704700008068C0F3BA
:10025000800070478068C0F3C000704780B5426876
:100260004FF6FF63CFF6F07302EA030C0B680A79CE
:1002700043EA0C0343EA0222426082684FF2FD73B4
:10028000CFF6F17302EA030CD1E902E24B7942EABC
:100290000C0242EA0E0242EA43028260C26A097C10
:1002A00022F470020139C9B242EA0151C16280BD33
:1002B000B0B501EB410C4FF0100E092988BFACF12D
:1002C0001E0C88BF4FF00C0E50F80E40072505FAA3
:1002D0000CF5AC4303FA0CF3234340F80E30062A26
:1002E00002EB820303D834306FF0040207E00C2ADB
:1002F00087BF2C306FF0400230306FF022021A447A
:1003000003681F259540AB43914019430160B0BD80
:10031000816841F00801816070470000826800290F
:1003200022F4A00218BF02F5A0028260704700000C
:10033000816841F00401816070470000FEE7000021
:1003400002684FF6FE7C42F00103002908BF02EA72
:100350000C0303607047000002684FF6FE731A40FA
:100360007F230421C4F20203C4F2020102600022CE
:100370009842026042608260C26016DC4322C4F28E
:10038000020290422CDC0822C4F20202904251D0B8
:100390001C22C4F2020290424ED03022C4F2020269
:1003A00090425ED14FF4706058E040F22F42C4F2A8
:1003B0000202904226DC8022C4F2020290423DD02A
:1003C00040F20842C4F2020290423AD040F21C428B
:1003D000C4F20202904244D101F58061F0203DE078
:1003E0004422C4F20202904236D05822C4F20202E1
:1003F00090421CD06C22C4F20202904231D14FF4E0
:1004000070002BE040F23042C4F2020290421CD055
:1004100040F24442C4F2020290421BD040F25842E1
:10042000C4F20202904218BF704701F580614FF498
:10043000702013E00F2011E0F0200FE04FF070600B
:100440000CE001F580610F2008E001F580614FF4B8
:10045000706003E001F580614FF470400A6810435A
:10046000086070472DE9F047026847F6F073D1E95C
:10047000026A9A4301F11007B0CF01F11C0E32431A
:10048000D1E900899EE80A501A4322432A433A439D
:10049000114341EA0C0141EA0E010160C0F804A0D9
:1004A000C0F80880C0F80C90BDE8F08770470000E5
:1004B0004EF210016C22CEF2000150434860002041
:1004C00088600520086000BF0868C003FCD50420D0
:1004D000086070472DE9F047CA7802F00F0CD30688
:1004E00044BF8B784CEA030C09880B0625D0824662
:1004F0005AF8144B00F1100E00254FF001094FF08F
:100500000F08002706E000BF1E600137082F05F125
:10051000040511D009FA07F60E42F6D008FA05F3E1
:1005200024EA03030CFA05F41C43282A5346EBD0B3
:10053000482AEAD17346E7E70460B1F5807F38BF07
:10054000BDE8F087436800F1100E00F114090025A2
:100550004FF4807A4FF00F08002705E03460013730
:10056000082F05F1040512D00AFA07F404EA01067F
:10057000A642F4D108FA05F6B3430CFA05F6334364
:10058000282A4E46EAD0482AE9D17646E6E7436073
:10059000BDE8F087B0B50422C4F20102134602F1AF
:1005A000180E002848BF73461C6800F44013B3F5CA
:1005B000401F1FFA80FC06D1156824F0706325F0F7
:1005C0007064146015E0C3020AD46FF00F0303EAED
:1005D00050430CFA03F324EA030343F0706308E08A
:1005E000C0F30343032505FA03F324EA030343F0AE
:1005F00070636FF00F0404EA504400290CFA04F50C
:1006000018BF2B43002848BF72461360B0BD0000DE
:100610008068084018BF01207047000001617047E2
:100620001023002A08BF1423C1507047FEE70000C2
:1006300010B582B00420012100F086FD41F60000D3
:1006400040F60004C1F20340C4F20104019001A984
:100650002046FFF73FFF20464FF4C051FFF7DEFF73
:1006600002B010BDB0B540F60004C4F2010420464B
:100670004FF480510122FFF7D3FF0A20FFF718FF44
:1006800020464FF400610122FFF7CAFF0A20FFF75E
:100690000FFF20464FF48051FFF7BAFF05460A20AE
:1006A000FFF706FF20464FF400610022FFF7B8FF76
:1006B0000A20FFF7FDFE2846B0BD00002DE9F041FD
:1006C00040F600040026C4F201044FF08008002721
:1006D00020464FF400610122FFF7A2FF0A20FFF736
:1006E000E7FE20464FF48051FFF792FF05460A20AF
:1006F000FFF7DEFE28FA06F0002D18BF074320465C
:100700004FF400610022FFF78BFF0A20FFF7D0FEB5
:100710000136082EDCD1F8B2BDE8F08110B540F604
:100720000004C4F20104024620464FF48051FFF752
:1007300077FF0A20FFF7BCFE20464FF4006101223C
:10074000FFF76EFF0A20FFF7B3FE20464FF400616B
:100750000022FFF765FF0A20BDE81040FFF7A8BEA2
:10076000F0B581B040F6000504460026C4F201054C
:10077000802700BF27FA06F000EA040228464FF45B
:100780008051FFF74DFF0A20FFF792FE28464FF4F5
:1007900000610122FFF744FF0A20FFF789FE284687
:1007A0004FF400610022FFF73BFF0A20FFF780FEB5
:1007B0000136082EDED101B0F0BD000010B540F6C4
:1007C0000004C4F2010420464FF480510122FFF7D7
:1007D00027FF0A20FFF76CFE20464FF4006101223C
:1007E000FFF71EFF0A20FFF763FE20464FF48051FB
:1007F0000022FFF715FF0A20FFF75AFE20464FF4AC
:1008000000610022FFF70CFF0A20BDE81040FFF74F
:100810004FBE000010B540F60004C4F201042046AB
:100820004FF480510022FFF7FBFE0A20FFF740FE45
:1008300020464FF400610122FFF7F2FE0A20FFF785
:1008400037FE20464FF480510122FFF7E9FE0A20CF
:10085000BDE81040FFF72CBE40F26001C2F200017B
:10086000087800220A707047B0B582B000F0EEFD43
:100870001C20012100F068FC48F2F21040F6000450
:10088000C4F60300C4F2010401AD019020462946DC
:10089000FFF720FE4FF4E050ADF8040004F580604F
:1008A0002946FFF717FE4FF40050ADF8040004F599
:1008B00000602946FFF70EFE02B0B0BDB0B540F6AD
:1008C0000004C4F2010404F500604FF40051FFF786
:1008D0009FFEE8B320464FF40041FFF799FEC8B3EE
:1008E00020460221FFF794FEB0B304F58065284648
:1008F0004FF48051FFF78CFE80B320462021FFF794
:1009000087FE68B320461021FFF782FE50B32046D1
:100910004021FFF77DFE38B320468021FFF778FEA7
:1009200020B328464FF48061FFF772FE00B32046E3
:100930004FF48071FFF76CFEE0B128464FF4006180
:10094000FFF766FE6FF00701002808BF032112E0E1
:10095000092110E00A210EE00B210CE00C210AE035
:100960000D2108E00E2106E00F2104E0002102E045
:10097000012100E0022101F00F004FF60F61C1409C
:10098000C90708BFB0BD04A1085C40F26001C2F213
:1009900000010870B0BD00BF08090A0B0101010188
:1009A000010102030405060770B582B01820012179
:1009B00000F0CAFB41F200040820C4F20104C1F2B5
:1009C0000300A4F5806501AE019028463146FFF78B
:1009D00081FD4FF44040ADF8040020463146FFF75A
:1009E00079FD28460821FFF719FE20464FF4804183
:1009F000FFF714FE20464FF40041FFF70FFE02B050
:100A000070BD000010B5FFF7D9FED020FFF7A8FE9B
:100A1000FFF728FE7520FFF7A3FEFFF723FEFFF781
:100A2000CDFED120FFF79CFEFFF71CFEFFF746FE30
:100A300004460120FFF772FEFFF7ECFE204610BDD2
:100A400080B5FFF7F5FDFFF7B9FED020FFF788FE70
:100A5000FFF708FE6B20FFF783FEFFF703FE012080
:100A6000FFF77EFEFFF7FEFDFFF7D4FEFFF7A6FEC1
:100A7000D020FFF775FEFFF7F5FD6C20FFF770FE45
:100A8000FFF7F0FD0020FFF76BFEFFF7EBFDFFF730
:100A9000C1FEFFF793FED020FFF762FEFFF7E2FDF5
:100AA0001920FFF75DFEFFF7DDFD0720FFF758FE79
:100AB000FFF7D8FDFFF7AEFEFFF780FED020FFF76F
:100AC0004FFEFFF7CFFD1A20FFF74AFEFFF7CAFDE2
:100AD0000620FFF745FEFFF7C5FDFFF79BFEFFF77A
:100AE0006DFED020FFF73CFEFFF7BCFD1B20FFF79B
:100AF00037FEFFF7B7FD1820FFF732FEFFF7B2FD14
:100B0000FFF788FEFFF75AFED020FFF729FEFFF718
:100B1000A9FD1C20FFF724FEFFF7A4FD1820FFF716
:100B20001FFEFFF79FFDBDE88040FFF773BE00008A
:100B3000FEE700007047000010B5C17800294EF2B2
:100B40000011CEF200011AD04EF60C52CEF2000285
:100B50001268072323EA12220F23C2F1040C23FA9E
:100B600002F24378847890F800E003FA0CF3224014
:100B70001A43120101EB0E0383F8002300E08031D9
:100B80000078012300F01F0203FA02F2C0F34210C2
:100B900041F8202010BD000040F080604EF60C515E
:100BA00040F0FD70CEF2000108607047B0B500243F
:100BB00044F0B000C0B200F081F9102000F07EF9DE
:100BC0000020002500F07AF9002000F005FA681CEA
:100BD00045B2B5F1FF3FF7DCE0B20134072828BF8A
:100BE000B0BDE5E7B0B582B00820012100F0ACFA55
:100BF0000120012100F0A8FA40F20020C0F23000EC
:100C00000121FFF7C7FC202040F60044C1F2034059
:100C1000C4F2010401AD019020462946FFF75AFCB9
:100C20001020ADF8040020462946FFF753FC20466B
:100C300020210122FFF7F4FC204610210122FFF7BA
:100C4000EFFCAE2000F03AF9D52000F037F9802013
:100C500000F034F9A82000F031F93F2000F02EF91F
:100C6000D32000F02BF90020002400F027F94020C9
:100C700000F024F9A12000F021F9C82000F01EF9AD
:100C8000DA2000F01BF9122000F018F9812000F0A2
:100C900015F9CF2000F012F9D92000F00FF9F1205A
:100CA00000F00CF9DB2000F009F9302000F006F923
:100CB000A42000F003F9A62000F000F98D2000F038
:100CC000FDF8142000F0FAF8AF2000F0F7F800BFAC
:100CD00044F0B000C0B200F0F1F8102000F0EEF8DF
:100CE0000020002500F0EAF8002000F075F9681CEB
:100CF00045B2B5F1FF3FF7DCE0B201340728E7D396
:100D000002B0B0BD2DE9F04381B016467E224FEA15
:100D1000400802EB40006FF0070240F0B00002EB29
:100D2000C104C0B2E5B200F0C9F8280900F1100909
:100D3000484600F0C3F804F00805284600F0BEF865
:100D400041F65C10C0F6000000EB0616A6F2012783
:100D5000082400BF17F8010F00F03EF9013CF9D15B
:100D6000A8F1010040F0B000C0B200F0A7F848467A
:100D700000F0A4F8284600F0A1F8A6F2F91408251E
:100D800014F8010F00F028F9013DF9D101B0BDE8D8
:100D9000F08300002DE9F047002B08BFBDE8F08785
:100DA0004CF6CD4A1C469046894607465D420026D1
:100DB000CCF6CC4A18E000BF0120B8FBF0F0A0FB55
:100DC0000A12D20802EB8202A0EB420006EB0901F4
:100DD00040F03000C2B2C9B23846FFF793FF013687
:100DE000A64205F101050DD0F0430019E4D0012021
:100DF000294600BF00EB800001314A1C4FEA400049
:100E0000F8D1DAE7BDE8F0872DE9F0471C469146B6
:100E10008846002A074603D42B22FFF773FF04E01D
:100E20002D22FFF76FFFC9F10009002C08BFBDE8B4
:100E3000F0874CF6CD4A66420025CCF6CC4A17E046
:100E40000120B9FBF0F00135A0FB0A12D20802EB39
:100E50008202A0EB420005EB080140F03000C2B274
:100E6000C9B23846FFF74EFFA54206F101060DD084
:100E7000E8430019E4D00120314600BF00EB8000B8
:100E800001314A1C4FEA4000F8D1DAE7BDE8F087AB
:100E9000F0B581B0144612786AB10D4606460027B7
:100EA0007819C1B2D2B23046FFF72CFF0137F8B241
:100EB000225C002AF4D101B0F0BD0000F0B581B091
:100EC00040F60044C4F201040546204610210122E8
:100ED000FFF7A6FB204620210122FFF7A1FB2046B9
:100EE000102100220026FFF79BFB20462021002234
:100EF000FFF796FB802700BF27FA06F000F0780284
:100F000020461021FFF78CFB204620210122FFF70D
:100F100087FB204620210022FFF782FB0136082EA6
:100F2000EAD1204620210122FFF77AFB204620212A
:100F30000022FFF775FB0826204610210022FFF74C
:100F40006FFB204620210122FFF76AFB204620216B
:100F50000022FFF765FB013EEED120462021012251
:100F6000FFF75EFB2046202100220026FFF758FBFA
:100F7000802700BF27FA06F000EA0502204610216C
:100F8000FFF74EFB204620210122FFF749FB2046B8
:100F900020210022FFF744FB0136082EEAD120462B
:100FA00020210122FFF73CFB204620210022FFF7F1
:100FB00037FB204610210022FFF732FB204620217C
:100FC0000122FFF72DFB20461021012201B0BDE8D0
:100FD000F040FFF725BB0000F0B581B040F60044BB
:100FE000C4F201040546204610210122FFF718FB38
:100FF000204620210122FFF713FB2046102100226A
:101000000026FFF70DFB204620210022FFF708FBFA
:10101000802700BF27FA06F000F078022046102152
:10102000FFF7FEFA204620210122FFF7F9FA2046B9
:1010300020210022FFF7F4FA0136082EEAD12046DB
:1010400020210122FFF7ECFA204620210022002671
:10105000FFF7E6FA802700BF27FA06F000F040020B
:1010600020461021FFF7DCFA204620210122FFF75D
:10107000D7FA204620210022FFF7D2FA0136082EA7
:10108000EAD1204620210122FFF7CAFA204620217A
:1010900000220026FFF7C4FA802700BF27FA06F0D7
:1010A00000EA050220461021FFF7BAFA2046202167
:1010B0000122FFF7B5FA204620210022FFF7B0FAFF
:1010C0000136082EEAD1204620210122FFF7A8FA96
:1010D000204620210022FFF7A3FA204610210022FB
:1010E000FFF79EFA204620210122FFF799FA2046B9
:1010F0001021012201B0BDE8F040FFF791BA0000D5
:101100007047000041F20401C4F202010A6822F4AF
:101110004042104308607047002941F21401C4F2B4
:1011200002010A680CBF22EA000010430860704701
:10113000002941F21C01C4F202010A680CBF22EA34
:101140000000104308607047002941F21801C4F202
:1011500002010A680CBF22EA0000104308607047D1
:1011600010B541F20404C4F20204226802F00C0239
:10117000082A41F20022C0F27A0220D1D4F800E01D
:10118000D4F800C02368CEF3834E1B014FF0110347
:1011900058BF02235FEACC31734406D440F60011F5
:1011A000C0F23D0103FB01F209E02168890351BF50
:1011B0005A4340F60011C0F23D0103FB01F2026008
:1011C000216841F64C12C1F30311C0F60002515CD4
:1011D000036823FA01F141602368C3F30223D35C5F
:1011E00021FA03F383602368C3F3C223D25C41F680
:1011F0004813D140C1602268C0F60003C2F38132B7
:101200009A5CB1FBF2F1016110BD0000F0B58BB04A
:1012100042F200440C200121C4F20104FFF794FFC4
:101220000D206D46ADF800000026A4F5E0502946DB
:101230008DF80360FFF74EF90320ADF80000A4F528
:10124000C05029468DF80360FFF744F90825C4F221
:1012500002052846FFF780F801200121FFF75CFF17
:1012600042F24C40C4F20100009040F26200C2F22F
:101270000000CDE90106802005904FF480700690B3
:101280004FF480600790202008904FF4005005270D
:10129000CDE9090669462846CDE90376FFF7E2F86D
:1012A00028460121FFF74CF84FF400700121FFF7A9
:1012B0004BFF4FF46020029040F20110ADF80400A3
:1012C00069462046039600968DF81070FEF7C6FF1B
:1012D0004FF44040FFF716FF20460221012207236A
:1012E000FEF7E6FF2046032102220723FEF7E0FF78
:1012F0002046082103220723FEF7DAFF20460921B2
:1013000004220723FEF7D4FF2046002105220723ED
:10131000FEF7CEFF20460121FEF78EFF2046012179
:10132000FEF782FF1E20FFF7C3F82046FEF7F0FF0E
:101330002046FEF78FFF0028FAD12046FEF7F8FF7F
:101340002046FEF783FF0028FAD120460121FEF750
:10135000E5FF0BB0F0BD00007047000070470000D3
:1013600041F20400C4F2020050F8041C002241F0D3
:10137000010140F8041C0168CFF6FF021140016032
:1013800050F8041C4FF6FF72CFF6F662114040F899
:10139000041C50F8041C21F4802140F8041C01684E
:1013A00021F4FE0101604FF41F01416001680160FA
:1013B00001680160016841F480610160016821F405
:1013C00074110160016841F0006141F42011016075
:1013D00050F8041C41F0807140F8041C50F8041CC3
:1013E0008901FBD5016821F003010160016841F02A
:1013F00002010160016801F00C010829FAD14EF6E2
:101400000850CEF200004FF000610160704700000C
:1014100080B54FF08040012100F060F8012818BF2E
:1014200080BD40F26C00C2F2000001780131CAB206
:10143000142A017003D300210170FFF73FFA4FF027
:1014400080400121BDE8804000F03AB880B584B00A
:1014500001200121FFF76CFE4FF0804000F052F8B0
:1014600040F2E730019040F21B20009000208DF800
:10147000080069464FF0804000F04AF84FF0804085
:10148000012100F019F84FF080400121012200F005
:1014900031F84FF08040012100F016F84FF4A060C1
:1014A000FFF77AFB40F21C10C0F20210039003A871
:1014B000FFF742FB04B080BDC943018270470000C2
:1014C000C9430182704700000288002918BF01212A
:1014D00022F001021144018070470000028A8089D5
:1014E0000A4000EA010018BF0122002818BF0120AD
:1014F00010407047002A82890CBF22EA0101114383
:1015000081817047018921F0070101817047000046
:1015100040F6FF33B0F800C0C4F2000398420FDC7D
:10152000B0F1804F1ED040F20043C4F20003984255
:1015300018D040F60003C4F20003984212D016E01F
:1015400040F60043C4F2000398420BD043F200433C
:10155000C4F20103984205D042F60043C4F20103ED
:10156000984204D14B882CF0700243EA020C41F2FD
:10157000004240F48063C4F20002934204D0CA885F
:101580002CF4407342EA030CA0F800C08A888285DC
:10159000A0F18042A2F596320B884FEAB222072AC8
:1015A000038507D8012303FA02F212F0E50F1CBFEE
:1015B000097A0186012181827047000010B543F647
:1015C0000004C4F20104204640F2255100F060F806
:1015D000012818BF10BD204600F0E6F840F26D016A
:1015E000C2F200010A78C0B2012A11D0AAB940287B
:1015F00034D140F2D300C2F20000007870BB012069
:10160000087040F26E00C2F200000021017025E077
:101610000D2817D10220087020E00A281ED10020D2
:10162000087040F26E01C2F20001097840F26F02C8
:10163000C2F20002505440F2D300C2F20000012175
:1016400001700BE040F26E01C2F200010A7840F234
:101650006F03C2F200039854501C0870204640F2F9
:101660002551BDE8104000F001B80000090A012230
:1016700002FA01F1C9430180704700008289002904
:1016800018BF012122F4005242EA413181817047A2
:10169000C1F34212022A06D0012A14BF00F114023B
:1016A00000F10C0201E000F110021288008801F044
:1016B0001F03090ADA40C840104000F001007047DB
:1016C000C1F3421301F01F0C1421022B08BF10219B
:1016D000012B4FF0010308BF0C21002A03FA0CF282
:1016E00043580CBF23EA02021A43425070470000DD
:1016F00070B586B00446008A0D46C98820F4405073
:1017000008432082A0894EF6F3110840A9882A894F
:101710006B89084310431843A081A08AA98920F44B
:101720004070084301AEA0823046FFF719FD43F632
:10173000000106F10800C4F201018C4208BF06F165
:101740000C0000681922B4F90C1050432A680123D8
:10175000B1F1FF3FC8BF022302FA03F1B0FBF1F081
:1017600048F21F51C5F2EB11A0FB01235A096FF09B
:10177000630302FB0300B4F90C300326B3F1FF3F0F
:10178000C8BF042600FA06F000F13200A0FB0101F8
:101790004FF00700C8BF0F2000EA511040EA0210C6
:1017A000208106B070BD000080886FF35F20704715
:1017B000FEE70000F0B585B0042001210427FFF703
:1017C000C3FC43F6000440F20020C4F20104C1F659
:1017D0000300A4F5405501AE019028463146FEF7BE
:1017E00079FE4FF48060ADF80400284631468DF84C
:1017F0000770FEF76FFE4FF480400121FFF7A4FC55
:101800004FF41650019000204FF44021ADF8100025
:10181000CDE9020101A92046FFF76AFF204640F208
:1018200025510122FFF74CFF20460121FFF726FF3B
:101830004FF4A060FFF7B0F940F22510C0F201109C
:10184000019001A8FFF778F905B0F0BDFFF7CAF9DC
:10185000FFF7AAF8FFF708F8FFF7ACFFFFF7D6FC91
:10186000FFF7EEF834A201200121FFF711FB40F24F
:101870006204C2F200041FE0FFF798F922880220F8
:1018800001210423FFF786FA62880220092104233C
:10189000FFF780FAA288032001210423FFF77AFAD8
:1018A000E288032009210423FFF774FA2289042027
:1018B00001210423FFF76EFAFEF7CEFF0228DBD0EA
:1018C000FEF7CAFF01280BD1FFF770F9FFF79AF86E
:1018D0000246022001210223FFF75CFAECE700BF79
:1018E000FEF7BAFF0328E7D1FFF760F902200121D4
:1018F00000220523FFF788FA022009210022052390
:10190000FFF782FA0320012100220523FFF77CFA6A
:101910000320092100220523FFF776FA0420012184
:1019200000220523FFF770FA04200121002205237D
:10193000FFF76AFAC0E700BF2048414E444C4520FB
:101940005445535420210000020406080000000002
:101950000102030401020304060708090000000055
:10196000000000000000000000000000000000F87F
:1019700000000000000000333000000000100C06E2
:10198000100C0600000000000000000040C078407D
:10199000C0784000043F04043F040400007088FC49
:1019A00008300000001820FF211E0000F008F000A1
:1019B000E018000000211C031E211E0000F0088812
:1019C000700000001E2123241927211010160E007C
:1019D000000000000000000000000000000000E027
:1019E000180402000000000718204000000204183C
:1019F000E00000000040201807000000404080F098
:101A0000804040000202010F01020200000000F0CD
:101A1000000000000101011F0101010000000000A1
:101A20000000000080B07000000000000000000016
:101A3000000000000001010101010101000000009F
:101A40000000000000303000000000000000000036
:101A500080601804006018060100000000E0100813
:101A60000810E000000F102020100F00001010F8E8
:101A7000000000000020203F202000000070080827
:101A800008887000003028242221300000300888A7
:101A9000884830000018202020110E000000C020CF
:101AA00010F8000000070424243F240000F80888F0
:101AB000880808000019212020110E0000E010887D
:101AC00088180000000F112020110E0000380808AF
:101AD000C83808000000003F0000000000708808BF
:101AE00008887000001C222121221C0000E0100840
:101AF0000810E0000000312222110F00000000C099
:101B0000C000000000000030300000000000008035
:101B10000000000000008060000000000000804025
:101B2000201008000001020408102000404040403E
:101B30004040400004040404040404000008102091
:101B400040800000002010080402010000704808D6
:101B50000808F0000000003036010000C030C8283E
:101B6000E810E0000718272423140B000000C038F9
:101B7000E0000000203C23020227382008F8888873
:101B800088700000203F202020110E00C03008087F
:101B900008083800071820202010080008F8080856
:101BA0000810E000203F202020100F0008F888884F
:101BB000E8081000203F20202320180008F888881B
:101BC000E8081000203F200003000000C030080893
:101BD0000838000007182020221E020008F808001C
:101BE0000008F808203F210101213F20000808F8E3
:101BF000080800000020203F202000000000080806
:101C0000F8080800C08080807F00000008F888C0C5
:101C100028180800203F20012638200008F8080076
:101C200000000000203F20202020300008F8F800AD
:101C3000F8F80800203F003F003F200008F830C0BF
:101C40000008F808203F200007183F00E0100808AF
:101C50000810E0000F10202020100F0008F80808DE
:101C60000808F000203F210101010000E0100808F1
:101C70000810E0000F18242438504F0008F8888816
:101C800088887000203F2000030C302000708808F6
:101C9000080838000038202121221C00180808F804
:101CA000080818000000203F2000000008F8080085
:101CB0000008F808001F202020201F000878880056
:101CC00000C83808000007380E010000F80800F8C6
:101CD0000008F800033C0700073C03000818688070
:101CE0008068180820302C03032C30200838C800E6
:101CF000C83808000000203F200000001008080835
:101D0000C83808002038262120201800000000FED6
:101D1000020202000000007F40404000000C30C082
:101D200000000000000000010638C00000020202AE
:101D3000FE000000004040407F0000000000040260
:101D4000020204000000000000000000000000008B
:101D5000000000008080808080808080000202047B
:101D60000000000000000000000000000000808073
:101D7000808000000019242222223F2008F80080E1
:101D800080000000003F112020110E0000000080A4
:101D900080800000000E1120202011000000008033
:101DA0008088F800000E112020103F200000808065
:101DB00080800000001F222222221300008080F079
:101DC000888888180020203F2020000000008080A4
:101DD00080808000006B94949493600008F80080E9
:101DE00080800000203F210000203F200080989844
:101DF000000000000020203F2020000000000080A4
:101E00009898000000C08080807F000008F80000E3
:101E100080808000203F24022D302000000808F838
:101E2000000000000020203F2020000080808080F3
:101E300080808000203F20003F20003F8080008085
:101E400080800000203F210000203F200000808093
:101E500080800000001F202020201F008080008044
:101E60008000000080FFA12020110E0000000080F3
:101E700080808000000E112020A0FF8080808000E4
:101E80008080800020203F21200001000000808011
:101E9000808080000033242424241900008080E006
:101EA000808000000000001F2020000080800000D3
:101EB00000808000001F202020103F2080808000B4
:101EC0000080808000010E300806010080800080C4
:101ED000008080800F300C030C300F0000808000E9
:101EE000808080000020312E0E3120008080800014
:101EF0000080808080818E701806010000808080C4
:101F0000808080000021302C222130000000000061
:101F1000807C020200000000003F40400000000002
:101F2000FF00000000000000FF0000000002027C33
:101F3000800000000040403F00000000000601015A
:101F40000202040400000000000000005C1F000802
:0C1F500000000020D80600002801000856
:04000005080000ED02
:00000001FF
