:020000040800F2
:10000000B00C00200101000815240008190F000899
:1000100079200008ED0B00085D37000800000000A3
:100020000000000000000000000000009132000805
:100030005D0D000800000000A52D000895320008A5
:100040001B0100081B0100081B0100081B01000820
:100050001B0100081B0100081B0100081B01000810
:100060001B0100081B0100081B0100081B01000800
:100070001B0100081B0100081B0100081B010008F0
:100080001B0100081B0100081B0100081B010008E0
:100090001B0100081B0100081B0100081B010008D0
:1000A0001B0100081B0100081B0100081B010008C0
:1000B000A93300081B0100081B0100081B010008F0
:1000C0001B0100081B0100081B0100081B010008A0
:1000D0001B010008553500081B0100081B01000822
:1000E0001B0100081B0100081B010008DFF80CD0F1
:1000F00000F054FC0048004765380008B00C0020B0
:100100000648804706480047FEE7FEE7FEE7FEE7B1
:10011000FEE7FEE7FEE7FEE7FEE7FEE799320008AE
:10012000ED000008F0B480EA0102D40F4200B2EB07
:10013000410F02D20246084611464A0042D0C30D82
:10014000DDB2C1F3C752AD1A202D35DAC1F3160165
:1001500041F4000204B15242C5F1200602FA06F150
:100160002A411044B3EBD05F23D0C4B1012DA0EBE2
:10017000C35009DCF0BC4FF0004202EAC352DBB2CC
:1001800000F5000000F009BB400000F1807000EBBA
:10019000C350A0F1807040EAD170490009E04908DD
:1001A00041EAC071A0EBC35000F50000400800EB2D
:1001B000C350F0BC00F0E8BA6142012202EB4101F9
:1001C000001BF6E7F0BC704781F00041AAE780F021
:1001D0000040A7E780EA010210B502F000434000AA
:1001E00022D04A001FD0010E01EB1261C0F356006D
:1001F000C2F3560240F4000042F40002A0FB0220C9
:1002000000047F39140400D0401C50EA124001D48D
:100210004000491EC2B20C0604EBD010401C40083E
:10022000802A02D003E0002010BD20F00100002948
:1002300000DA0020184310BD30B480EA010202F059
:10024000004530F0004221F0004013D090B1C30DC2
:10025000D40DC2F31601C0F31600E41A41F40001F4
:1002600040F400027D34914201D3641C00E0490057
:10027000002C02DA30BC002070474FF4000000234D
:10028000914201D3891A034340084FEA4101F7D153
:1002900051B1914202D14FF0004105E002D24FF03E
:1002A000010101E06FF0010103EBC450284430BCB0
:1002B00000F06ABA2DE9FE4F804681EA0300C00FC4
:1002C0000C46009021F0004123F00045B8EB0200FD
:1002D000A94105D24046214690461C460B4602469F
:1002E00023F00040104347D0270DC7F30A00C3F3A3
:1002F0000A510290401A019040286BDAC3F31300B0
:1003000040F4801B0098924620B10023D2EB030AF0
:1003100063EB0B0B01985946C0F14002504600F0C8
:1003200012FA06460D4650465946019A00F01AFA4E
:1003300010EB08006141002487EA115284EAE77358
:100340001A4340D0009A62B3019A012A4FEA075239
:1003500015DC001B61EB02014FF0004202EA07527C
:10036000CDE90042001C41F5801132462B4600F0D9
:1003700080FA03B0BDE8F08F40462146F9E7001B44
:1003800061EB0201001C41F5801300185B4120184D
:10039000A2F5001747EB030140EAD570B6196D418D
:1003A00011E06D084FEA360645EAC0754FEA07527C
:1003B000001B61EB0201001C41F5801149084FEA66
:1003C00030000019514132462B4603B0BDE8F04FD2
:1003D00000F040BA0098012240000023D0EB020256
:1003E00063EBE073009821464FEAE074B8EB00003D
:1003F00061EB0401E9E783F000435BE781F0004132
:1004000058E72DE9FE4F81EA030404F0004421F08F
:10041000004100944FF0000B23F0004350EA010428
:100420005ED052EA03045BD0C3F30A54C1F30A5509
:100430002C44A4F2F3340194A0FB0254C1F3130141
:1004400041F48011C3F3130343F4801301FB02440E
:1004500000FB034E840A970A44EA815447EA835713
:10046000A4FB076802958D0A05FB07854FEA932CCC
:1004700004FB0C542705029D4FEA065847EA16373D
:10048000B5EB08056EEB070C870E920E47EA811755
:1004900042EA8312A7FB0201B6EB0B0164EB0004F6
:1004A0002B0D43EA0C335E1844EB1C50DA465146E0
:1004B000E7FB0201C5F313044FEA0B3343EA14537D
:1004C0004FEA0432019C43EA0603A4F10C040294AF
:1004D000009CCDE900B400F0CCF903B0BDE8F08F8A
:1004E00000200146F9E72DE9F04D81EA030404F00C
:1004F000004B21F0004514464FF0000A23F0004164
:1005000050EA050220D054EA01021DD0C5F30A5773
:100510000246C5F31303C1F31300C1F30A5640F4B6
:10052000801543F48013A7EB0608101BD64608F28B
:10053000FD3873EB050002D308F1010801E09218C1
:100540005B41B8F1000F03DA00200146BDE8F08DF1
:1005500000204FF48011064684460EE0171B73EB13
:10056000050705D3121B63EB050306434CEA010C98
:1005700049084FEA300092185B4150EA0107EDD17B
:1005800052EA030012D082EA040083EA050108431C
:1005900005D0101BAB4106D20122002306E0002249
:1005A0004FF0004302E06FF0010253101AEB060017
:1005B0004CEB085110EB0A0041EB0B01BDE8F04D8C
:1005C00000F048B90EB5C10F80EAE0700844CA07D0
:1005D000002140F233438DE80E000A460B4600F03E
:1005E00048F903B000BD0EB540F23341029100213D
:1005F000CDE900110A460B4600F03BF903B000BDFF
:1006000000F0004220F00040C10DC0F3160040F49D
:1006100000007F2901DA00207047962903DCC1F130
:100620009601C84001E096398840002AF4D0404243
:10063000704720F00040C10DC0F3160040F40000E8
:100640007F2901DA00207047962903DCC1F1960169
:10065000C840704796398840704700F0004230F03B
:1006600000400AD0C10D01F56071C0F3160042EAE6
:100670000151C208400711437047002001467047EE
:1006800001F0004330B421F0004150EA010206D0ED
:100690000A0DA2F56072C1F31301002A02DC30BC1E
:1006A00000207047440F44EAC104C100E01830BC88
:1006B00000EBC25000F068B830B50B460146002090
:1006C0002022012409E021FA02F59D4205D303FA14
:1006D00002F5491B04FA02F52844151EA2F1010295
:1006E000F1DC30BD2DE9F05F0546002092469B46C7
:1006F00088460646814640241BE028464146474638
:10070000224600F05DF953465A46C01A914110D373
:1007100011461846224600F016F82D1A67EB01081C
:100720004F4622460120002100F00DF817EB00098A
:100730004E41201EA4F10104DFDC484631462A4622
:100740004346BDE8F09F202A04DB203A00FA02F17C
:10075000002070479140C2F1200320FA03F31943AF
:1007600090407047202A06DBCB17203A41FA02F06E
:1007700043EAE07306E041FA02F3D040C2F12002FE
:1007800091400843194670470029A8BF7047401C94
:10079000490008BF20F00100704710B4B0FA80FC97
:1007A00000FA0CF050EA010404BF10BC704749B1D4
:1007B000CCF1200421FA04F411FA0CF118BF012144
:1007C00021430843A3EB0C01CB1D4FEA00614FEA24
:1007D000102042BF002010BC704700EBC3501044F3
:1007E0000029A4BF10BC7047401C490008BF20F07E
:1007F000010010BC7047F0B4002802DCF0BC0020FF
:100800007047C0F3C751C0F3160040F40000CA0798
:1008100001D14000491E3F2202EB61050022114632
:100820004FF4000626FA01F31344D418844201D889
:10083000001B1A464000491C1729F3DD5100814274
:1008400002D24FF0FF3100E0002102EBC550F0BCB6
:10085000FFF79ABF10B5141E73F1000408DA401CAC
:1008600041F1000192185B411A4301D120F00100CF
:1008700010BD2DE9F04D92469B4611B1B1FA81F2BF
:1008800002E0B0FA80F220329046FFF75CFF0446A7
:100890000F4640EA0A0041EA0B0153465A46084314
:1008A00013D0114653EA010019D0C8F14002504656
:1008B00000F086F805460E46504659464246FFF778
:1008C00042FF084305D0012004E020463946BDE838
:1008D000F08D0020054346EAE0762C4337430A9822
:1008E0006305E40AA0EB08000022FD0A44EA47542D
:1008F0000A3002D500200146E9E7010510196941D7
:10090000DDE9084500196941BDE8F04DA2E770B581
:1009100021F0004303430CD0C1F30A550024D5EB6A
:10092000040564EB0403D617AD1AB34102DB0020C3
:10093000014670BD201841EB025170BDC1F30A524F
:10094000C1F3130140F2FF3341F480119A4202DAFD
:1009500000200146704740F233439A42A2F23342EC
:1009600002DC524200F02CB8FFF7EDBE30B5041E99
:1009700071F1000404DB4FF00044404264EB0101DC
:10098000141E73F1000405DB1C464FF00043524275
:1009900063EB0403994208BF904230BD064C074DFB
:1009A00006E0E06840F0010394E80700984710343F
:1009B000AC42F6D3FFF79EFBC04C0008E04C0008A9
:1009C000202A04DB203A21FA02F00021704721FAA4
:1009D00002F3D040C2F1200291400843194670470B
:1009E0002DE9F04D00231A461B1A8A4103DB002033
:1009F0000146BDE8F08DC1F30A52C1F3130141F481
:100A000080154FF0000BD10702D100186D41521E26
:100A10000027044640F2FF11384601EB620A3E46C9
:100A20008046024600204FF48011FFF7C9FFC2192B
:100A30007141BB1846EB0100B4EB030C75EB000CE5
:100A400004D3E41A65EB000517460E46241908F195
:100A500001006D4180463428E3DDF91946EB0600BC
:100A6000091BA84103D24FF0FF32134601E00022D8
:100A700013461BEB070046EB0A51BDE8F04DFFF7AC
:100A8000E9BE70B58C1810F8015B15F0070301D1B1
:100A900010F8013B2A1106D110F8012B03E010F8E1
:100AA000016B01F8016B5B1EF9D12B0705D4002304
:100AB000521E0DD401F8013BFAE710F8013BCB1AA6
:100AC000921C03E013F8015B01F8015B521EF9D59B
:100AD000A142D8D3002070BD8268002922F0010213
:100AE00018BF0132826070478268002922F4807248
:100AF00018BF02F580728260704700008068C0F302
:100B0000800070478068C0F3C000704780B54268BD
:100B10004FF6FF63CFF6F07302EA030C0B680A7915
:100B200043EA0C0343EA0222426082684FF2FD73FB
:100B3000CFF6F17302EA030CD1E902E24B7942EA03
:100B40000C0242EA0E0242EA43028260C26A097C57
:100B500022F470020139C9B242EA0151C16280BD7A
:100B6000B0B501EB410C4FF0100E092988BFACF174
:100B70001E0C88BF4FF00C0E50F80E40072505FAEA
:100B80000CF5AC4303FA0CF3234340F80E30062A6D
:100B900002EB820303D834306FF0040207E00C2A22
:100BA00087BF2C306FF0400230306FF022021A44C1
:100BB00003681F259540AB43914019430160B0BDC8
:100BC000816841F008018160704700008268002957
:100BD00022F4A00218BF02F5A00282607047000054
:100BE000816841F00401816070470000FEE7000069
:100BF00002684FF6FE7C42F00103002908BF02EABA
:100C00000C0303607047000002684FF6FE731A4041
:100C10007F230421C4F20203C4F202010260002215
:100C20009842026042608260C26016DC4322C4F2D5
:100C3000020290422CDC0822C4F20202904251D0FF
:100C40001C22C4F2020290424ED03022C4F20202B0
:100C500090425ED14FF4706058E040F22F42C4F2EF
:100C60000202904226DC8022C4F2020290423DD071
:100C700040F20842C4F2020290423AD040F21C42D2
:100C8000C4F20202904244D101F58061F0203DE0BF
:100C90004422C4F20202904236D05822C4F2020228
:100CA00090421CD06C22C4F20202904231D14FF427
:100CB00070002BE040F23042C4F2020290421CD09D
:100CC00040F24442C4F2020290421BD040F2584229
:100CD000C4F20202904218BF704701F580614FF4E0
:100CE000702013E00F2011E0F0200FE04FF0706053
:100CF0000CE001F580610F2008E001F580614FF400
:100D0000706003E001F580614FF470400A681043A1
:100D1000086070472DE9F047026847F6F073D1E9A3
:100D2000026A9A4301F11007B0CF01F11C0E324361
:100D3000D1E900899EE80A501A4322432A433A43E4
:100D4000114341EA0C0141EA0E010160C0F804A020
:100D5000C0F80880C0F80C90BDE8F087704700002C
:100D600010B5002808BF10BD4EF2100141F6401C1E
:100D7000CEF20001C0F2010C4FF0000E0522042358
:100D8000C1F804C0C1F808E00A6000BF0C68E403C1
:100D9000FCD501380B60F3D110BD00004EF21001FC
:100DA00000EBC000CEF20001C00048600020886067
:100DB000052008600868C003FCD50420086070475F
:100DC0002DE9F047CA7802F00F0CD30644BF8B78A8
:100DD0004CEA030C09880B0625D082465AF8144BBE
:100DE00000F1100E00254FF001094FF00F08002709
:100DF00006E000BF1E600137082F05F1040511D081
:100E000009FA07F60E42F6D008FA05F324EA0303BE
:100E10000CFA05F41C43282A5346EBD0482AEAD1A1
:100E20007346E7E70460B1F5807F38BFBDE8F0871F
:100E3000436800F1100E00F1140900254FF4807A88
:100E40004FF00F08002705E034600137082F05F147
:100E5000040512D00AFA07F404EA0106A642F4D106
:100E600008FA05F6B3430CFA05F63343282A4E4632
:100E7000EAD0482AE9D17646E6E74360BDE8F08744
:100E8000B0B50422C4F20102134602F1180E002884
:100E900048BF73461C6800F44013B3F5401F1FFAA7
:100EA00080FC06D1156824F0706325F0706414602E
:100EB00015E0C3020AD46FF00F0303EA50430CFAA3
:100EC00003F324EA030343F0706308E0C0F3034331
:100ED000032505FA03F324EA030343F070636FF07C
:100EE0000F0404EA504400290CFA04F518BF2B4300
:100EF000002848BF72461360B0BD000080680840FB
:100F000018BF012070470000016170471023002ABC
:100F100008BF1423C1507047FEE7000010B582B02F
:100F20000420012101F062FF41F6000040F60004B8
:100F3000C1F20340C4F20104019001A92046FFF769
:100F40003FFF20464FF4C051FFF7DEFF02B010BD57
:100F5000B0B540F60004C4F2010420464FF48051BD
:100F60000122FFF7D3FF0A20FFF718FF20464FF4B6
:100F700000610122FFF7CAFF0A20FFF70FFF20469A
:100F80004FF48051FFF7BAFF05460A20FFF706FF2E
:100F900020464FF400610022FFF7B8FF0A20FFF758
:100FA000FDFE2846B0BD00002DE9F04140F60004EA
:100FB0000026C4F201044FF08008002720464FF4B9
:100FC00000610122FFF7A2FF0A20FFF7E7FE20469B
:100FD0004FF48051FFF792FF05460A20FFF7DEFE2F
:100FE00028FA06F0002D18BF074320464FF4006191
:100FF0000022FFF78BFF0A20FFF7D0FE0136082EF4
:10100000DCD1F8B2BDE8F08110B540F60004C4F2BE
:101010000104024620464FF48051FFF777FF0A2073
:10102000FFF7BCFE20464FF400610122FFF76EFF80
:101030000A20FFF7B3FE20464FF400610022FFF7BD
:1010400065FF0A20BDE81040FFF7A8BEF0B581B0EB
:1010500040F6000504460026C4F20105802700BFC3
:1010600027FA06F000EA040228464FF48051FFF701
:101070004DFF0A20FFF792FE28464FF4006101223F
:10108000FFF744FF0A20FFF789FE28464FF400616E
:101090000022FFF73BFF0A20FFF780FE0136082EF3
:1010A000DED101B0F0BD000010B540F60004C4F27E
:1010B000010420464FF480510122FFF727FF0A2048
:1010C000FFF76CFE20464FF400610122FFF71EFF80
:1010D0000A20FFF763FE20464FF480510022FFF7FD
:1010E00015FF0A20FFF75AFE20464FF40061002248
:1010F000FFF70CFF0A20BDE81040FFF74FBE0000CD
:1011000010B540F60004C4F2010420464FF48051AB
:101110000022FFF7FBFE0A20FFF740FE20464FF4B7
:1011200000610122FFF7F2FE0A20FFF737FE20469A
:101130004FF480510122FFF7E9FE0A20BDE810407C
:10114000FFF72CBE2DE9F04F8DB0DDE91654CDE947
:101150000A120890284629461E46FFF73BF8074624
:1011600030463146FFF736F83946FEF7DBFF0746D3
:1011700020462146FFF72EF83946FEF7D3FF03F04D
:101180001BFA074630463946FFF756F804902846C2
:101190003946FFF751F8039020463946FFF74CF8DF
:1011A00040F6A401C2F200010F6840F6AC01C2F2A1
:1011B0000001D1F800A040F2F871C2F200010D6800
:1011C00040F6A801C2F20001D1F800B002905846E2
:1011D0002946FEF7FFFF044638465146FEF7FAFF60
:1011E0002146FEF7F1FF0146FEF79CFF814650467F
:1011F0005946FEF7EFFF064628463946FEF7EAFF56
:101200003146FEF78FFF0146FEF78CFF87F0004165
:1012100080460691384639460997FEF7DBFF0646B9
:10122000284629460795FEF7D5FF3146FEF7CCFF45
:10123000064658465946CDF830B0FEF7CBFF01467A
:101240003046FEF7C1FF064650465146CDF814A081
:10125000FEF7C0FF3146FEF765FF029C064640469A
:101260002146FEF7B7FFDDF80CB007465846314679
:10127000FEF7B0FF3946FEF7A7FF049D0746019031
:1012800030462946FEF7A6FF064620464946FEF7A9
:10129000A1FF3146FEF798FF824648465946FEF7C1
:1012A00099FF044628464146FEF794FF2146FEF783
:1012B0008BFF40F6980441F26F2BC2F20004C3F694
:1012C000832B2568804638465946FEF783FF29461A
:1012D000FEF728FF40F69C07C2F2000706463D686D
:1012E000206050465946FEF775FF2946FEF71AFF63
:1012F00040F6A009C2F200090546D9F8004038605E
:1013000040465946FEF766FF2146FEF70BFF4CF6B6
:10131000CD4B0746C9F80000C3F64C7B01985946EF
:10132000FEF758FF0899FEF7FDFE3146FEF7FAFE7C
:10133000064650465946FEF74DFF0A99FEF7F2FE63
:101340002946FEF7EFFE814640465946FEF742FF2A
:101350000B99FEF7E7FE3946FEF7E4FE0C9D80464A
:1013600048462946FEF736FF044606983146B246FF
:10137000FEF730FF2146FEF727FFDDF814B00446E4
:1013800058464146FEF726FF01462046FEF71CFF61
:1013900041F26F27C3F683373946FEF71BFF01463C
:1013A0000798FEF7BFFE044640F2F870C2F2000054
:1013B000046028464146FEF70DFF0646204651468A
:1013C000FEF708FF3146FEF7ADFE06465846494691
:1013D000FEF700FF01463046FEF7F6FE39463D4671
:1013E000FEF7F8FE01460998FEF79CFE074640F618
:1013F000A400C2F20000076040463946FEF7EAFE4C
:10140000064620464946FEF7E5FE3146FEF7DCFE7D
:10141000064658465146FEF7DDFE3146FEF782FE8F
:101420002946FEF7D7FE01460C98FEF77BFE0646DE
:1014300040F6A800C2F20000066048463946FEF7B2
:10144000C9FE054620464146FEF7C4FE2946FEF782
:1014500069FE054630465146FEF7BCFE0146284669
:10146000FEF7B2FE41F26F21C3F68331FEF7B2FE02
:1014700001465846FEF756FE40F6AC09C2F2000996
:101480000546C9F8000038463946FEF7A3FE074670
:1014900020462146FEF79EFE3946FEF743FE0446EF
:1014A00030463146FEF796FE2146FEF73BFE0446E7
:1014B00028462946FEF78EFE2146FEF733FE03F04E
:1014C0007BF840F2F87BC2F2000BDBF80010054617
:1014D00008462946FEF7B0FE40F6A408C2F200080E
:1014E0000446D8F800002946CBF80040FEF7A4FED9
:1014F00040F6A80AC2F2000A0646DAF800002946B9
:10150000C8F80060FEF798FE0746D9F800002946A3
:10151000CAF80070FEF790FE3146C9F80000FEF7E9
:1015200059FE054620463946FEF754FE2946FEF789
:101530004BFE0146FEF7F6FDFFF78FF802F0C6FE00
:101540004AF2DC54C4F24C044FF000522346FEF73A
:1015500058FFFFF795F840F61C03DAF80020C2F2B6
:101560000003D9F80010DBF80050D8F800601860CC
:101570001046FEF72FFE074628463146FEF72AFEA4
:101580003946FEF7CFFD0146FEF7CCFDFFF765F8C3
:1015900002F09CFE4FF000522346FEF732FFFFF7A9
:1015A0006FF840F62C01C2F2000108600DB0BDE8F2
:1015B000F08F0000B0B582B001F014FF1C200121B3
:1015C00001F014FC48F2F21040F60004C4F60300E7
:1015D000C4F2010401AD019020462946FFF7F0FB5B
:1015E0004FF4E050ADF8040004F580602946FFF7A1
:1015F000E7FB4FF40050ADF8040004F50060294605
:10160000FFF7DEFB02B0B0BDB0B540F60004C4F297
:10161000010404F500604FF40051FFF76FFCE8B3DC
:1016200020464FF40041FFF769FCC8B32046022171
:10163000FFF764FCB0B304F5806528464FF4805191
:10164000FFF75CFC80B320462021FFF757FC68B30E
:1016500020461021FFF752FC50B320464021FFF7EF
:101660004DFC38B320468021FFF748FC20B32846C4
:101670004FF48061FFF742FC00B320464FF48071C5
:10168000FFF73CFCE0B128464FF40061FFF736FC61
:101690006FF00701002808BF032112E0092110E0C4
:1016A0000A210EE00B210CE00C210AE00D2108E0DC
:1016B0000E2106E00F2104E0002102E0012100E0FC
:1016C000022101F00F004FF60F61C140C90708BFAA
:1016D000B0BD04A1085C40F61901C2F20001087017
:1016E000B0BD00BF08090A0B01010101010102039D
:1016F0000405060780B500F007F840F61801C2F2AD
:101700000001087080BD000070B540F60004C4F20E
:10171000010404F5006528464FF40051FFF7EEFB85
:1017200008B1002615E01420FFF71AFB28464FF4F5
:101730000051FFF7E3FB08B1002603E01420FFF798
:101740000FFB012628464FF40051FFF7D7FB002876
:10175000F8D0002E1CBF012070BD20464FF4004180
:10176000FFF7CCFB08B1002515E01420FFF7F8FACD
:1017700020464FF40041FFF7C1FB08B1002503E00C
:101780001420FFF7EDFA012520464FF40041FFF742
:10179000B5FB0028F8D0002D1CBF022070BD2046EC
:1017A0000221FFF7ABFB08B1002513E01420FFF77F
:1017B000D7FA20460221FFF7A1FB08B1002503E07C
:1017C0001420FFF7CDFA012520460221FFF796FBF2
:1017D0000028F9D0002D1CBF032070BD04F58065E2
:1017E00028464FF48051FFF789FB08B1002616E028
:1017F0001420FFF7B5FA28464FF48051FFF77EFB1F
:1018000008B1002604E01420FFF7AAFA012600BF61
:1018100028464FF48051FFF771FB0028F8D0002EC6
:101820001CBF042070BD20462021FFF767FB08B1D4
:10183000002613E01420FFF793FA20462021FFF73B
:101840005DFB08B1002603E01420FFF789FA0126AA
:1018500020462021FFF752FB0028F9D0002E1CBFA4
:10186000052070BD20461021FFF748FB08B1002677
:1018700014E01420FFF774FA20461021FFF73EFB16
:1018800008B1002604E01420FFF76AFA012600BF21
:1018900020461021FFF732FB0028F9D0002E1CBF94
:1018A000062070BD2046402100F02AF8012804BF20
:1018B000072070BD2046802100F022F8012804BFD7
:1018C000082070BD28464FF4806100F019F8012807
:1018D00004BF092070BD20464FF4807100F010F85D
:1018E000012804BF0A2070BD28464FF4006100F0B3
:1018F00007F801460020012908BF0B2070BD000039
:1019000070B50C460546FFF7F9FA00281CBF002009
:1019100070BD1420FFF724FA28462146FFF7EEFA9F
:1019200008B1002604E01420FFF71AFA012600BFD0
:1019300028462146FFF7E2FA0028F9D0304670BD6C
:1019400080B584B000210391CDE9011145F24D022B
:10195000411EC5F64B12C9B20A2900929EBF6A46C3
:101960001144087130208DF80F0000F015FE684614
:1019700000F0A2FE202809D140F60C40C4F201007C
:10198000016881F00801016004B080BD02A002F08E
:10199000DBFD04B080BD00BF524F434B4552205386
:1019A000656E64206661696C65642021000000003A
:1019B00070B582B01820012101F018FA41F200043C
:1019C0000820C4F20104C1F20300A4F5806501AE51
:1019D000019028463146FFF7F3F94FF44040ADF847
:1019E000040020463146FFF7EBF928460821FFF7AF
:1019F0008BFA20464FF48041FFF786FA20464FF4D9
:101A00000041FFF781FA02B070BD00002DE9F04FF0
:101A100089B005A800F08CF8BDF91400BDF9165086
:101A2000BDF91840FEF7CEFD00224FF07D5307466A
:101A30008B46FEF7E6FCFEF723FE40F60001C2F2FD
:101A40000001049008602846FEF7BCFD00224FF01C
:101A50007D5305460E46FEF7D4FCFEF711FE40F618
:101A60000401C2F20001039008602046FEF7AAFDBF
:101A700000224FF07D5304468846FEF7C2FCFEF775
:101A8000FFFD824640F6080046F26669C2F2000099
:101A9000C4F23009C0F800A0384659464FF066320B
:101AA0004B46FEF720FDFEF7EBFD074640F60C0027
:101AB000C2F200000760284631464FF066324B46BE
:101AC000FEF711FDFEF7DCFD054640F61000C2F200
:101AD00000000560204641464FF066324B46FEF757
:101AE00002FDFEF7CDFD044640F614004FF6392600
:101AF000C2F20000C3F68E46046038463146FEF757
:101B000069FB074628463146FEF764FB054620463A
:101B10003146FEF75FFB02460398049B009038466F
:101B20002946CDF804A0FFF70DFB09B0BDE8F08F02
:101B300070B50446FFF7B8FAD020FFF787FAFFF731
:101B400007FA3B20FFF782FAFFF702FAFFF7ACFA39
:101B5000D120FFF77BFAFFF7FBF9FFF725FA0546DF
:101B60000120FFF751FAFFF7CBFA28022080FFF798
:101B70009BFAD020FFF76AFAFFF7EAF93C20FFF75B
:101B800065FAFFF7E5F9FFF78FFAD120FFF75EFA64
:101B9000FFF7DEF9FFF708FA05460120FFF734FAF0
:101BA000FFF7AEFA208828432080FFF77DFAD02087
:101BB000FFF74CFAFFF7CCF93D20FFF747FAFFF7A4
:101BC000C7F9FFF771FAD120FFF740FAFFF7C0F924
:101BD000FFF7EAF905460120FFF716FAFFF790FA3A
:101BE00028026080FFF760FAD020FFF72FFAFFF796
:101BF000AFF93E20FFF72AFAFFF7AAF9FFF754FAE8
:101C0000D120FFF723FAFFF7A3F9FFF7CDF9054637
:101C10000120FFF7F9F9FFF773FA60882843608025
:101C2000FFF742FAD020FFF711FAFFF791F93F20B2
:101C3000FFF70CFAFFF78CF9FFF736FAD120FFF720
:101C400005FAFFF785F9FFF7AFF905460120FFF721
:101C5000DBF9FFF755FA2802A080FFF725FAD0201C
:101C6000FFF7F4F9FFF774F94020FFF7EFF9FFF7FA
:101C70006FF9FFF719FAD120FFF7E8F9FFF768F9D4
:101C8000FFF792F905460120FFF7BEF9FFF738FA92
:101C9000A0882843A080FFF707FAD020FFF7D6F9E5
:101CA000FFF756F94320FFF7D1F9FFF751F9FFF796
:101CB000FBF9D120FFF7CAF9FFF74AF9FFF774F9EA
:101CC00005460120FFF7A0F9FFF71AFA2802E08085
:101CD000FFF7EAF9D020FFF7B9F9FFF739F9442007
:101CE000FFF7B4F9FFF734F9FFF7DEF9D120FFF77A
:101CF000ADF9FFF72DF9FFF757F905460120FFF77A
:101D000083F9FFF7FDF9E0882843E080FFF7CCF97D
:101D1000D020FFF79BF9FFF71BF94520FFF796F955
:101D2000FFF716F9FFF7C0F9D120FFF78FF9FFF79A
:101D30000FF9FFF739F905460120FFF765F9FFF7BD
:101D4000DFF928022081FFF7AFF9D020FFF77EF9F5
:101D5000FFF7FEF84620FFF779F9FFF7F9F8FFF7EC
:101D6000A3F9D120FFF772F9FFF7F2F8FFF71CF99A
:101D700005460120FFF748F9FFF7C2F920892843FB
:101D80002081FFF791F9D020FFF760F9FFF7E0F825
:101D90004720FFF75BF9FFF7DBF8FFF785F9D12064
:101DA000FFF754F9FFF7D4F8FFF7FEF805460120D6
:101DB000FFF72AF9FFF7A4F928026081FFF774F909
:101DC000D020FFF743F9FFF7C3F84820FFF73EF9AB
:101DD000FFF7BEF8FFF768F9D120FFF737F9FFF7F3
:101DE000B7F8FFF7E1F805460120FFF70DF9FFF717
:101DF00087F9608928436081FFF756F9D020FFF703
:101E000025F9FFF7A5F84120FFF720F9FFF7A0F823
:101E1000FFF74AF9D120FFF719F9FFF799F8FFF713
:101E2000C3F805460120FFF7EFF8FFF769F9FFF760
:101E30003BF9D020FFF70AF9FFF78AF84220FFF7B5
:101E400005F9FFF785F8FFF72FF9D120FFF7FEF826
:101E5000FFF77EF8FFF7A8F806460120FFF7D4F851
:101E6000FFF74EF946EA052000B2FEF7ABFB44F25D
:101E70000003C4F275030022FEF735FB47F2A4020B
:101E800044F2D733C0F63D22C4F24203FEF712FA01
:101E9000FEF7F6FBE06070BD80B5FFF73FF8FFF797
:101EA00003F9D020FFF7D2F8FFF752F86B20FFF7C5
:101EB000CDF8FFF74DF80120FFF7C8F8FFF748F815
:101EC000FFF71EF9FFF7F0F8D020FFF7BFF8FFF794
:101ED0003FF86C20FFF7BAF8FFF73AF80020FFF759
:101EE000B5F8FFF735F8FFF70BF9FFF7DDF8D0206D
:101EF000FFF7ACF8FFF72CF81920FFF7A7F8FFF76A
:101F000027F80720FFF7A2F8FFF722F8FFF7F8F805
:101F1000FFF7CAF8D020FFF799F8FFF719F81A2051
:101F2000FFF794F8FFF714F80620FFF78FF8FFF794
:101F30000FF8FFF7E5F8FFF7B7F8D020FFF786F8BE
:101F4000FFF706F81B20FFF781F8FFF701F81820CC
:101F5000FFF77CF8FEF7FCFFFFF7D2F8FFF7A4F8D5
:101F6000D020FFF773F8FEF7F3FF1C20FFF76EF8A1
:101F7000FEF7EEFF1820FFF769F8FEF7E9FFBDE86E
:101F80008040FFF7BDB8000070B58AB02F480DF152
:101F9000180C05902DA0031D00690ECB099001A817
:101FA0008CE80E00FFF7C4FD40F61C00C2F20000F2
:101FB00044F2000450210068C4F21C648DF814102F
:101FC0002146FEF707F9FEF71BFB48F21F55C5F245
:101FD000EB1580FB0512511101EBD271642601FB58
:101FE00016008DF815108DF8160040F62C00C2F280
:101FF0000000522100688DF817102146FEF7EAF81C
:10200000FEF7FEFA80FB0512511101EBD27101FBC4
:1020100016008DF818108DF8190030208DF81A0070
:1020200000F0BAFA05A800F047FB202809D140F6D5
:102030000C40C4F20100016881F0080101600AB09F
:1020400070BD07A002F080FA0AB070BD3000000039
:102050000000000000000000000000000000000080
:10206000524F434B45522053656E64206661696C44
:102070006564202100000000FEE700002DE9F04724
:1020800084B000F0A1FF40F2E874C2F200042078AE
:1020900000F096FC40F61A05C2F2000528780328E5
:1020A0000DD120780130207000F09EFB207800F0E8
:1020B00087FC00BF00F088FF28780428FAD1287830
:1020C00002280CD120780138207000F08DFB207898
:1020D00000F076FC00F078FF28780428FAD1207808
:1020E000082824BF072020702078002804BF012082
:1020F00020702178481E052836D8DFE810F0060049
:102100006300C500DC00FC001E0140F61800C2F2AE
:1021100000000078092840F03C8100F065FB44F69F
:102120009C42C0F600020120012100F003FD40F2B4
:10213000E97440F62007C2F2000445F64C16C2F2DC
:10214000000700BF00F028FA268000BF204600F0FC
:10215000B3FA2028FAD000F037FF28780228F1D10E
:1021600038780228EED112E1072940F0128140F6BA
:102170001800C2F200000078092840F00A8100F03F
:1021800033FBA0A20120012100F0D4FC40F2E9744D
:1021900040F62007C2F2000444F65746C2F2000798
:1021A00000F0FAF9268000BF204600F085FA2028CA
:1021B000FAD000F009FF28780228F1D138780228F7
:1021C000EED1E4E040F61806C2F2000630780928A5
:1021D00040F0DF8000F008FB7EA20120012100F02A
:1021E000A9FC0DF104080FF200290FF2002A80A7C4
:1021F00080A481A5FFF788FA307000F053FE4046B6
:1022000000F0A4FE022001214A4600F093FC0220C7
:102210000921524600F08EFC032001213A4600F0CD
:1022200089FC03200921224600F084FC04200121BE
:102230002A4600F07FFCBDF8082002200421032379
:1022400000F03EFCBDF8042002200C21032300F026
:1022500037FCBDF80A2003200421032300F030FCE2
:10226000BDF8062003200C21032300F029FC03986D
:10227000FEF7DFF9024604200A21032300F020FCC8
:1022800030780528B6D182E040F61804C2F2000486
:10229000207809287DD100F0A7FA4AA20120012167
:1022A00000F048FCFFF730FA2070FFF749FB207878
:1022B0000528F7D16BE040F61800C2F20000007864
:1022C000092866D100F090FA3AA20120012100F01D
:1022D00031FC40F62004C2F2000400BF00F074FE9E
:1022E00000F0E0FDFFF750FE28780228F6D12078B4
:1022F0000228F3D14BE040F61804C2F20004207823
:10230000092846D100F070FA27A20120012100F02F
:1023100011FC40F62006C2F2000600BFFFF7F4F9F8
:10232000207000F051FE2078FFF70AFB2878022881
:10233000F4D130780228F1D129E040F61800C2F239
:1023400000000078092824D100F04EFA12A20120E2
:10235000012100F0EFFB40F2E97440F62007C2F2E1
:10236000000445F64226C2F2000700BF00F014F94F
:10237000268000BF204600F09FF92028FAD000F008
:1023800023FE28780228F1D138780228EED100F017
:102390002BFA04B0BDE8F08741564F4944206D6FD9
:1023A00064652021000000004B4559206D6F646575
:1023B0002021000047524156495459206D6F6465F1
:1023C000202100004D503320504C4159206D6F6446
:1023D00065202100526F636B6572206D6F6465200C
:1023E00021202020000000004C583A0052583A00AA
:1023F0004C593A0052593A00426174746572793A04
:1024000000000000575332383132206D6F64652070
:10241000210000007047000070B584B06FF03D00EF
:102420008DF80C004FF0C2300290002500208DF88E
:102430000450009500F024FF302000F07BF802AC3F
:10244000605D013500F076F8052DF9D1012000F02E
:1024500017FF0020002600F013FF102000F06AF89C
:102460006D4600BFFF2000F065F8A8550136052E27
:10247000F8D1012000F004FF002000BF215C2A5C9D
:10248000914204D1042800F10100F7D3052005385A
:10249000B0FA80F0400904B070BD000010B5FFF73D
:1024A000BBFF78B90BA400BF204601F015FA0A2043
:1024B00002F044F84FF47A70FEF752FCFFF7ACFFDD
:1024C0000028F1D009A001F007FA0A20BDE8104069
:1024D00002F034B84E524632344C30315F436865B6
:1024E000636B206661696C65642021004E52463240
:1024F000344C30315F436865636B2073756363658B
:10250000656420210000000080B582B00820012110
:1025100000F06CFC40F24010C1F20300019040F664
:102520000040C4F2010001A9FEF74AFC00F07EFE63
:1025300002B080BD2DE9F04381B040F600458146F0
:102540000026C4F201054FF08008002728FA06F49F
:1025500004EA090228464FF40041FEF7D7FC28465A
:102560004FF400510122FEF7D1FC28464FF4804180
:10257000FEF7C4FC012828464FF400514FF000023A
:1025800008BF2743FEF7C2FC0136082EDED1F8B2A1
:1025900001B0BDE8F083000070B540F60044C4F21D
:1025A0000104204640210022FEF7B0FC002000F08C
:1025B00067FE3020FFF7BEFF40F2F370C2F200006A
:1025C000451E052615F8010FFFF7B4FF013EF9D1AE
:1025D000012000F055FE002000F052FE2A20FFF7F7
:1025E000A9FF40F2EE70C2F20000451E052600BFB2
:1025F00015F8010FFFF79EFF013EF9D1012000F011
:102600003FFE002000F03CFE2120FFF793FF012059
:10261000FFF790FF012000F033FE002000F030FEB5
:102620002220FFF787FF0120FFF784FF012000F041
:1026300027FE002000F024FE2420FFF77BFF1A2055
:10264000FFF778FF012000F01BFE002000F018FECD
:102650002520FFF76FFF1920FFF76CFF012000F026
:102660000FFE002000F00CFE2620FFF763FF0F2076
:10267000FFF760FF012000F003FE002000F000FEE5
:102680002020FFF757FF0E20FFF754FF012000F036
:10269000F7FD002000F0F4FD2720FFF74BFFFF209F
:1026A000FFF748FF012000F0EBFD2046402101220A
:1026B000BDE87040FEF72ABC70B540F60044C4F295
:1026C000010405462046402100220026FEF71EFC9C
:1026D000002000F0D5FDA020FFF72CFF013D00BF3A
:1026E00015F8010FFFF726FF132E06F10106F7D3A9
:1026F000012000F0C5FD204640210122FEF706FC26
:1027000020464FF48071FEF7F9FB0028F8D1002035
:1027100000F0B6FD0720FFF70DFFFF20FFF70AFFCF
:102720000446012000F0ACFD002000F0A9FD2720A8
:10273000FFF700FF2046FFF7FDFE012000F0A0FD9F
:10274000E00607D4A0064FF0200058BF4FF0FF303E
:10275000C0B270BD002000F093FDE120FFF7EAFE5B
:10276000FF20FFF7E7FE012000F08AFD1020C0B235
:1027700070BD000010B5C17800294EF20011CEF2F4
:1027800000011AD04EF60C52CEF200021268072356
:1027900023EA12220F23C2F1040C23FA02F2437837
:1027A000847890F800E003FA0CF322401A431201F7
:1027B00001EB0E0383F8002300E080310078012351
:1027C00000F01F0203FA02F2C0F3421041F8202089
:1027D00010BD000040F080604EF60C5140F0FD70DE
:1027E000CEF2000108607047B0B5002444F0B0009C
:1027F000C0B200F0B5F9102000F0B2F900200025B9
:1028000000F0AEF9002000F039FA681C45B2B5F1CD
:10281000FF3FF7DCE0B20134072828BFB0BDE5E791
:102820002DE9F04F83B09942CDE9013234D2074609
:10283000000900F1100A02980C9D0E4607F00F04E3
:10284000C01B4FF00008009007E000BFC3460136F0
:102850000199F0B28842D8461ED246F0B000C0B20C
:1028600000F07EF9504600F07BF9204600F078F940
:102870000298B842EAD9009800EB080915F8080058
:1028800008F1010B00F0FAF95FFA8BF05FFA89F1B9
:102890008142D846F2D1DAE703B0BDE8F08F0000FC
:1028A000B0B582B00820012100F0A0FA012001217A
:1028B00000F09CFA40F20020C0F230000121FEF747
:1028C000DFFA202040F60044C1F20340C4F20104C4
:1028D00001AD019020462946FEF772FA1020ADF8AE
:1028E000040020462946FEF76BFA204620210122EB
:1028F000FEF70CFB204610210122FEF707FBAE205D
:1029000000F02EF9D52000F02BF9802000F028F9F6
:10291000A82000F025F93F2000F022F9D32000F094
:102920001FF90020002400F01BF9402000F018F9E6
:10293000A12000F015F9C82000F012F9DA2000F00B
:102940000FF9122000F00CF9812000F009F9CF20D6
:1029500000F006F9D92000F003F9F12000F000F9A9
:10296000DB2000F0FDF8302000F0FAF8A42000F0A1
:10297000F7F8A62000F0F4F88D2000F0F1F814200C
:1029800000F0EEF8AF2000F0EBF800BF44F0B0002C
:10299000C0B200F0E5F8102000F0E2F800200025B9
:1029A00000F0DEF8002000F069F9681C45B2B5F1CE
:1029B000FF3FF7DCE0B201340728E7D302B0B0BD37
:1029C0000138C1B2062988BF704710B582B040B245
:1029D00009A151F820200FA151F820400120012128
:1029E00000F0A8F828200221582208230094FFF7BD
:1029F00017FF02B010BD00BFAD4C00086C4C0008C2
:102A00007C4C00088C4C00083C4C00084C4C0008E6
:102A10005C4C000868030020A80500208804002002
:102A2000C8060020480200200800002028010020DD
:102A30002DE9F04381B016467E224FEA400802EBB2
:102A400040006FF0070240F0B00002EBC104C0B2DA
:102A5000E5B200F085F8280900F11009484600F0B9
:102A60007FF804F00805284600F07AF844F24C603C
:102A7000C0F6000000EB0616A6F20127082400BFEE
:102A800017F8010F00F0FAF8013CF9D1A8F10100A4
:102A900040F0B000C0B200F063F8484600F060F8C3
:102AA000284600F05DF8A6F2F914082514F8010F85
:102AB00000F0E4F8013DF9D101B0BDE8F083000079
:102AC0002DE9F047002B08BFBDE8F0874CF6CD4A52
:102AD0001C469046894607465D420026CCF6CC4A05
:102AE00018E000BF0120B8FBF0F0A0FB0A12D208EA
:102AF00002EB8202A0EB420006EB090140F030003D
:102B0000C2B2C9B23846FFF793FF0136A64205F1BB
:102B100001050DD0F0430019E4D00120294600BF83
:102B200000EB800001314A1C4FEA4000F8D1DAE79F
:102B3000BDE8F087F0B581B0144612786AB10D4651
:102B4000064600277819C1B2D2B23046FFF770FFAF
:102B50000137F8B2225C002AF4D101B0F0BD0000C8
:102B6000F0B581B040F60044C4F2010405462046A9
:102B700010210122FEF7CAF9204620210122FEF78A
:102B8000C5F92046102100220026FEF7BFF9204695
:102B900020210022FEF7BAF9802700BF27FA06F0AD
:102BA00000F0780220461021FEF7B0F920462021DF
:102BB0000122FEF7ABF9204620210022FEF7A6F9FC
:102BC0000136082EEAD1204620210122FEF79EF987
:102BD000204620210022FEF799F9082620461021E0
:102BE0000022FEF793F9204620210122FEF78EF9FC
:102BF000204620210022FEF789F9013EEED1204631
:102C000020210122FEF782F9204620210022002601
:102C1000FEF77CF9802700BF27FA06F000EA0502DC
:102C200020461021FEF772F9204620210122FEF7EE
:102C30006DF9204620210022FEF768F90136082EA2
:102C4000EAD1204620210122FEF760F9204620210A
:102C50000022FEF75BF9204610210022FEF756F90C
:102C6000204620210122FEF751F9204610210122A1
:102C700001B0BDE8F040FEF749B90000F0B581B001
:102C800040F60044C4F2010405462046102101220A
:102C9000FEF73CF9204620210122FEF737F92046B5
:102CA000102100220026FEF731F9204620210022C3
:102CB000FEF72CF9802700BF27FA06F000F0780213
:102CC00020461021FEF722F9204620210122FEF79E
:102CD0001DF9204620210022FEF718F90136082EA2
:102CE000EAD1204620210122FEF710F920462021BA
:102CF00000220026FEF70AF9802700BF27FA06F017
:102D000000F0400220461021FEF700F92046202165
:102D10000122FEF7FBF8204620210022FEF7F6F8FC
:102D20000136082EEAD1204620210122FEF7EEF8D6
:102D30002046202100220026FEF7E8F8802700BF69
:102D400027FA06F000EA050220461021FEF7DEF819
:102D5000204620210122FEF7D9F82046202100221A
:102D6000FEF7D4F80136082EEAD1204620210122B0
:102D7000FEF7CCF8204620210022FEF7C7F82046B7
:102D800010210022FEF7C2F8204620210122FEF782
:102D9000BDF820461021012201B0BDE8F040FEF749
:102DA000B5B800007047000041F20401C4F202010E
:102DB0000A6822F44042104308607047002941F23B
:102DC0001401C4F202010A680CBF22EA0000104399
:102DD00008607047002941F21C01C4F202010A6830
:102DE0000CBF22EA0000104308607047002941F23E
:102DF0001801C4F202010A680CBF22EA0000104365
:102E00000860704710B541F20404C4F2020422685D
:102E100002F00C02082A41F20022C0F27A021CD110
:102E20002368D4F800C0C3F3834E5FEACC330EF1BD
:102E3000020C06D440F60012C0F23D020CFB02F276
:102E40000BE023689B0302D40CFB02F205E040F682
:102E50000012C0F23D020CFB02F20260226844F252
:102E60003C63C2F30312C0F600039A5C0168D140D0
:102E700041602268C2F302229A5C21FA02F2826067
:102E80002268C2F3C2229A5C44F23863D140C16026
:102E90002268C0F60003C2F381329A5CB1FBF2F102
:102EA000016110BD80B584B00021CDE9021140F66A
:102EB0002201C2F200018A8864235A43C8884FEA7B
:102EC000123E0A88498858434FF0300C000B5A4391
:102ED000594345F65213CDF804C0120B090BADF857
:102EE000043058238DF8080045F64C108DF806E0A4
:102EF0008DF80730ADF809008DF80B208DF80C30F7
:102F00008DF80D108DF80EC0FFF746FB01A8FFF7F6
:102F1000D3FB202809D140F60C40C4F2010001681F
:102F200081F00801016004B080BD02A001F00CFB3B
:102F300004B080BD524F434B45522053656E642010
:102F40006661696C656420210000000010B50446CC
:102F500040F62200C2F20000818864225143090B2E
:102F60006180C1885143090B218001884388514306
:102F7000090BE18003FB02F1090BA1800089FDF739
:102F800032FB46F26663C4F20A034FF06632FDF785
:102F900038FA0023C3F630730022FDF732FAFDF74A
:102FA0006FFB0021C4F24001FDF714F94CF6CD414E
:102FB000C4F26C01FDF740F90021C4F2C821FDF70D
:102FC00009F9A06010BD000080B540F62201C2F2F0
:102FD00000018888642358430A884FEA103EC88855
:102FE00049885A4358434FEA123C59436FF04A020A
:102FF000090BBEF1640F02EB103304D3000B1A2847
:1030000001D3182B14D80020192B38BF0120BEF192
:103010001A02AEF14B0338BF0220192B38BF032030
:10302000312A40F62002C2F2000238BF042010709C
:10303000BCF1640FA1F14B0228BF1A2902D3182A50
:1030400088BF80BD0020192A38BF0120BCF11A01B9
:10305000ACF14B0238BF0220192A38BF03203129B6
:1030600040F61A01C2F2000138BF0420087080BD8A
:10307000F0B58BB042F200440C200121C4F20104EF
:10308000FFF7B4FE0D206D46ADF800000026A4F554
:10309000E05029468DF80360FDF792FE0320ADF85D
:1030A0000000A4F5C05029468DF80360FDF788FEA6
:1030B0000825C4F202052846FDF7A6FD01200121DE
:1030C000FFF77CFE42F24C40C4F20100009040F653
:1030D0002200C2F20000CDE90106802005904FF4E5
:1030E000807006904FF480600790202008904FF485
:1030F00000500527CDE9090669462846CDE9037643
:10310000FDF708FE28460121FDF772FD4FF400701F
:103110000121FFF76BFE4FF46020029040F2011096
:10312000ADF8040069462046039600968DF81070AD
:10313000FDF7ECFC4FF44040FFF736FE204602213D
:1031400001220723FDF70CFD20460321022207235D
:10315000FDF706FD2046082103220723FDF700FDA9
:103160002046092104220723FDF7FAFC204600210E
:1031700005220723FDF7F4FC20460121FDF7B4FCEE
:1031800020460121FDF7A8FC1E20FDF707FE204682
:10319000FDF716FD2046FDF7B5FC0028FAD12046C4
:1031A000FDF71EFD2046FDF7A9FC0028FAD12046B8
:1031B0000121FDF70BFD0BB0F0BD000080B584B020
:1031C0004FF0000CCDE901CC8DF80CC08DF8040057
:1031D000000A8DF80500080A4FF6AA738DF807005B
:1031E000100AC0F203738DF806108DF808208DF8D0
:1031F00009004FF0FF306946002200938DF80AC0A5
:103200000B185B7801301A440A289444F8D143F62D
:1032100000008DF80B20C4F2010069460D228DF8E4
:103220000CC000F0E9FA04B080BD0000B0B582B077
:1032300008200121FFF7DAFD4AF2800040F6004441
:10324000C1F20300C4F2010401AD019020462946F9
:10325000FDF7B6FD44F20000C4F6030001902046DD
:103260002946FDF7ADFD204680210122FDF74EFEE7
:1032700020464FF400510022FDF748FE02B0B0BDD9
:10328000024640F60040C4F201008021FDF73EBE38
:10329000704700007047000082B041F20400C4F2A1
:1032A000020050F8041C002241F0010140F8041C07
:1032B0000168CFF6FF021140016050F8041C4FF680
:1032C000FF72CFF6F662114040F8041C50F8041C5F
:1032D00021F4802140F8041C016821F4FE01016002
:1032E0004FF41F01416000210191009150F8041C2E
:1032F00041F4803140F8041C50F8041C01F4003102
:103300000091019901310191009919B90199B1F523
:10331000A06FF1D150F8041C890354BF0021012192
:1033200000910099012936D142F20001C4F2020154
:103330000A6842F010020A600A6822F003020A607A
:103340000A6842F002020A600168016001680160D7
:10335000016841F480610160016821F47C11016021
:10336000016841F4E811016050F8041C41F08071DB
:1033700040F8041C50F8041C8901FBD5016821F0B9
:1033800003010160016841F002010160016801F080
:103390000C010829FAD14EF60850CEF200004FF089
:1033A0000061016002B0704780B54FF0804001219C
:1033B00000F060F8012818BF80BD40F63000C2F26E
:1033C000000001780131CAB2142A017003D3002130
:1033D0000170FEF719F94FF080400121BDE88040EF
:1033E00000F03AB880B584B001200121FFF7F2FC6B
:1033F0004FF0804000F052F840F2E730019040F288
:103400001B20009000208DF8080069464FF0804096
:1034100000F04AF84FF08040012100F019F84FF019
:1034200080400121012200F031F84FF0804001215D
:1034300000F016F84FF4A060FFF7CCF940F21C1032
:10344000C0F20210039003A8FFF794F904B080BD06
:10345000C943018270470000C943018270470000E0
:103460000288002918BF012122F0010211440180C5
:1034700070470000028A80890A4000EA010018BFF4
:103480000122002818BF012010407047002A8289BD
:103490000CBF22EA0101114381817047018921F0AB
:1034A000070101817047000040F6FF33B0F800C00B
:1034B000C4F2000398420FDCB0F1804F1ED040F2FE
:1034C0000043C4F20003984218D040F60003C4F24F
:1034D0000003984212D016E040F60043C4F2000305
:1034E00098420BD043F20043C4F20103984205D046
:1034F00042F60043C4F20103984204D14B882CF0F9
:10350000700243EA020C41F2004240F48063C4F2CC
:103510000002934204D0CA882CF4407342EA030CA0
:10352000A0F800C08A888285A0F18042A2F5963278
:103530000B884FEAB222072A038507D8012303FA32
:1035400002F212F0E50F1CBF097A01860121818287
:103550007047000010B543F60004C4F20104204691
:1035600040F2255100F066F8012818BF10BD204632
:1035700000F0ECF840F63101C2F200010A78C0B266
:10358000012A11D0AAB9402834D140F69700C2F2DE
:103590000000007870BB0120087040F63200C2F2D3
:1035A00000000021017025E00D2817D102200870CD
:1035B00020E00A281ED10020087040F63201C2F235
:1035C0000001097840F63302C2F20002505440F67E
:1035D0009700C2F20000012101700BE040F63201B9
:1035E000C2F200010A7840F63303C2F20003985495
:1035F000501C0870204640F22551BDE8104000F0F4
:1036000001B80000090A012202FA01F1C943018050
:10361000704700008289002918BF012122F400525E
:1036200042EA4131818170470088084018BF01207B
:1036300070470000C1F34212022A06D0012A14BFCB
:1036400000F1140200F10C0201E000F110021288F6
:10365000008801F01F03090ADA40C840104000F05A
:1036600001007047C1F3421301F01F0C1421022B1B
:1036700008BF1021012B4FF0010308BF0C21002AC5
:1036800003FA0CF243580CBF23EA02021A434250D9
:103690007047000070B586B00446008A0D46C988A0
:1036A00020F4405008432082A0894EF6F3110840D0
:1036B000A9882A896B89084310431843A081A08AEE
:1036C000A98920F44070084301AEA0823046FFF77C
:1036D00099FB43F6000106F10800C4F201018C4297
:1036E00008BF06F10C0000681922B4F90C10504311
:1036F0002A680123B1F1FF3FC8BF022302FA03F198
:10370000B0FBF1F048F21F51C5F2EB11A0FB012311
:103710005A096FF0630302FB0300B4F90C3003266F
:10372000B3F1FF3FC8BF042600FA06F000F13200F3
:10373000A0FB01014FF00700C8BF0F2000EA5110A5
:1037400040EA0210208106B070BD000080886FF34F
:103750005F2070476FF35F2181807047FEE70000B4
:10376000F0B585B0042001210427FFF73FFB43F6A5
:10377000000440F20020C4F20104C1F60300A4F5E5
:10378000405501AE019028463146FDF719FB4FF434
:103790008060ADF80400284631468DF80770FDF7CB
:1037A0000FFB4FF480400121FFF720FB4FF4165030
:1037B000019000204FF44021ADF81000CDE9020146
:1037C00001A92046FFF766FF204640F2255101225D
:1037D000FFF748FF20460121FFF71CFF4FF4A060D0
:1037E000FEF7F8FF40F22510C0F20110019001A889
:1037F000FEF7C0FF05B0F0BD70B5A2B114460D468E
:10380000064604E0200405F1010508BF70BD2978D3
:103810003046013CFFF79EFF30468021FFF704FF52
:103820000028F9D0EEE770BDB0B543F600050446B8
:103830000A28C4F2010509D128460D21FFF78AFFA5
:1038400028468021FFF7F0FE0028F9D0E1B2284693
:10385000FFF780FF28468021FFF7E6FE0028F9D019
:103860002046B0BDFFF71CF8FEF7A2F8FDF7A2FE58
:10387000FFF776FFFFF7FCFBFEF70EFBFEF744FEBB
:10388000FEF70CFE40F61C06002440F62C07C2F2A0
:103890000006C4F2C824C2F2000700BFFDF72AFFE9
:1038A000FEF7ECFB1E20FDF75BFAFEF7AFF8306881
:1038B0002146FCF78FFCFCF7A3FE39680546084655
:1038C0002146FCF787FCFCF79BFE014628460022B8
:1038D000FFF774FCE2E700000FB4054B10B503A935
:1038E000044A029800F05AF910BC5DF814FB00007D
:1038F0002938000800000020490050EAC12018BF04
:1039000004204A0D18BF40F0010040F2FF72B2EBF4
:10391000515F08BF40F00200012808BF0520704732
:103920002DE9F0414F1E00EBC7010446D1E900012B
:1039300015461E4637F006020DD02A463346FCF7E0
:1039400060FD7F1E04EBC703D3E90023FCF7B2FC44
:1039500037F00602F1D1022F25D0042F13D0062F05
:1039600018BFBDE8F0812A463346FCF74AFDD4E98A
:103970000A23FCF79FFC2A463346FCF742FDD4E9B4
:103980000823FCF797FC2A463346FCF73AFDD4E9B6
:103990000623FCF78FFC2A463346FCF732FDD4E9B8
:1039A0000423FCF787FC2A463346FCF72AFDD4E9BA
:1039B0000223FCF77FFC2A463346FCF722FDD4E9BC
:1039C0000023BDE8F041FCF775BC0122FCF79FBF66
:1039D0000022134610461146FCF785BD024A00201E
:1039E0001107FCF794BF000001FDFFFF02E008C8CB
:1039F000121F08C1002AFAD170477047002001E069
:103A000001C1121F002AFBD1704700000149086064
:103A100070470000040000202DE9FF5F82B0002104
:103A2000DDE90430020DDDF840B0034318D044F660
:103A30001050A2F2FF3242431514119801281FD0F2
:103A4000A5EB0B00401C5FEA000A4FF000064E4F4A
:103A5000DFF83891B046504615D5CAF1000413E09E
:103A6000119801244AA3012801D16FEA0B010298A1
:103A7000119AC0E90031C0E9024206B0BDE8F09FEA
:103A8000CBF10000DFE704460021404A491842EB31
:103A90000450CDE9001012E0E00707D032463B4663
:103AA00040464946FCF7ADFC8046894632463B46D7
:103AB00010461946FCF7A5FC06460F466410002C7C
:103AC000EAD1DDE90401DDE90023BAF1000F06DAED
:103AD000FCF797FC42464B46FCF793FC05E0FCF7ED
:103AE00002FD42464B46FCF7FEFC04460E46002211
:103AF000284BFCF73BFF03D84FF0FF30014607E0AF
:103B00000022254B20463146FCF7D4FBFCF716FF7C
:103B1000102409E0002C0ADB0A220023FCF7E2FD56
:103B2000039B30321A55641E50EA0102F2D1641C24
:103B3000039AC4F111031444119A012A03D00122FB
:103B400008430DD10AE0084304D000204FF0110BC8
:103B5000119072E7A3EB0B056D1E0DE05B4504DDD4
:103B60004FF0000205F1010504E003DA4FF0000216
:103B7000A5F10105002AECD002981199C0E90231A3
:103B8000C0E9004579E70000000014400000F03F64
:103B9000300000000000F0430000E03F2DE9FF4F3F
:103BA00095B09B468946064600250FE2252877D129
:103BB00000242746F84A0121059400E0044316F842
:103BC000013F203B01FA03F01042F7D130782A2858
:103BD00011D06FF02F033078A0F13002092A16D8E7
:103BE000059A44F0020402EB820203EB4202104405
:103BF000761C0590EFE759F8042B0592002A03DAAA
:103C0000504244F40054059044F00204761C30788D
:103C10002E2816D116F8010F44F004042A280DD0DE
:103C20006FF02F023078A0F13003092B09D807EB91
:103C3000870302EB4303C718761CF3E759F8047BAC
:103C4000761C30786C280FD006DC4C2817D06828FA
:103C50000DD06A2814D104E0742810D07A280FD12E
:103C60000DE044F400140AE044F4801401E044F44C
:103C700040147278824202D104F58014761C761CBE
:103C8000307866280BD013DC582877D009DC002860
:103C900075D04528F6D04628F4D047281AD19DE1A2
:103CA00018E0632835D0642879D0652812D195E1D1
:103CB000702873D008DC6728F1D069286FD06E288F
:103CC0000DD06F2806D1B5E073282CD0752875D09B
:103CD000782874D05A46179990476D1C75E1C4F343
:103CE0000250022809D003280DD0D9F8001004286A
:103CF0000DD00D6009F1040967E1D9F80010EA1749
:103D0000C1E90052F6E7D9F800100D80F2E70D7016
:103D1000F0E719F8041B8DF8001000208DF8010061
:103D2000EA46012003E059F804AB4FF0FF30610789
:103D30004FF0000102D40DE008F101018846B942BC
:103D40000FDA8045F8DB1AF808100029F4D108E0F2
:103D500008F1010188468142FADB1AF808100029AF
:103D6000F6D105985B46A0EB080721463846179A1E
:103D700000F094FA284400EB080507E04DE029E143
:103D80000DE01AF8010B5A4617999047B8F101084F
:103D9000F7D25B4621463846179A13E142E00A22E1
:103DA0000092C4F302524FF0000A022A08D059F8D8
:103DB00004CB032A4FEAEC710AD00DE029E02AE097
:103DC00009F1070121F00702F2E802C1914609E07A
:103DD0000FFA8CFC4FEAEC71042A03D14FFA8CFCE9
:103DE0004FEAEC71002907DA0A460021DCF1000CE9
:103DF00061EB02012D2202E0220504D52B228DF871
:103E00000420012203E0E20701D02022F7E79046D8
:103E100059E00A2102E010220DE010214FF0000AC3
:103E200000910BE010224FF0000A44F00404082730
:103E3000009203E008224FF0000A0092C4F30252FD
:103E4000022A05D059F804CB0021032A08D009E042
:103E500009F1070121F00702F2E802C1914605E0ED
:103E60001FFA8CFC042A01D10CF0FF0C4FF0000863
:103E7000220728D5702806D0009B83F0100353EA50
:103E80000A0305D00EE040228DF80420012208E04C
:103E90005CEA010206D030228DF804208DF805007E
:103EA00002229046009B83F0080353EA0A030AD1DA
:103EB0005CEA010201D1620705D530228DF80420A9
:103EC0004FF001087F1E582804D034A003900EA89C
:103ED00002900DE036A0F9E753466046009AFCF7E1
:103EE00001FC84460398825C0298401E0290027096
:103EF0005CEA0100F0D1029806A9081A00F1200A34
:103F0000600702D524F4803400E00127574502DD24
:103F1000A7EB0A0000E0002000EB0A0100900598E2
:103F20004144401A0590E00306D45B462146179AA7
:103F3000059800F0B3F90544002706E001A85A46A9
:103F4000C05D179990476D1C7F1C4745F6DBE00369
:103F50000CD55B462146179A059800F09FF9054459
:103F600004E030205A46179990476D1C0099481E6E
:103F700000900029F5DC08E0029802995A46007882
:103F8000491C0291179990476D1CBAF10001AAF1E2
:103F9000010AF1DC65E1000009280100303132330B
:103FA0003435363738396162636465660000000075
:103FB000303132333435363738394142434445465F
:103FC0000000000000F058F90544761C3078002805
:103FD0007FF4ECAD19B02846BDE8F08F620700D43D
:103FE000062709F1070222F0070CFCE80223E1464C
:103FF00003F000485FEA080C02D00FF2702C0DE0CD
:104000005FEA045C02D50FF2682C07E05FEAC47C2B
:1040100002D00FF2602C01E0AFF2700C4FF0FF38CD
:1040200023F00043CDF850C065280CD006DC4528AD
:1040300009D046281DD047283DD13DE0662818D03C
:1040400067287ED138E00021112F01DB112000E02C
:10405000781CCDE9000106A90EA8FFF7DDFCDDE91B
:104060000F010E9A03910021009207F1010A0491B9
:104070004DE04FF000400097CDE9011006A90EA8D1
:10408000FFF7CAFCDDE90F0203920E9B1199002293
:10409000DDF80CA00093049211B9791C00EB010A21
:1040A000B7EB0A0004D4C0F1FF3007F1010A049015
:1040B000AAEB0700019044E0012F00DA012700215C
:1040C000112F01DD112000E03846CDE9000106A9DD
:1040D0000EA8FFF7A1FCDDE90F010E9A0391002164
:1040E00004910092BA4621070CD40399514500DA95
:1040F0008A46BAF1010F05DD009AAAF10101515C6F
:10410000302908D0B84202DA10F1040F06DA012192
:10411000CDE9011015E0AAF10101E9E7002805DC6D
:10412000049901440491AAEB000102E0411C5145AD
:1041300000DD8A460499401A401C01904FF000406F
:104140000290200704D40198504501DBCDF804808B
:1041500000208DF84F0002980DF14F07B0F1004F8D
:1041600025D02B200E9002984FF0020800280CDA80
:10417000404202902D200E9007E00A210298FCF7A1
:104180009BFA3031029007F8011DB8F10001A8F147
:104190000108F2DC02980028EFD1791E0E98087011
:1041A000307800F0200040F0450007F8020D12A81A
:1041B000C01B00F107081498007800B1012000EB43
:1041C0000A01019801EBE07105984144401A401E34
:1041D0000590E00306D45B462146179A059800F047
:1041E0005DF805441498007818B15A46179990471D
:1041F0006D1CE00324D55B462146179A059800F014
:104200004DF805441CE00498002807DBDDE90301B4
:10421000884203DD0098405C179901E0179930202F
:104220005A469047049805F10105401C04900198F6
:10423000401E019004D12E205A46179990476D1CBC
:10424000BAF10001AAF1010ADDDC05E017F8010B63
:104250005A46179990476D1CB8F10001A8F1010862
:10426000F4DC5B462146179A0598ABE62D0000006A
:104270002B000000200000002DE9F041044600253D
:104280001E461746880404D405E039462020B0476E
:104290006D1C641EF9D52846BDE8F0812DE9F0417A
:1042A000044600251E469046C80301D5302700E08D
:1042B0002027880404D505E041463846B0476D1CE8
:1042C000641EF9D52846BDE8F08100002DE9F04DC7
:1042D0008D4F21F0004A86B005460C46BA452ADBD0
:1042E000AAEB070028430AD08848824501DC1AD18E
:1042F000CDB106B02846BDE8F04DFFF766BB844A55
:10430000844B2846FCF77DF807460E46824A834BCD
:1043100028462146FCF775F806B03A463346BDE814
:10432000F04DFBF7C7BF0120FFF770FB06B0BDE8FB
:10433000F04DFFF74DBB7A48824542DABAF1795F1A
:104340000BDA2846FFF7D8FA042808BFFFF746FB28
:10435000284606B02146BDE8F08D2A460B46104699
:10436000FCF74FF8834602466E480E460B46062180
:104370007844FFF7D5FA5A463346FCF742F88046B0
:1043800069488A465A46334604217844FFF7C8FAFA
:104390005A463346FCF735F800223B46FBF78AFFC6
:1043A00002460B4640465146FCF79DF82A462346F6
:1043B000FCF727F806B02A462346BDE8F04DFBF788
:1043C00079BF284624F0004100223D463B46FCF7D9
:1043D00015F84FF0FF32FCF79AFA064602465348AA
:1043E0000F460B4606217844FFF79AFA32463B46C1
:1043F000FCF707F8CDE900014D4832463B46042161
:104400007844FFF78DFA32463B46FBF7FAFF00226D
:104410002B46FBF74FFF834602913046394600F0AA
:10442000A5F8804643480D46504517DCDDE90001FC
:104430005A46029BFCF757F842462B46FBF7E1FF32
:1044400042462B46FBF736FF0122FCF760FA304A62
:10445000304BFBF7D0FF304A304B4CE04FF0000AB6
:1044600052460B464046FBF725FFCDE90310524666
:104470002B4610461946FBF7C4FF32463B46FBF776
:10448000BDFFDDE90332FCF72EF806460F46DDE9F5
:1044900000015A46029BFCF726F883460091012250
:1044A00030463946FCF733FA194A1A4BFBF7A6FF98
:1044B00006460F46012240462946FCF728FA5A468E
:1044C000009BFBF79EFF32463B46FBF794FF0646F8
:1044D0000F46012250462946FCF719FA0E4DDFF827
:1044E00058802A464346FBF789FF32463B46FBF796
:1044F00085FF2A464346FBF781FF002CD8BF81F099
:10450000004106B0BDE8F08D0000F03F0000F07FF4
:10451000075C143326A6913C182D4454FB21F93F27
:104520000000E03F740200008A020000FE0100006B
:10453000140200003333EF3FFB21E93F0149FFF74D
:1045400073B900000000002010B5044601E0FFF739
:104550006BF914F8010B04490028F8D1BDE81040AC
:104560000A20FFF761B90000000000202DE9F041AA
:1045700006460F46FCF734FA041E0D4618BF01200C
:10458000284320F00040C0F17F6000F1E040C00F00
:104590000ED0301C18BF0120384320F00040C0F17D
:1045A0007F6000F1E040C00F04BF0120FFF72EFA4A
:1045B00020462946BDE8F08170B50546FCF71BF999
:1045C000044620F00040C0F1FF40C00F08D025F0A5
:1045D0000040C0F1FF40C00F04BF0120FFF716FAF2
:1045E000204670BD00000000555555555555C53F36
:1045F0007D6FEB0312D6D4BF5544880E55C1C93F19
:104600003B8F68B52882A4BF88B20175E0EF493FAF
:1046100009F7FD0DE13D023F4B2D8A1C273A03C0EF
:10462000C88A599CE52A004059018D1B6C06E6BFDB
:1046300082922EB1C5B8B33F020406080000000004
:104640000102030401020304060708090000000038
:10465000000000000000000000000000000000F862
:1046600000000000000000333000000000100C06C5
:10467000100C0600000000000000000040C0784060
:10468000C0784000043F04043F040400007088FC2C
:1046900008300000001820FF211E0000F008F00084
:1046A000E018000000211C031E211E0000F00888F5
:1046B000700000001E2123241927211010160E005F
:1046C000000000000000000000000000000000E00A
:1046D000180402000000000718204000000204181F
:1046E000E00000000040201807000000404080F07B
:1046F000804040000202010F01020200000000F0B1
:10470000000000000101011F010101000000000084
:104710000000000080B070000000000000000000F9
:104720000000000000010101010101010000000082
:104730000000000000303000000000000000000019
:1047400080601804006018060100000000E01008F6
:104750000810E000000F102020100F00001010F8CB
:10476000000000000020203F20200000007008080A
:10477000088870000030282422213000003008888A
:10478000884830000018202020110E000000C020B2
:1047900010F8000000070424243F240000F80888D3
:1047A000880808000019212020110E0000E0108860
:1047B00088180000000F112020110E000038080892
:1047C000C83808000000003F0000000000708808A2
:1047D00008887000001C222121221C0000E0100823
:1047E0000810E0000000312222110F00000000C07C
:1047F000C000000000000030300000000000008019
:104800000000000000008060000000000000804008
:104810002010080000010204081020004040404021
:104820004040400004040404040404000008102074
:1048300040800000002010080402010000704808B9
:104840000808F0000000003036010000C030C82821
:10485000E810E0000718272423140B000000C038DC
:10486000E0000000203C23020227382008F8888856
:1048700088700000203F202020110E00C030080862
:1048800008083800071820202010080008F8080839
:104890000810E000203F202020100F0008F8888832
:1048A000E8081000203F20202320180008F88888FE
:1048B000E8081000203F200003000000C030080876
:1048C0000838000007182020221E020008F80800FF
:1048D0000008F808203F210101213F20000808F8C6
:1048E000080800000020203F2020000000000808E9
:1048F000F8080800C08080807F00000008F888C0A9
:1049000028180800203F20012638200008F8080059
:1049100000000000203F20202020300008F8F80090
:10492000F8F80800203F003F003F200008F830C0A2
:104930000008F808203F200007183F00E010080892
:104940000810E0000F10202020100F0008F80808C1
:104950000808F000203F210101010000E0100808D4
:104960000810E0000F18242438504F0008F88888F9
:1049700088887000203F2000030C302000708808D9
:10498000080838000038202121221C00180808F8E7
:10499000080818000000203F2000000008F8080068
:1049A0000008F808001F202020201F000878880039
:1049B00000C83808000007380E010000F80800F8A9
:1049C0000008F800033C0700073C03000818688053
:1049D0008068180820302C03032C30200838C800C9
:1049E000C83808000000203F200000001008080818
:1049F000C83808002038262120201800000000FEBA
:104A0000020202000000007F40404000000C30C065
:104A100000000000000000010638C0000002020291
:104A2000FE000000004040407F0000000000040243
:104A3000020204000000000000000000000000006E
:104A4000000000008080808080808080000202045E
:104A50000000000000000000000000000000808056
:104A6000808000000019242222223F2008F80080C4
:104A700080000000003F112020110E000000008087
:104A800080800000000E1120202011000000008016
:104A90008088F800000E112020103F200000808048
:104AA00080800000001F222222221300008080F05C
:104AB000888888180020203F202000000000808087
:104AC00080808000006B94949493600008F80080CC
:104AD00080800000203F210000203F200080989827
:104AE000000000000020203F202000000000008087
:104AF0009898000000C08080807F000008F80000C7
:104B000080808000203F24022D302000000808F81B
:104B1000000000000020203F2020000080808080D6
:104B200080808000203F20003F20003F8080008068
:104B300080800000203F210000203F200000808076
:104B400080800000001F202020201F008080008027
:104B50008000000080FFA12020110E0000000080D6
:104B600080808000000E112020A0FF8080808000C7
:104B70008080800020203F212000010000008080F4
:104B8000808080000033242424241900008080E0E9
:104B9000808000000000001F2020000080800000B6
:104BA00000808000001F202020103F208080800097
:104BB0000080808000010E300806010080800080A7
:104BC000008080800F300C030C300F0000808000CC
:104BD000808080000020312E0E31200080808000F7
:104BE0000080808080818E701806010000808080A7
:104BF000808080000021302C222130000000000045
:104C0000807C020200000000003F404000000000E5
:104C1000FF00000000000000FF0000000002027C16
:104C2000800000000040403F00000000000601013D
:104C30000202040400000000000000002020204BBD
:104C4000455920206D6F64652020200020204156AA
:104C50004F494420206D6F64652020002020575369
:104C600032383132206D6F64652020002020526F71
:104C7000636B6572206D6F6465202000204D50339A
:104C8000504C415920206D6F6465200020477261AF
:104C90007669747920206D6F64652000426C7565BB
:104CA000746F6F7468206D6F646520210020426C02
:104CB0007565746F6F7468206D6F64650000000027
:104CC000E04C00080000002000080000820A0008F4
:104CD0006050000800080020B0040000FC39000803
:104CE000F1780E80C0603010180C0C040606020328
:104CF00001900D020606040C8C18103060C080383C
:104D000008E0701C06C3C1C03319329931192F2E27
:104D10000C0C1B33632D270103061C70E034F8FFD5
:104D2000033F0101F0FE07013E180FF81C0606C301
:104D300063232363C306061CF822191E5407FEF0E2
:104D40005703FFF81FFFC04B0707982811C3E370F4
:104D5000787CCFC6C4C4C6C36060389FC75C55802A
:104D6000E07F0F1CC0FF1F2A3B0E389F580C3038C5
:104D70001C0E1F3331606040C001180A4060603172
:104D800031180C06037A19AE4B380E543973980952
:104D900003060C08183030202F39314E20303018DF
:104DA0000833C11E2040C040402A297E29019907AE
:104DB0003919E3402045340111044444033C45388B
:104DC000878738543C0344E41121342D63121C04BA
:104DD00001280C483848080C0C0888787888083C6A
:104DE000C8384817E41C12631411A2E129BC2C44F2
:104DF0008483971D81848481BF2D40838444C411A2
:104E0000E4E1A21145120109024422431E45184360
:104E10004318541E432204460901161809181C8C15
:104E2000C6E6677333013F7367E6C68C1C670118DB
:104E30004AC0011CC6C6C3015BC6C60F011A23FFC8
:104E4000FF8FFCFCCCCCFCFC08291409783059B34A
:104E50009901091A30211B8080233BE060011AE090
:104E60000B0B15808028380BE0F0381C0E0703036D
:104E7000C1C122B812FCFC3870E0C08001010303FC
:104E8000070E1C38F0E03885F0FE1F037010010794
:104E90000F1E78F0FFFFE070381D0F0702A5031FFB
:104EA000FEF09D0F7FF8C06A1E781E0FFFFF57753A
:104EB000B8F0E040C5C0F87F0F19562A1C8245C0E3
:104EC0008383012B3F3F9E2A01CF19693C1C0F07AA
:104ED00016011229B13C0307060119CE0B15030177
:104EE0002849C7DDF8F87838019C78F8F8B9E10C62
:104EF00025FFFFFF15791BDBF0E0010A1CF0301BDA
:104F00003F0FE61A01E61CC0C080CC0C1D070F3F06
:104F10006033C0801B070F0132070B1A80C0603B53
:104F20000F1F013C1E1E1C014B1E1E1002130F3AC8
:104F30008083F90129C239092A807751180AC0F003
:104F4000F8FCFEFF7F3F3F4A1B3F7F7E091001199F
:104F50009D190616FEFCF8F0C03AFE124AE0413CEC
:104F600080C0E00F595D190A1AF10132E01AE10818
:104F70002AF335E94C3C7F3F1FED39F359718BFE25
:104F8000FE278A072A05121F0F07018D01070F1F31
:104F9000A71A07112A030109112AB936E92529B0F0
:104FA000180FE0E0F0F0F0F8F8FCFCFCFE7E7E7FED
:104FB000E12AE0D539D786F0783C1E0619EC2B03A0
:104FC0000F742B8707455A01472D079FCFE72819F4
:104FD000C94D1D3C78F03D1C20303CCD143E38209E
:104FE0001A03A72BFEF01559501D0F0703011D339F
:104FF000FCE01C40C0C1F81A805A19484C3F7FF8A9
:105000003D180883CFF77B3C9E8F28A117073FFFF1
:10501000FFF8E06E010F3F1F0F182F80C1E3F37FF1
:105020003F51111E021FFFFFFCC739C81C3C1E3E2A
:105030007D390182783B081C79B11808031F3F3F76
:105040001F1F1FB71B0606D179D051350220302013
:105050001AC20149051143803F0000000000000012
:04000005080000ED02
:00000001FF
