:020000040800F2
:100000007804002001010008890A0008510A00084C
:10001000850A0008CD080008511000080000000003
:10002000000000000000000000000000310D00088A
:100030003109000800000000010B0008350D000820
:100040001B0100081B0100081B0100081B01000820
:100050001B0100081B0100081B0100081B01000810
:100060001B0100081B0100081B0100081B01000800
:100070001B0100081B0100081B0100081B010008F0
:100080001B0100081B0100081B0100081B010008E0
:100090001B0100081B0100081B0100081B010008D0
:1000A0001B0100081B0100081B0100081B010008C0
:1000B0001B0100081B010008000000001B010008D4
:1000C0001B01000800000000000000001B010008E8
:1000D00000000000490E00081B010008000000009D
:1000E0001B0100081B0100081B010008DFF80CD0F1
:1000F00000F01EFB0048004725110008780400208E
:100100000648804706480047FEE7FEE7FEE7FEE7B1
:10011000FEE7FEE7FEE7FEE7FEE7FEE7390D000833
:10012000ED00000830B480EA010202F0004530F032
:10013000004221F0004013D090B1C30DD40DC2F3A2
:100140001601C0F31600E41A41F4000140F4000265
:100150007D34914201D3641C00E04900002C02DA96
:1001600030BC002070474FF400000023914201D3BF
:10017000891A034340084FEA4101F7D151B1914236
:1001800002D14FF0004105E002D24FF0010101E041
:100190006FF0010103EBC450284430BC00F0EDB80F
:1001A0002DE9FE4F81EA030404F0004421F00041F0
:1001B00000944FF0000B23F0004350EA01045ED09E
:1001C00052EA03045BD0C3F30A54C1F30A552C442A
:1001D000A4F2F3340194A0FB0254C1F3130141F4DF
:1001E0008011C3F3130343F4801301FB024400FBAB
:1001F000034E840A970A44EA815447EA8357A4FBD2
:10020000076802958D0A05FB07854FEA932C04FBCE
:100210000C542705029D4FEA065847EA1637B5EBFE
:1002200008056EEB070C870E920E47EA811742EA2B
:100230008312A7FB0201B6EB0B0164EB00042B0D4C
:1002400043EA0C335E1844EB1C50DA465146E7FB98
:100250000201C5F313044FEA0B3343EA14534FEA88
:100260000432019C43EA0603A4F10C040294009CAE
:10027000CDE900B400F0C7F803B0BDE8F08F00206E
:100280000146F9E796230022114600F07FB800F0FE
:10029000004230F000400AD0C10D01F56071C0F39A
:1002A000160042EA0151C20840071143704700207E
:1002B0000146704701F0004330B421F0004150EA9C
:1002C000010206D00A0DA2F56072C1F31301002AE3
:1002D00002DC30BC00207047440F44EAC104C10076
:1002E000E01830BC00EBC25000F047B830B50B4608
:1002F000014600202022012409E021FA02F59D4256
:1003000005D303FA02F5491B04FA02F52844151E29
:10031000A2F10102F1DC30BD2DE9F05F05460020BD
:1003200092469B4688460646814640241BE0284666
:1003300041464746224600F01CFA53465A46C01A28
:10034000914110D311461846224600F003FA2D1AA7
:1003500067EB01084F4622460120002100F0FAF920
:1003600017EB00094E41201EA4F10104DFDC4846D2
:1003700031462A464346BDE8F09F0029A8BF704792
:10038000401C490008BF20F00100704710B4B0FACB
:1003900080FC00FA0CF050EA010404BF10BC704766
:1003A00049B1CCF1200421FA04F411FA0CF118BF80
:1003B000012121430843A3EB0C01CB1D4FEA00614F
:1003C0004FEA102042BF002010BC704700EBC35022
:1003D00010440029A4BF10BC7047401C490008BF4E
:1003E00020F0010010BC704710B5141E73F100041A
:1003F00008DA401C41F1000192185B411A4301D117
:1004000020F0010010BD2DE9F04D92469B4611B140
:10041000B1FA81F202E0B0FA80F22032904600F0A8
:1004200099F904460F4640EA0A0041EA0B01534697
:100430005A46084313D0114653EA010019D0C8F1B7
:100440004002504600F095F905460E465046594682
:10045000424600F07FF9084305D0012004E0204621
:100460003946BDE8F08D0020054346EAE0762C438E
:1004700037430A986305E40AA0EB08000022FD0A4E
:1004800044EA47540A3002D500200146E9E7010555
:1004900010196941DDE9084500196941BDE8F04DD1
:1004A000A2E72DE9FE4F804681EA0300C00F0C460B
:1004B000009021F0004123F00045B8EB0200A94173
:1004C00005D24046214690461C460B46024623F084
:1004D0000040104347D0270DC7F30A00C3F30A5169
:1004E0000290401A019040286BDAC3F3130040F4E5
:1004F000801B0098924620B10023D2EB030A63EBE5
:100500000B0B01985946C0F14002504600F022F909
:1005100006460D4650465946019A00F03AF910EB4E
:1005200008006141002487EA115284EAE7731A4304
:1005300040D0009A62B3019A012A4FEA075215DCB3
:10054000001B61EB02014FF0004202EA0752CDE9C5
:100550000042001C41F5801132462B46FFF753FF45
:1005600003B0BDE8F08F40462146F9E7001B61EB80
:100570000201001C41F5801300185B412018A2F510
:10058000001747EB030140EAD570B6196D4111E041
:100590006D084FEA360645EAC0754FEA0752001B60
:1005A00061EB0201001C41F5801149084FEA30005F
:1005B0000019514132462B4603B0BDE8F04FFFF71A
:1005C00013BF0098012240000023D0EB020263EB2E
:1005D000E073009821464FEAE074B8EB000061EB4D
:1005E0000401E9E783F000435BE781F0004158E74D
:1005F0002DE9F04D81EA030404F0004B21F00045A1
:1006000014464FF0000A23F0004150EA050220D0C2
:1006100054EA01021DD0C5F30A570246C5F313037D
:10062000C1F31300C1F30A5640F4801543F480135C
:10063000A7EB0608101BD64608F2FD3873EB050041
:1006400002D308F1010801E092185B41B8F1000FF4
:1006500003DA00200146BDE8F08D00204FF4801140
:10066000064684460EE0171B73EB050705D3121BE5
:1006700063EB050306434CEA010C49084FEA3000DE
:1006800092185B4150EA0107EDD152EA030012D003
:1006900082EA040083EA0501084305D0101BAB4140
:1006A00006D20122002306E000224FF0004302E0C0
:1006B0006FF0010253101AEB06004CEB085110EBDF
:1006C0000A0041EB0B01BDE8F04DFFF78DBEC1F311
:1006D0000A52C1F3130140F2FF3341F480119A42F0
:1006E00002DA00200146704740F233439A42A2F2F8
:1006F000334202DC524200F03CB800F02BB800005C
:1007000030B5041E71F1000404DB4FF00044404298
:1007100064EB0101141E73F1000405DB1C464FF06D
:100720000043524263EB0403994208BF904230BD3C
:10073000064C074D06E0E06840F0010394E807002E
:1007400098471034AC42F6D3FFF7D4FCC01A000827
:10075000E01A0008202A04DB203A00FA02F1002007
:1007600070479140C2F1200320FA03F319439040EF
:100770007047202A04DB203A21FA02F0002170475A
:1007800021FA02F3D040C2F12002914008431946F9
:100790007047202A06DBCB17203A41FA02F043EAE1
:1007A000E07306E041FA02F3D040C2F1200291402A
:1007B00008431946704700008268002922F00102B0
:1007C00018BF0132826070478268002922F480726B
:1007D00018BF02F580728260704700008068C0F325
:1007E000800070478068C0F3C000704780B54268E1
:1007F0004FF6FF63CFF6F07302EA030C0B680A7939
:1008000043EA0C0343EA0222426082684FF2FD731E
:10081000CFF6F17302EA030CD1E902E24B7942EA26
:100820000C0242EA0E0242EA43028260C26A097C7A
:1008300022F470020139C9B242EA0151C16280BD9D
:10084000B0B501EB410C4FF0100E092988BFACF197
:100850001E0C88BF4FF00C0E50F80E40072505FA0D
:100860000CF5AC4303FA0CF3234340F80E30062A90
:1008700002EB820303D834306FF0040207E00C2A45
:1008800087BF2C306FF0400230306FF022021A44E4
:1008900003681F259540AB43914019430160B0BDEB
:1008A000816841F00801816070470000826800297A
:1008B00022F4A00218BF02F5A00282607047000077
:1008C000816841F00401816070470000FEE700008C
:1008D00002684FF6FE7C42F00103002908BF02EADD
:1008E0000C030360704700002DE9F047026847F6EB
:1008F000F073D1E9026A9A4301F11007B0CF01F118
:100900001C0E3243D1E900899EE80A501A43224363
:100910002A433A43114341EA0C0141EA0E010160C6
:10092000C0F804A0C0F80880C0F80C90BDE8F087BB
:1009300070470000B0B500B34EF2100141F6401C04
:10094000CEF20001C0F2010C4FF0000E052204238C
:1009500003E000BF013808BFB0BD4FF47A7400BF98
:10096000C1F804C0C1F808E00A6000BF0D68ED03DB
:10097000FCD5013C0B60F3D1ECE7B0BD2DE9F047AD
:10098000CA7802F00F0CD30644BF8B784CEA030CF4
:1009900009880B0625D082465AF8144B00F1100E38
:1009A00000254FF001094FF00F08002706E000BFB7
:1009B0001E600137082F05F1040511D009FA07F66A
:1009C0000E42F6D008FA05F324EA03030CFA05F404
:1009D0001C43282A5346EBD0482AEAD17346E7E75E
:1009E0000460B1F5807F38BFBDE8F087436800F14F
:1009F000100E00F1140900254FF4807A4FF00F0813
:100A0000002705E034600137082F05F1040512D0F6
:100A10000AFA07F404EA0106A642F4D108FA05F638
:100A2000B3430CFA05F63343282A4E46EAD0482A47
:100A3000E9D17646E6E74360BDE8F0878068084084
:100A400018BF012070470000416170470161704785
:100A5000FEE7000080B582B00820012100F068F8B0
:100A60000220C1F20300019040F60040C4F20100F0
:100A700001A9FFF783FF02B080BD0000FFF7E6BFCA
:100A8000FFF7E2BFFEE700007047000010B5C17835
:100A900000294EF20011CEF200011AD04EF60C528F
:100AA000CEF200021268072323EA12220F23C2F1BA
:100AB000040C23FA02F24378847890F800E003FAF9
:100AC0000CF322401A43120101EB0E0383F80023BA
:100AD00000E080310078012300F01F0203FA02F2E7
:100AE000C0F3421041F8202010BD000040F08060AB
:100AF0004EF60C5140F0FD70CEF2000108607047D8
:100B00007047000041F20401C4F202010A6822F4B5
:100B10004042104308607047002941F21401C4F2BA
:100B200002010A680CBF22EA000010430860704707
:100B3000002941F21801C4F202010A680CBF22EA3E
:100B4000000010430860704710B541F20404C4F27D
:100B50000204226802F00C02082A41F20022C0F2CC
:100B60007A021CD12368D4F800C0C3F3834E5FEA35
:100B7000CC330EF1020C06D440F60012C0F23D0256
:100B80000CFB02F20BE023689B0302D40CFB02F285
:100B900005E040F60012C0F23D020CFB02F20260DA
:100BA000226841F6AE23C2F30312C0F600039A5C3A
:100BB0000168D14041602268C2F302229A5C21FAA6
:100BC00002F282602268C2F3C2229A5C41F6AA2332
:100BD000D140C1602268C0F60003C2F381329A5C42
:100BE000B1FBF2F1016110BD10B540F60044C4F252
:100BF0000104A4F580600121FFF720FF28B1204601
:100C00000221BDE81040FFF739BF20460221BDE8B0
:100C10001040FFF735BF00002DE9F0418CB042F2E3
:100C2000004404200121C4F201044FF00108FFF741
:100C30007FFF0120C4F60300A4F5E05501AE01904A
:100C400028463146FFF79AFE0220ADF8040000273F
:100C5000284631468DF80770FFF790FE4FF400707C
:100C60000121FFF765FF4FF4602003904FF480707F
:100C7000ADF8080001A92046049701978DF814806B
:100C8000FFF7B4FD4FF40040FFF73CFF2046012181
:100C900001220523FFF7D4FD20460121FFF78CFD3B
:100CA00020460121FFF790FD20460121FFF7FEFDC0
:100CB0002046FFF7F5FD00BF2046FFF793FD002813
:100CC000FAD12046FFF7FCFD2046FFF787FD0028FC
:100CD000FAD1012001210124FFF71EFF42F24C400E
:100CE000C4F20100019040F20800C2F200004FF48B
:100CF00080710290002007914FF48061CDE90304D8
:100D000008914FF4805108240A912021C4F2020472
:100D1000CDE9050009910B9001A92046FFF7E4FDFC
:100D200020460121FFF7D4FD0CB0BDE8F0810000A2
:100D3000704700007047000082B041F20400C4F226
:100D4000020050F8041C002241F0010140F8041C8C
:100D50000168CFF6FF021140016050F8041C4FF605
:100D6000FF72CFF6F662114040F8041C50F8041CE4
:100D700021F4802140F8041C016821F4FE01016087
:100D80004FF41F01416000210191009150F8041CB3
:100D900041F4803140F8041C50F8041C01F4003187
:100DA0000091019901310191009919B90199B1F5A9
:100DB000A06FF1D150F8041C890354BF0021012118
:100DC00000910099012936D142F20001C4F20201DA
:100DD0000A6842F010020A600A6822F003020A6000
:100DE0000A6842F002020A6001680160016801605D
:100DF000016841F480610160016821F47C110160A7
:100E0000016841F4E811016050F8041C41F0807160
:100E100040F8041C50F8041C8901FBD5016821F03E
:100E200003010160016841F002010160016801F005
:100E30000C010829FAD14EF60850CEF200004FF00E
:100E40000061016002B0704710B543F60004C4F2BF
:100E50000104204640F2255100F066F8012818BF31
:100E600010BD204600F0ECF840F20A01C2F2000189
:100E70000A78C0B2012A11D0AAB9402834D140F270
:100E80007000C2F20000007870BB0120087040F2D0
:100E90000B00C2F200000021017025E00D2817D1DF
:100EA0000220087020E00A281ED10020087040F2BD
:100EB0000B01C2F20001097840F20C02C2F20002FA
:100EC000505440F27000C2F20000012101700BE0AA
:100ED00040F20B01C2F200010A7840F20C03C2F2A8
:100EE00000039854501C0870204640F22551BDE87C
:100EF000104000F001B80000090A012202FA01F1D5
:100F0000C9430180704700008289002918BF012170
:100F100022F4005242EA4131818170470088084042
:100F200018BF012070470000C1F34212022A06D008
:100F3000012A14BF00F1140200F10C0201E000F1DB
:100F400010021288008801F01F03090ADA40C84025
:100F5000104000F001007047C1F3421301F01F0C74
:100F60001421022B08BF1021012B4FF0010308BFF1
:100F70000C21002A03FA0CF243580CBF23EA0202A8
:100F80001A4342507047000070B586B00446008A8C
:100F90000D46C98820F4405008432082A0894EF6AF
:100FA000F3110840A9882A896B8908431043184324
:100FB000A081A08AA98920F44070084301AEA082D4
:100FC0003046FFF7C1FD43F6000106F10800C4F208
:100FD00001018C4208BF06F10C0000681922B4F927
:100FE0000C1050432A680123B1F1FF3FC8BF022310
:100FF00002FA03F1B0FBF1F048F21F51C5F2EB1118
:10100000A0FB01235A096FF0630302FB0300B4F94C
:101010000C300326B3F1FF3FC8BF042600FA06F0E8
:1010200000F13200A0FB01014FF00700C8BF0F2004
:1010300000EA511040EA0210208106B070BD0000A5
:1010400080886FF35F2070476FF35F218180704766
:10105000FEE7000070B586B004200121FFF768FDAF
:101060004FF480400121FFF763FD43F6000440F296
:101070000020C4F20104C1F60300A4F5405504AEFB
:10108000049028463146FFF779FC40F20040C0F258
:101090000340049028463146FFF770FC4FF4165089
:1010A000009000204FF44021ADF80C00CDE9010183
:1010B00069462046FFF768FF204640F2255101228D
:1010C000FFF74AFF4FF4A060FFF710FD40F2251034
:1010D000C0F20110059005A8FFF7D8FC20460121B9
:1010E000FFF712FF06B070BDB0B543F60005044629
:1010F0000A28C4F2010509D128460D21FFF7A4FFF3
:1011000028468021FFF70AFF0028F9D0E1B22846DF
:10111000FFF79AFF28468021FFF700FF0028F9D04B
:101120002046B0BDFFF796FFFFF794FCFFF774FD74
:1011300040F60040C4F201000221FFF79FFC40F29C
:1011400008084FF2000946F2666540F27404C2F2E4
:101150000008C4F27F59C4F20A05C2F2000412A6C4
:1011600014A700BFFFF740FDB8F80000FFF78AF8AA
:101170004946FEF7D7FFFFF78AF84FF066322B4655
:10118000FFF70EF8FFF796F82060304600F014F8ED
:101190002068FFF77CF8024638460B4600F00CF852
:1011A0000120FFF7C7FBDDE7566F6C617467653A96
:1011B0000000000025660A000FB4054B10B503A916
:1011C000044A029800F0DAF810BC5DF814FB000045
:1011D000E91000080000002002E008C8121F08C142
:1011E000002AFAD170477047002001E001C1121FA8
:1011F000002AFBD1704700002DE9FF5F82B000217B
:10120000DDE90430020DDDF840B0034318D044F6A8
:101210001050A2F2FF3242431514119801281FD03A
:10122000A5EB0B00401C5FEA000A4FF000064E4F92
:10123000DFF83891B046504615D5CAF1000413E0E6
:10124000119801244AA3012801D16FEA0B010298E9
:10125000119AC0E90031C0E9024206B0BDE8F09F32
:10126000CBF10000DFE704460021404A491842EB79
:101270000450CDE9001012E0E00707D032463B46AB
:1012800040464946FEF78CFF8046894632463B463B
:1012900010461946FEF784FF06460F466410002CE0
:1012A000EAD1DDE90401DDE90023BAF1000F06DA35
:1012B000FEF776FF42464B46FEF772FF05E0FFF76A
:1012C00097F942464B46FFF793F904460E46002233
:1012D000284BFFF715FA03D84FF0FF30014607E01F
:1012E0000022254B20463146FFF7DBF8FFF7EFF9E8
:1012F000102409E0002C0ADB0A220023FFF70CF877
:10130000039B30321A55641E50EA0102F2D1641C6C
:10131000039AC4F111031444119A012A03D0012243
:1013200008430DD10AE0084304D000204FF0110B10
:10133000119072E7A3EB0B056D1E0DE05B4504DD1C
:101340004FF0000205F1010504E003DA4FF000025E
:10135000A5F10105002AECD002981199C0E90231EB
:10136000C0E9004579E70000000014400000F03FAC
:10137000300000000000F0430000E03F2DE9FF4F87
:1013800095B09B468946064600250FE2252877D171
:1013900000242746F84A0121059400E0044316F88A
:1013A000013F203B01FA03F01042F7D130782A28A0
:1013B00011D06FF02F033078A0F13002092A16D82F
:1013C000059A44F0020402EB820203EB420210444D
:1013D000761C0590EFE759F8042B0592002A03DAF2
:1013E000504244F40054059044F00204761C3078D6
:1013F0002E2816D116F8010F44F004042A280DD027
:101400006FF02F023078A0F13003092B09D807EBD9
:10141000870302EB4303C718761CF3E759F8047BF4
:10142000761C30786C280FD006DC4C2817D0682842
:101430000DD06A2814D104E0742810D07A280FD176
:101440000DE044F400140AE044F4801401E044F494
:1014500040147278824202D104F58014761C761C06
:10146000307866280BD013DC582877D009DC0028A8
:1014700075D04528F6D04628F4D047281AD19DE1EA
:1014800018E0632835D0642879D0652812D195E119
:10149000702873D008DC6728F1D069286FD06E28D7
:1014A0000DD06F2806D1B5E073282CD0752875D0E3
:1014B000782874D05A46179990476D1C75E1C4F38B
:1014C0000250022809D003280DD0D9F800100428B2
:1014D0000DD00D6009F1040967E1D9F80010EA1791
:1014E000C1E90052F6E7D9F800100D80F2E70D705F
:1014F000F0E719F8041B8DF8001000208DF80100AA
:10150000EA46012003E059F804AB4FF0FF306107D1
:101510004FF0000102D40DE008F101018846B94204
:101520000FDA8045F8DB1AF808100029F4D108E03A
:1015300008F1010188468142FADB1AF808100029F7
:10154000F6D105985B46A0EB080721463846179A66
:1015500000F094FA284400EB080507E04DE029E18B
:101560000DE01AF8010B5A4617999047B8F1010897
:10157000F7D25B4621463846179A13E142E00A2229
:101580000092C4F302524FF0000A022A08D059F820
:1015900004CB032A4FEAEC710AD00DE029E02AE0DF
:1015A00009F1070121F00702F2E802C1914609E0C2
:1015B0000FFA8CFC4FEAEC71042A03D14FFA8CFC31
:1015C0004FEAEC71002907DA0A460021DCF1000C31
:1015D00061EB02012D2202E0220504D52B228DF8B9
:1015E0000420012203E0E20701D02022F7E7904621
:1015F00059E00A2102E010220DE010214FF0000A0C
:1016000000910BE010224FF0000A44F00404082778
:10161000009203E008224FF0000A0092C4F3025245
:10162000022A05D059F804CB0021032A08D009E08A
:1016300009F1070121F00702F2E802C1914605E035
:101640001FFA8CFC042A01D10CF0FF0C4FF00008AB
:10165000220728D5702806D0009B83F0100353EA98
:101660000A0305D00EE040228DF80420012208E094
:101670005CEA010206D030228DF804208DF80500C6
:1016800002229046009B83F0080353EA0A030AD122
:101690005CEA010201D1620705D530228DF80420F1
:1016A0004FF001087F1E582804D034A003900EA8E4
:1016B00002900DE036A0F9E753466046009AFEF727
:1016C0002BFE84460398825C0298401E02900270B2
:1016D0005CEA0100F0D1029806A9081A00F1200A7C
:1016E000600702D524F4803400E00127574502DD6D
:1016F000A7EB0A0000E0002000EB0A01009005982B
:101700004144401A0590E00306D45B462146179AEF
:10171000059800F0B3F90544002706E001A85A46F1
:10172000C05D179990476D1C7F1C4745F6DBE003B1
:101730000CD55B462146179A059800F09FF90544A1
:1017400004E030205A46179990476D1C0099481EB6
:1017500000900029F5DC08E0029802995A460078CA
:10176000491C0291179990476D1CBAF10001AAF12A
:10177000010AF1DC65E10000092801003031323353
:1017800034353637383961626364656600000000BD
:1017900030313233343536373839414243444546A7
:1017A0000000000000F058F90544761C307800284D
:1017B0007FF4ECAD19B02846BDE8F08F620700D485
:1017C000062709F1070222F0070CFCE80223E14694
:1017D00003F000485FEA080C02D00FF2702C0DE015
:1017E0005FEA045C02D50FF2682C07E05FEAC47C74
:1017F00002D00FF2602C01E0AFF2700C4FF0FF3816
:1018000023F00043CDF850C065280CD006DC4528F5
:1018100009D046281DD047283DD13DE0662818D084
:1018200067287ED138E00021112F01DB112000E074
:10183000781CCDE9000106A90EA8FFF7DDFCDDE963
:101840000F010E9A03910021009207F1010A049101
:101850004DE04FF000400097CDE9011006A90EA819
:10186000FFF7CAFCDDE90F0203920E9B11990022DB
:10187000DDF80CA00093049211B9791C00EB010A69
:10188000B7EB0A0004D4C0F1FF3007F1010A04905D
:10189000AAEB0700019044E0012F00DA01270021A4
:1018A000112F01DD112000E03846CDE9000106A925
:1018B0000EA8FFF7A1FCDDE90F010E9A03910021AC
:1018C00004910092BA4621070CD40399514500DADD
:1018D0008A46BAF1010F05DD009AAAF10101515CB7
:1018E000302908D0B84202DA10F1040F06DA0121DB
:1018F000CDE9011015E0AAF10101E9E7002805DCB6
:10190000049901440491AAEB000102E0411C5145F5
:1019100000DD8A460499401A401C01904FF00040B7
:101920000290200704D40198504501DBCDF80480D3
:1019300000208DF84F0002980DF14F07B0F1004FD5
:1019400025D02B200E9002984FF0020800280CDAC8
:10195000404202902D200E9007E00A210298FEF7E7
:10196000C5FC3031029007F8011DB8F10001A8F163
:101970000108F2DC02980028EFD1791E0E98087059
:10198000307800F0200040F0450007F8020D12A862
:10199000C01B00F107081498007800B1012000EB8B
:1019A0000A01019801EBE07105984144401A401E7C
:1019B0000590E00306D45B462146179A059800F08F
:1019C0005DF805441498007818B15A461799904765
:1019D0006D1CE00324D55B462146179A059800F05C
:1019E0004DF805441CE00498002807DBDDE90301FD
:1019F000884203DD0098405C179901E01799302078
:101A00005A469047049805F10105401C049001983E
:101A1000401E019004D12E205A46179990476D1C04
:101A2000BAF10001AAF1010ADDDC05E017F8010BAB
:101A30005A46179990476D1CB8F10001A8F10108AA
:101A4000F4DC5B462146179A0598ABE62D000000B2
:101A50002B000000200000002DE9F0410446002585
:101A60001E461746880404D405E039462020B047B6
:101A70006D1C641EF9D52846BDE8F0812DE9F041C2
:101A8000044600251E469046C80301D5302700E0D5
:101A90002027880404D505E041463846B0476D1C30
:101AA000641EF9D52846BDE8F0810204060800004E
:101AB00000000102030401020304060708090000F4
:101AC000E01A00080000002008000000D8110008FB
:101AD000E81A00080800002070040000E81100085F
:081AE0000000000000000000FE
:04000005080000ED02
:00000001FF
